{
    "address": "0xf41dE10c0FCf6bbB60C43AA94069cc0b03CF5797",
    "abi": [
        {
            "anonymous": false,
            "inputs": [
                {
                    "indexed": true,
                    "internalType": "address",
                    "name": "trader",
                    "type": "address"
                },
                {
                    "indexed": true,
                    "internalType": "address",
                    "name": "baseToken",
                    "type": "address"
                },
                {
                    "indexed": false,
                    "internalType": "int256",
                    "name": "fundingPayment",
                    "type": "int256"
                }
            ],
            "name": "FundingPaymentSettled",
            "type": "event"
        },
        {
            "anonymous": false,
            "inputs": [
                {
                    "indexed": true,
                    "internalType": "address",
                    "name": "maker",
                    "type": "address"
                },
                {
                    "indexed": true,
                    "internalType": "address",
                    "name": "baseToken",
                    "type": "address"
                },
                {
                    "indexed": true,
                    "internalType": "address",
                    "name": "quoteToken",
                    "type": "address"
                },
                {
                    "indexed": false,
                    "internalType": "int24",
                    "name": "lowerTick",
                    "type": "int24"
                },
                {
                    "indexed": false,
                    "internalType": "int24",
                    "name": "upperTick",
                    "type": "int24"
                },
                {
                    "indexed": false,
                    "internalType": "int256",
                    "name": "base",
                    "type": "int256"
                },
                {
                    "indexed": false,
                    "internalType": "int256",
                    "name": "quote",
                    "type": "int256"
                },
                {
                    "indexed": false,
                    "internalType": "int128",
                    "name": "liquidity",
                    "type": "int128"
                },
                {
                    "indexed": false,
                    "internalType": "uint256",
                    "name": "quoteFee",
                    "type": "uint256"
                }
            ],
            "name": "LiquidityChanged",
            "type": "event"
        },
        {
            "anonymous": false,
            "inputs": [
                {
                    "indexed": true,
                    "internalType": "address",
                    "name": "previousOwner",
                    "type": "address"
                },
                {
                    "indexed": true,
                    "internalType": "address",
                    "name": "newOwner",
                    "type": "address"
                }
            ],
            "name": "OwnershipTransferred",
            "type": "event"
        },
        {
            "anonymous": false,
            "inputs": [
                {
                    "indexed": false,
                    "internalType": "address",
                    "name": "account",
                    "type": "address"
                }
            ],
            "name": "Paused",
            "type": "event"
        },
        {
            "anonymous": false,
            "inputs": [
                {
                    "indexed": true,
                    "internalType": "address",
                    "name": "trader",
                    "type": "address"
                },
                {
                    "indexed": true,
                    "internalType": "address",
                    "name": "baseToken",
                    "type": "address"
                },
                {
                    "indexed": false,
                    "internalType": "int256",
                    "name": "exchangedPositionSize",
                    "type": "int256"
                },
                {
                    "indexed": false,
                    "internalType": "int256",
                    "name": "exchangedPositionNotional",
                    "type": "int256"
                },
                {
                    "indexed": false,
                    "internalType": "uint256",
                    "name": "fee",
                    "type": "uint256"
                },
                {
                    "indexed": false,
                    "internalType": "int256",
                    "name": "openNotional",
                    "type": "int256"
                },
                {
                    "indexed": false,
                    "internalType": "int256",
                    "name": "realizedPnl",
                    "type": "int256"
                },
                {
                    "indexed": false,
                    "internalType": "uint256",
                    "name": "sqrtPriceAfterX96",
                    "type": "uint256"
                }
            ],
            "name": "PositionChanged",
            "type": "event"
        },
        {
            "anonymous": false,
            "inputs": [
                {
                    "indexed": true,
                    "internalType": "address",
                    "name": "trader",
                    "type": "address"
                },
                {
                    "indexed": true,
                    "internalType": "address",
                    "name": "baseToken",
                    "type": "address"
                },
                {
                    "indexed": false,
                    "internalType": "uint256",
                    "name": "positionNotional",
                    "type": "uint256"
                },
                {
                    "indexed": false,
                    "internalType": "uint256",
                    "name": "positionSize",
                    "type": "uint256"
                },
                {
                    "indexed": false,
                    "internalType": "uint256",
                    "name": "liquidationFee",
                    "type": "uint256"
                },
                {
                    "indexed": false,
                    "internalType": "address",
                    "name": "liquidator",
                    "type": "address"
                }
            ],
            "name": "PositionLiquidated",
            "type": "event"
        },
        {
            "anonymous": false,
            "inputs": [
                {
                    "indexed": true,
                    "internalType": "bytes32",
                    "name": "referralCode",
                    "type": "bytes32"
                }
            ],
            "name": "ReferredPositionChanged",
            "type": "event"
        },
        {
            "anonymous": false,
            "inputs": [
                {
                    "indexed": true,
                    "internalType": "address",
                    "name": "forwarder",
                    "type": "address"
                }
            ],
            "name": "TrustedForwarderChanged",
            "type": "event"
        },
        {
            "anonymous": false,
            "inputs": [
                {
                    "indexed": false,
                    "internalType": "address",
                    "name": "trustedForwarder",
                    "type": "address"
                }
            ],
            "name": "TrustedForwarderUpdated",
            "type": "event"
        },
        {
            "anonymous": false,
            "inputs": [
                {
                    "indexed": false,
                    "internalType": "address",
                    "name": "account",
                    "type": "address"
                }
            ],
            "name": "Unpaused",
            "type": "event"
        },
        {
            "inputs": [
                {
                    "components": [
                        {
                            "internalType": "address",
                            "name": "baseToken",
                            "type": "address"
                        },
                        {
                            "internalType": "uint256",
                            "name": "base",
                            "type": "uint256"
                        },
                        {
                            "internalType": "uint256",
                            "name": "quote",
                            "type": "uint256"
                        },
                        {
                            "internalType": "int24",
                            "name": "lowerTick",
                            "type": "int24"
                        },
                        {
                            "internalType": "int24",
                            "name": "upperTick",
                            "type": "int24"
                        },
                        {
                            "internalType": "uint256",
                            "name": "minBase",
                            "type": "uint256"
                        },
                        {
                            "internalType": "uint256",
                            "name": "minQuote",
                            "type": "uint256"
                        },
                        {
                            "internalType": "bool",
                            "name": "useTakerBalance",
                            "type": "bool"
                        },
                        {
                            "internalType": "uint256",
                            "name": "deadline",
                            "type": "uint256"
                        }
                    ],
                    "internalType": "struct IClearingHouse.AddLiquidityParams",
                    "name": "params",
                    "type": "tuple"
                }
            ],
            "name": "addLiquidity",
            "outputs": [
                {
                    "components": [
                        {
                            "internalType": "uint256",
                            "name": "base",
                            "type": "uint256"
                        },
                        {
                            "internalType": "uint256",
                            "name": "quote",
                            "type": "uint256"
                        },
                        {
                            "internalType": "uint256",
                            "name": "fee",
                            "type": "uint256"
                        },
                        {
                            "internalType": "uint256",
                            "name": "liquidity",
                            "type": "uint256"
                        }
                    ],
                    "internalType": "struct IClearingHouse.AddLiquidityResponse",
                    "name": "",
                    "type": "tuple"
                }
            ],
            "stateMutability": "nonpayable",
            "type": "function"
        },
        {
            "inputs": [
                {
                    "internalType": "address",
                    "name": "maker",
                    "type": "address"
                },
                {
                    "internalType": "address",
                    "name": "baseToken",
                    "type": "address"
                }
            ],
            "name": "cancelAllExcessOrders",
            "outputs": [],
            "stateMutability": "nonpayable",
            "type": "function"
        },
        {
            "inputs": [
                {
                    "internalType": "address",
                    "name": "maker",
                    "type": "address"
                },
                {
                    "internalType": "address",
                    "name": "baseToken",
                    "type": "address"
                },
                {
                    "internalType": "bytes32[]",
                    "name": "orderIds",
                    "type": "bytes32[]"
                }
            ],
            "name": "cancelExcessOrders",
            "outputs": [],
            "stateMutability": "nonpayable",
            "type": "function"
        },
        {
            "inputs": [],
            "name": "candidate",
            "outputs": [
                {
                    "internalType": "address",
                    "name": "",
                    "type": "address"
                }
            ],
            "stateMutability": "view",
            "type": "function"
        },
        {
            "inputs": [
                {
                    "components": [
                        {
                            "internalType": "address",
                            "name": "baseToken",
                            "type": "address"
                        },
                        {
                            "internalType": "uint160",
                            "name": "sqrtPriceLimitX96",
                            "type": "uint160"
                        },
                        {
                            "internalType": "uint256",
                            "name": "oppositeAmountBound",
                            "type": "uint256"
                        },
                        {
                            "internalType": "uint256",
                            "name": "deadline",
                            "type": "uint256"
                        },
                        {
                            "internalType": "bytes32",
                            "name": "referralCode",
                            "type": "bytes32"
                        }
                    ],
                    "internalType": "struct IClearingHouse.ClosePositionParams",
                    "name": "params",
                    "type": "tuple"
                }
            ],
            "name": "closePosition",
            "outputs": [
                {
                    "internalType": "uint256",
                    "name": "base",
                    "type": "uint256"
                },
                {
                    "internalType": "uint256",
                    "name": "quote",
                    "type": "uint256"
                }
            ],
            "stateMutability": "nonpayable",
            "type": "function"
        },
        {
            "inputs": [],
            "name": "getAccountBalance",
            "outputs": [
                {
                    "internalType": "address",
                    "name": "",
                    "type": "address"
                }
            ],
            "stateMutability": "view",
            "type": "function"
        },
        {
            "inputs": [
                {
                    "internalType": "address",
                    "name": "trader",
                    "type": "address"
                }
            ],
            "name": "getAccountValue",
            "outputs": [
                {
                    "internalType": "int256",
                    "name": "",
                    "type": "int256"
                }
            ],
            "stateMutability": "view",
            "type": "function"
        },
        {
            "inputs": [],
            "name": "getClearingHouseConfig",
            "outputs": [
                {
                    "internalType": "address",
                    "name": "",
                    "type": "address"
                }
            ],
            "stateMutability": "view",
            "type": "function"
        },
        {
            "inputs": [],
            "name": "getExchange",
            "outputs": [
                {
                    "internalType": "address",
                    "name": "",
                    "type": "address"
                }
            ],
            "stateMutability": "view",
            "type": "function"
        },
        {
            "inputs": [],
            "name": "getInsuranceFund",
            "outputs": [
                {
                    "internalType": "address",
                    "name": "",
                    "type": "address"
                }
            ],
            "stateMutability": "view",
            "type": "function"
        },
        {
            "inputs": [],
            "name": "getOrderBook",
            "outputs": [
                {
                    "internalType": "address",
                    "name": "",
                    "type": "address"
                }
            ],
            "stateMutability": "view",
            "type": "function"
        },
        {
            "inputs": [],
            "name": "getQuoteToken",
            "outputs": [
                {
                    "internalType": "address",
                    "name": "",
                    "type": "address"
                }
            ],
            "stateMutability": "view",
            "type": "function"
        },
        {
            "inputs": [],
            "name": "getTrustedForwarder",
            "outputs": [
                {
                    "internalType": "address",
                    "name": "",
                    "type": "address"
                }
            ],
            "stateMutability": "view",
            "type": "function"
        },
        {
            "inputs": [],
            "name": "getUniswapV3Factory",
            "outputs": [
                {
                    "internalType": "address",
                    "name": "",
                    "type": "address"
                }
            ],
            "stateMutability": "view",
            "type": "function"
        },
        {
            "inputs": [],
            "name": "getVault",
            "outputs": [
                {
                    "internalType": "address",
                    "name": "",
                    "type": "address"
                }
            ],
            "stateMutability": "view",
            "type": "function"
        },
        {
            "inputs": [
                {
                    "internalType": "address",
                    "name": "clearingHouseConfigArg",
                    "type": "address"
                },
                {
                    "internalType": "address",
                    "name": "vaultArg",
                    "type": "address"
                },
                {
                    "internalType": "address",
                    "name": "quoteTokenArg",
                    "type": "address"
                },
                {
                    "internalType": "address",
                    "name": "uniV3FactoryArg",
                    "type": "address"
                },
                {
                    "internalType": "address",
                    "name": "exchangeArg",
                    "type": "address"
                },
                {
                    "internalType": "address",
                    "name": "accountBalanceArg",
                    "type": "address"
                },
                {
                    "internalType": "address",
                    "name": "insuranceFundArg",
                    "type": "address"
                }
            ],
            "name": "initialize",
            "outputs": [],
            "stateMutability": "nonpayable",
            "type": "function"
        },
        {
            "inputs": [
                {
                    "internalType": "address",
                    "name": "forwarder",
                    "type": "address"
                }
            ],
            "name": "isTrustedForwarder",
            "outputs": [
                {
                    "internalType": "bool",
                    "name": "",
                    "type": "bool"
                }
            ],
            "stateMutability": "view",
            "type": "function"
        },
        {
            "inputs": [
                {
                    "internalType": "address",
                    "name": "trader",
                    "type": "address"
                },
                {
                    "internalType": "address",
                    "name": "baseToken",
                    "type": "address"
                }
            ],
            "name": "liquidate",
            "outputs": [],
            "stateMutability": "nonpayable",
            "type": "function"
        },
        {
            "inputs": [
                {
                    "components": [
                        {
                            "internalType": "address",
                            "name": "baseToken",
                            "type": "address"
                        },
                        {
                            "internalType": "bool",
                            "name": "isBaseToQuote",
                            "type": "bool"
                        },
                        {
                            "internalType": "bool",
                            "name": "isExactInput",
                            "type": "bool"
                        },
                        {
                            "internalType": "uint256",
                            "name": "amount",
                            "type": "uint256"
                        },
                        {
                            "internalType": "uint256",
                            "name": "oppositeAmountBound",
                            "type": "uint256"
                        },
                        {
                            "internalType": "uint256",
                            "name": "deadline",
                            "type": "uint256"
                        },
                        {
                            "internalType": "uint160",
                            "name": "sqrtPriceLimitX96",
                            "type": "uint160"
                        },
                        {
                            "internalType": "bytes32",
                            "name": "referralCode",
                            "type": "bytes32"
                        }
                    ],
                    "internalType": "struct IClearingHouse.OpenPositionParams",
                    "name": "params",
                    "type": "tuple"
                }
            ],
            "name": "openPosition",
            "outputs": [
                {
                    "internalType": "uint256",
                    "name": "base",
                    "type": "uint256"
                },
                {
                    "internalType": "uint256",
                    "name": "quote",
                    "type": "uint256"
                }
            ],
            "stateMutability": "nonpayable",
            "type": "function"
        },
        {
            "inputs": [],
            "name": "owner",
            "outputs": [
                {
                    "internalType": "address",
                    "name": "",
                    "type": "address"
                }
            ],
            "stateMutability": "view",
            "type": "function"
        },
        {
            "inputs": [],
            "name": "pause",
            "outputs": [],
            "stateMutability": "nonpayable",
            "type": "function"
        },
        {
            "inputs": [],
            "name": "paused",
            "outputs": [
                {
                    "internalType": "bool",
                    "name": "",
                    "type": "bool"
                }
            ],
            "stateMutability": "view",
            "type": "function"
        },
        {
            "inputs": [
                {
                    "components": [
                        {
                            "internalType": "address",
                            "name": "baseToken",
                            "type": "address"
                        },
                        {
                            "internalType": "int24",
                            "name": "lowerTick",
                            "type": "int24"
                        },
                        {
                            "internalType": "int24",
                            "name": "upperTick",
                            "type": "int24"
                        },
                        {
                            "internalType": "uint128",
                            "name": "liquidity",
                            "type": "uint128"
                        },
                        {
                            "internalType": "uint256",
                            "name": "minBase",
                            "type": "uint256"
                        },
                        {
                            "internalType": "uint256",
                            "name": "minQuote",
                            "type": "uint256"
                        },
                        {
                            "internalType": "uint256",
                            "name": "deadline",
                            "type": "uint256"
                        }
                    ],
                    "internalType": "struct IClearingHouse.RemoveLiquidityParams",
                    "name": "params",
                    "type": "tuple"
                }
            ],
            "name": "removeLiquidity",
            "outputs": [
                {
                    "components": [
                        {
                            "internalType": "uint256",
                            "name": "base",
                            "type": "uint256"
                        },
                        {
                            "internalType": "uint256",
                            "name": "quote",
                            "type": "uint256"
                        },
                        {
                            "internalType": "uint256",
                            "name": "fee",
                            "type": "uint256"
                        }
                    ],
                    "internalType": "struct IClearingHouse.RemoveLiquidityResponse",
                    "name": "",
                    "type": "tuple"
                }
            ],
            "stateMutability": "nonpayable",
            "type": "function"
        },
        {
            "inputs": [],
            "name": "renounceOwnership",
            "outputs": [],
            "stateMutability": "nonpayable",
            "type": "function"
        },
        {
            "inputs": [
                {
                    "internalType": "address",
                    "name": "newOwner",
                    "type": "address"
                }
            ],
            "name": "setOwner",
            "outputs": [],
            "stateMutability": "nonpayable",
            "type": "function"
        },
        {
            "inputs": [
                {
                    "internalType": "address",
                    "name": "trustedForwarderArg",
                    "type": "address"
                }
            ],
            "name": "setTrustedForwarder",
            "outputs": [],
            "stateMutability": "nonpayable",
            "type": "function"
        },
        {
            "inputs": [
                {
                    "internalType": "address",
                    "name": "trader",
                    "type": "address"
                }
            ],
            "name": "settleAllFunding",
            "outputs": [],
            "stateMutability": "nonpayable",
            "type": "function"
        },
        {
            "inputs": [
                {
                    "internalType": "uint256",
                    "name": "amount0Owed",
                    "type": "uint256"
                },
                {
                    "internalType": "uint256",
                    "name": "amount1Owed",
                    "type": "uint256"
                },
                {
                    "internalType": "bytes",
                    "name": "data",
                    "type": "bytes"
                }
            ],
            "name": "uniswapV3MintCallback",
            "outputs": [],
            "stateMutability": "nonpayable",
            "type": "function"
        },
        {
            "inputs": [
                {
                    "internalType": "int256",
                    "name": "amount0Delta",
                    "type": "int256"
                },
                {
                    "internalType": "int256",
                    "name": "amount1Delta",
                    "type": "int256"
                },
                {
                    "internalType": "bytes",
                    "name": "data",
                    "type": "bytes"
                }
            ],
            "name": "uniswapV3SwapCallback",
            "outputs": [],
            "stateMutability": "nonpayable",
            "type": "function"
        },
        {
            "inputs": [],
            "name": "unpause",
            "outputs": [],
            "stateMutability": "nonpayable",
            "type": "function"
        },
        {
            "inputs": [],
            "name": "updateOwner",
            "outputs": [],
            "stateMutability": "nonpayable",
            "type": "function"
        },
        {
            "inputs": [],
            "name": "versionRecipient",
            "outputs": [
                {
                    "internalType": "string",
                    "name": "",
                    "type": "string"
                }
            ],
            "stateMutability": "pure",
            "type": "function"
        }
    ],
    "transactionHash": "0xf3c60c547195ba1441d61c4034327ac5d03c4948c86b2471127c637590d3f544",
    "args": [],
    "solcInputHash": "bbcb938f6f927e009bca6fa7c0bf12e2",
    "bytecode": "0x608060405234801561001057600080fd5b506157d180620000216000396000f3fe608060405234801561001057600080fd5b50600436106101af5760003560e01c80638d928af8116100ef578063cc3606dc11610092578063cc3606dc14610331578063cde109b614610344578063ce1b815f14610364578063d34879971461036c578063da7422281461037f578063eb9b912e14610392578063f807cd22146103a5578063fa461e33146103ad576101af565b80638d928af8146102ce5780638da5cb5b146102d6578063aa2a8294146102de578063b081983b146102e6578063b248c4ef146102ee578063b6b1b6c3146102f6578063bc5920ba14610309578063c35eb28c14610311576101af565b80635ae80951116101575780635ae80951146102605780635c975abb146102805780636896fabf146102885780636c8381f814610290578063715018a61461029857806380a98332146102a05780638456cb59146102b357806386b9d81f146102bb576101af565b8062aa9a89146101b457806313af4035146101de578063158626f7146101f357806335876476146102085780633f4ba83a1461021b578063486ff0cd146102235780634a64d67d14610238578063572b6c0514610240575b600080fd5b6101c76101c2366004614a3e565b6103c0565b6040516101d5929190615567565b60405180910390f35b6101f16101ec3660046145a0565b610662565b005b6101fb6107bd565b6040516101d59190614d8c565b6101f1610216366004614610565b6107ce565b6101f1610c0f565b61022b610c76565b6040516101d59190614f7a565b6101fb610c95565b61025361024e3660046145a0565b610ca5565b6040516101d59190614ef5565b61027361026e3660046145a0565b610cbc565b6040516101d59190614f49565b610253610ea3565b6101fb610eac565b6101fb610ebc565b6101f1610ecb565b6101f16102ae3660046146a5565b610f6c565b6101f161104f565b6101f16102c93660046145d8565b6110b4565b6101fb6114bb565b6101fb6114cb565b6101fb6114da565b6101fb6114ea565b6101fb6114fa565b6101c7610304366004614afa565b61150a565b6101f1611760565b61032461031f3660046149c2565b61184c565b6040516101d5919061542e565b6101f161033f3660046145d8565b612057565b610357610352366004614b9e565b61218d565b6040516101d591906154e9565b6101fb61264e565b6101f161037a3660046148e2565b61265d565b6101f161038d3660046145a0565b6128e1565b6101f16103a03660046145a0565b6129ac565b6101fb612a6e565b6101f16103bb3660046148e2565b612a7e565b6000806103cb610ea3565b15610410576040805162461bcd60e51b815260206004820152601060248201526f14185d5cd8589b194e881c185d5cd95960821b604482015290519081900360640190fd5b60026001541415610456576040805162461bcd60e51b815260206004820152601f6024820152600080516020615632833981519152604482015290519081900360640190fd5b6002600155606083013580610469612c99565b11156104905760405162461bcd60e51b815260040161048790615296565b60405180910390fd5b600061049a612c9d565b90506104b2816104ad60208801886145a0565b612cac565b5060006105166040518060600160405280846001600160a01b031681526020018860000160208101906104e591906145a0565b6001600160a01b0316815260200188602001602081019061050691906145a0565b6001600160a01b03169052612e6a565b905060008082604001511261052c57600061052f565b60015b905060008261012001516105475787604001356105d1565b6101325460408051633a14199b60e11b815290516105d1926001600160a01b0316916374283336916004808301926020929190829003018186803b15801561058e57600080fd5b505afa1580156105a2573d6000803e3d6000fd5b505050506040513d601f19601f820116820180604052508101906105c69190614d4f565b60408a013590612f8a565b905061060e6040518060a0016040528084151581526020018415158152602001856000015181526020018560200151815260200183815250612fa6565b608088013515610648576040516080890135907f09a07769667a46c2b89124a4d731c76fb5203061073aec16319ba9c6a79a324890600090a25b505080516020909101516001805590969095509350505050565b61066a612c9d565b6001600160a01b031661067b6114cb565b6001600160a01b0316146106bf576040805162461bcd60e51b8152602060048201526006602482015265534f5f434e4f60d01b604482015290519081900360640190fd5b6001600160a01b038116610703576040805162461bcd60e51b81526020600482015260066024820152650534f5f4e57360d41b604482015290519081900360640190fd5b6065546001600160a01b038281169116141561074f576040805162461bcd60e51b8152602060048201526006602482015265534f5f53414f60d01b604482015290519081900360640190fd5b6066546001600160a01b038281169116141561079b576040805162461bcd60e51b8152602060048201526006602482015265534f5f53414360d01b604482015290519081900360640190fd5b606680546001600160a01b0319166001600160a01b0392909216919091179055565b610137546001600160a01b03165b90565b600054610100900460ff16806107e757506107e761307c565b806107f5575060005460ff16155b6108305760405162461bcd60e51b815260040180806020018281038252602e8152602001806156ba602e913960400191505060405180910390fd5b600054610100900460ff1615801561085b576000805460ff1961ff0019909116610100171660011790555b61086d876001600160a01b031661308d565b6108895760405162461bcd60e51b8152600401610487906152b5565b61089b866001600160a01b031661308d565b6108b75760405162461bcd60e51b8152600401610487906150f6565b856001600160a01b031663313ce5676040518163ffffffff1660e01b815260040160206040518083038186803b1580156108f057600080fd5b505afa158015610904573d6000803e3d6000fd5b505050506040513d601f19601f820116820180604052508101906109289190614d6b565b60ff1660121461094a5760405162461bcd60e51b815260040161048790614fcd565b61095c856001600160a01b031661308d565b6109785760405162461bcd60e51b815260040161048790615092565b61098a886001600160a01b031661308d565b6109a65760405162461bcd60e51b8152600401610487906151ba565b6109b8836001600160a01b031661308d565b6109d45760405162461bcd60e51b815260040161048790615071565b6109e6846001600160a01b031661308d565b610a025760405162461bcd60e51b81526004016104879061519a565b610a14826001600160a01b031661308d565b610a305760405162461bcd60e51b81526004016104879061502e565b6000846001600160a01b031663b248c4ef6040518163ffffffff1660e01b815260040160206040518083038186803b158015610a6b57600080fd5b505afa158015610a7f573d6000803e3d6000fd5b505050506040513d601f19601f82011682018060405250810190610aa391906145bc565b9050610ab7816001600160a01b031661308d565b610ad35760405162461bcd60e51b815260040161048790615236565b610adb613093565b610ae361313c565b61013280546001600160a01b03199081166001600160a01b038c811691909117909255610133805482168b84161790819055610130805483168b8516179055610131805483168a85161790556101348054831689851617905561013580548316858516179055610136805483168885161790556101378054909216868416179091556040805163313ce56760e01b81529051919092169163313ce567916004808301926020929190829003018186803b158015610b9f57600080fd5b505afa158015610bb3573d6000803e3d6000fd5b505050506040513d601f19601f82011682018060405250810190610bd79190614d6b565b61013160146101000a81548160ff021916908360ff160217905550508015610c05576000805461ff00191690555b5050505050505050565b610c17612c9d565b6001600160a01b0316610c286114cb565b6001600160a01b031614610c6c576040805162461bcd60e51b8152602060048201526006602482015265534f5f434e4f60d01b604482015290519081900360640190fd5b610c746131d9565b565b6040805180820190915260058152640322e302e360dc1b602082015290565b610130546001600160a01b031690565b60fd546001600160a01b038281169116145b919050565b610134546040516380f57f1160e01b815260009182916001600160a01b03909116906380f57f1190610cf2908690600401614d8c565b60206040518083038186803b158015610d0a57600080fd5b505afa158015610d1e573d6000803e3d6000fd5b505050506040513d601f19601f82011682018060405250810190610d4291906148a7565b6101365460405163bba85bcf60e01b8152919250600091829182916001600160a01b039091169063bba85bcf90610d7d908990600401614d8c565b60606040518083038186803b158015610d9557600080fd5b505afa158015610da9573d6000803e3d6000fd5b505050506040513d601f19601f82011682018060405250810190610dcd9190614932565b6101335460405163f8b2cb4f60e01b81529396509194509250600091610e6e916001600160a01b03169063f8b2cb4f90610e0b908b90600401614d8c565b60206040518083038186803b158015610e2357600080fd5b505afa158015610e37573d6000803e3d6000fd5b505050506040513d601f19601f82011682018060405250810190610e5b91906148a7565b61013154600160a01b900460ff16613279565b9050610e98610e7c8361328f565b610e928581610e8b898b6132db565b8690613340565b90613340565b979650505050505050565b60995460ff1690565b610136546001600160a01b031690565b6066546001600160a01b031690565b610ed3612c9d565b6001600160a01b0316610ee46114cb565b6001600160a01b031614610f28576040805162461bcd60e51b8152602060048201526006602482015265534f5f434e4f60d01b604482015290519081900360640190fd5b6065546040516000916001600160a01b031690600080516020615709833981519152908390a3606580546001600160a01b0319908116909155606680549091169055565b610f74610ea3565b15610fb9576040805162461bcd60e51b815260206004820152601060248201526f14185d5cd8589b194e881c185d5cd95960821b604482015290519081900360640190fd5b60026001541415610fff576040805162461bcd60e51b815260206004820152601f6024820152600080516020615632833981519152604482015290519081900360640190fd5b600260018190555061104584848484808060200260200160405190810160405280939291908181526020018383602002808284376000920191909152506133a592505050565b5050600180555050565b611057612c9d565b6001600160a01b03166110686114cb565b6001600160a01b0316146110ac576040805162461bcd60e51b8152602060048201526006602482015265534f5f434e4f60d01b604482015290519081900360640190fd5b610c74613586565b6110bc610ea3565b15611101576040805162461bcd60e51b815260206004820152601060248201526f14185d5cd8589b194e881c185d5cd95960821b604482015290519081900360640190fd5b60026001541415611147576040805162461bcd60e51b815260206004820152601f6024820152600080516020615632833981519152604482015290519081900360640190fd5b60026001556101365460405163659e3dc760e11b81526001600160a01b039091169063cb3c7b8e9061117d908590600401614d8c565b60206040518083038186803b15801561119557600080fd5b505afa1580156111a9573d6000803e3d6000fd5b505050506040513d601f19601f820116820180604052508101906111cd919061486f565b156111ea5760405162461bcd60e51b8152600401610487906151db565b6101365460405163f75c266d60e01b81526001600160a01b039091169063f75c266d9061121b908590600401614d8c565b60206040518083038186803b15801561123357600080fd5b505afa158015611247573d6000803e3d6000fd5b505050506040513d601f19601f8201168201806040525081019061126b91906148a7565b61127483610cbc565b126112915760405162461bcd60e51b815260040161048790614fef565b61129b8282612cac565b50604080516060810182526001600160a01b0380851682528316602082015260009181018290526112cb90612e6a565b9050600061136c61013260009054906101000a90046001600160a01b03166001600160a01b031663fedf924b6040518163ffffffff1660e01b815260040160206040518083038186803b15801561132157600080fd5b505afa158015611335573d6000803e3d6000fd5b505050506040513d601f19601f820116820180604052508101906113599190614d4f565b6113668460600151613609565b90612f8a565b610136549091506001600160a01b031663874044f38561138b84613632565b6040518363ffffffff1660e01b81526004016113a8929190614e9f565b600060405180830381600087803b1580156113c257600080fd5b505af11580156113d6573d6000803e3d6000fd5b5050505060006113e4612c9d565b610136549091506001600160a01b031663874044f3826114038561328f565b6040518363ffffffff1660e01b8152600401611420929190614e9f565b600060405180830381600087803b15801561143a57600080fd5b505af115801561144e573d6000803e3d6000fd5b50505050836001600160a01b0316856001600160a01b03167fd9aced30440caca81570436bc942f816cfd95a3f08f700a2aeb6334c7cb5b4976114948660600151613609565b86516040516114a892919088908890615575565b60405180910390a3505060018055505050565b610133546001600160a01b031690565b6065546001600160a01b031690565b610132546001600160a01b031690565b610131546001600160a01b031690565b610135546001600160a01b031690565b600080611515610ea3565b1561155a576040805162461bcd60e51b815260206004820152601060248201526f14185d5cd8589b194e881c185d5cd95960821b604482015290519081900360640190fd5b600260015414156115a0576040805162461bcd60e51b815260206004820152601f6024820152600080516020615632833981519152604482015290519081900360640190fd5b600260015560a0830151806115b3612c99565b11156115d15760405162461bcd60e51b815260040161048790615296565b60006115db612c9d565b610136548651604051633f1cdc8560e21b81529293506001600160a01b039091169163fc7372149161161291859190600401614da0565b600060405180830381600087803b15801561162c57600080fd5b505af1158015611640573d6000803e3d6000fd5b50505050611652818660000151612cac565b5060006116c66040518060e00160405280846001600160a01b0316815260200188600001516001600160a01b03168152602001886020015115158152602001886040015115158152602001600015158152602001886060015181526020018860c001516001600160a01b0316815250613646565b905061170f6040518060a0016040528088602001511515815260200188604001511515815260200183600001518152602001836020015181526020018860800151815250612fa6565b60e0860151156117485760e08601516040517f09a07769667a46c2b89124a4d731c76fb5203061073aec16319ba9c6a79a324890600090a25b80516020909101516001805590969095509350505050565b6066546001600160a01b03166117a5576040805162461bcd60e51b81526020600482015260056024820152640534f5f43360dc1b604482015290519081900360640190fd5b6117ad612c9d565b6066546001600160a01b039081169116146117f8576040805162461bcd60e51b8152602060048201526006602482015265534f5f434e4360d01b604482015290519081900360640190fd5b6066546065546040516001600160a01b03928316929091169060008051602061570983398151915290600090a360668054606580546001600160a01b03199081166001600160a01b03841617909155169055565b611854614473565b61185c610ea3565b156118a1576040805162461bcd60e51b815260206004820152601060248201526f14185d5cd8589b194e881c185d5cd95960821b604482015290519081900360640190fd5b600260015414156118e7576040805162461bcd60e51b815260206004820152601f6024820152600080516020615632833981519152604482015290519081900360640190fd5b6002600155610100820135806118fb612c99565b11156119195760405162461bcd60e51b815260040161048790615296565b61192a610100840160e08501614853565b156119475760405162461bcd60e51b815260040161048790615158565b6000611951612c9d565b610136549091506001600160a01b031663fc7372148261197460208801886145a0565b6040518363ffffffff1660e01b8152600401611991929190614da0565b600060405180830381600087803b1580156119ab57600080fd5b505af11580156119bf573d6000803e3d6000fd5b50600092506119d991508390506104ad60208801886145a0565b610135546040805160e081019091526001600160a01b0385811682529293506000929091169063e8ab2fb390602080820190611a17908b018b6145a0565b6001600160a01b031681526020018960200135815260200189604001358152602001896060016020810190611a4c919061488b565b60020b8152602001611a6460a08b0160808c0161488b565b60020b8152602001858152506040518263ffffffff1660e01b8152600401611a8c91906153c0565b608060405180830381600087803b158015611aa657600080fd5b505af1158015611aba573d6000803e3d6000fd5b505050506040513d601f19601f82011682018060405250810190611ade91906149da565b90508560a00135816000015110158015611b0057508560c00135816020015110155b611b1c5760405162461bcd60e51b815260040161048790615137565b611b2d610100870160e08801614853565b15611eda5780516020820151901515901515811415611b5e5760405162461bcd60e51b81526004016104879061535a565b610136546000906001600160a01b0316636332fef686611b8160208c018c6145a0565b6040518363ffffffff1660e01b8152600401611b9e929190614da0565b60606040518083038186803b158015611bb657600080fd5b505afa158015611bca573d6000803e3d6000fd5b505050506040513d601f19601f82011682018060405250810190611bee9190614a4f565b90506000808315611c54578451611c049061328f565b83511215611c245760405162461bcd60e51b8152600401610487906152f7565b8451611c2f90613632565b83516020850151919350611c4d91611c479085613a51565b90613afa565b9050611cac565b611c61856020015161328f565b83602001511215611c845760405162461bcd60e51b815260040161048790615318565b611c918560200151613632565b60208401518451919250611ca991611c479084613a51565b91505b610135546001600160a01b031663b0c04174611cfa89611ccf60208f018f6145a0565b8e6060016020810190611ce2919061488b565b8f6080016020810190611cf5919061488b565b613bb2565b84846040518463ffffffff1660e01b8152600401611d1a93929190614f00565b600060405180830381600087803b158015611d3457600080fd5b505af1158015611d48573d6000803e3d6000fd5b505061013654600092506001600160a01b03169050633c9b5ad189611d7060208f018f6145a0565b86866040518563ffffffff1660e01b8152600401611d919493929190614e40565b6040805180830381600087803b158015611daa57600080fd5b505af1158015611dbe573d6000803e3d6000fd5b505050506040513d601f19601f82011682018060405250810190611de291906148bf565b61013454909250600091506001600160a01b03166399e4a771611e0860208f018f6145a0565b60006040518363ffffffff1660e01b8152600401611e27929190614eb8565b60206040518083038186803b158015611e3f57600080fd5b505afa158015611e53573d6000803e3d6000fd5b505050506040513d601f19601f82011682018060405250810190611e7791906145bc565b6001600160a01b03169050611e8f60208d018d6145a0565b6001600160a01b0316896001600160a01b03166000805160206156528339815191528686600087600088604051611ecb96959493929190614f52565b60405180910390a35050505050505b6101365460408201516001600160a01b039091169063874044f3908590611f009061328f565b6040518363ffffffff1660e01b8152600401611f1d929190614e9f565b600060405180830381600087803b158015611f3757600080fd5b505af1158015611f4b573d6000803e3d6000fd5b50505050611f5883613c13565b610130546001600160a01b0316611f7260208801886145a0565b6001600160a01b039081169085167fcb47d8bf351d355bdd5497973533eada41777b4509f2585a62ae246336ebaa94611fb160808b0160608c0161488b565b611fc160a08c0160808d0161488b565b8651611fcc9061328f565b611fd9886020015161328f565b611fef89606001516001600160801b0316613c86565b896040015160405161200696959493929190614f16565b60405180910390a4604051806080016040528082600001518152602001826020015181526020018260400151815260200182606001516001600160801b031681525094505050505060018055919050565b61205f610ea3565b156120a4576040805162461bcd60e51b815260206004820152601060248201526f14185d5cd8589b194e881c185d5cd95960821b604482015290519081900360640190fd5b600260015414156120ea576040805162461bcd60e51b815260206004820152601f6024820152600080516020615632833981519152604482015290519081900360640190fd5b6002600155610135546040516321b499f560e11b81526000916001600160a01b03169063436933ea906121239086908690600401614da0565b60006040518083038186803b15801561213b57600080fd5b505afa15801561214f573d6000803e3d6000fd5b505050506040513d6000823e601f3d908101601f1916820160405261217791908101906147d0565b90506121848383836133a5565b50506001805550565b61219561449b565b61219d610ea3565b156121e2576040805162461bcd60e51b815260206004820152601060248201526f14185d5cd8589b194e881c185d5cd95960821b604482015290519081900360640190fd5b60026001541415612228576040805162461bcd60e51b815260206004820152601f6024820152600080516020615632833981519152604482015290519081900360640190fd5b600260015560c08201358061223b612c99565b11156122595760405162461bcd60e51b815260040161048790615296565b6000612263612c9d565b9050612276816104ad60208701876145a0565b50610135546040805160a081019091526001600160a01b0383811682526000921690635b778b9d906020808201906122b0908a018a6145a0565b6001600160a01b031681526020018860200160208101906122d1919061488b565b60020b81526020016122e960608a0160408b0161488b565b60020b815260200161230160808a0160608b01614d33565b6001600160801b03168152506040518263ffffffff1660e01b81526004016123299190615492565b60a060405180830381600087803b15801561234357600080fd5b505af1158015612357573d6000803e3d6000fd5b505050506040513d601f19601f8201168201806040525081019061237b9190614baf565b905060006123968361239060208901896145a0565b84613cc9565b905085608001358260000151101580156123b857508560a00135826020015110155b6123d45760405162461bcd60e51b815260040161048790615137565b610130546001600160a01b03166123ee60208801886145a0565b6001600160a01b039081169085167fcb47d8bf351d355bdd5497973533eada41777b4509f2585a62ae246336ebaa9461242d60408b0160208c0161488b565b61243d60608c0160408d0161488b565b875161244890613632565b6124558960200151613632565b6124798e606001602081019061246b9190614d33565b6001600160801b0316613e18565b8a6040015160405161249096959493929190614f16565b60405180910390a4610136546000906001600160a01b031663d50d01b7856124bb60208b018b6145a0565b6040518363ffffffff1660e01b81526004016124d8929190614da0565b60206040518083038186803b1580156124f057600080fd5b505afa158015612504573d6000803e3d6000fd5b505050506040513d601f19601f8201168201806040525081019061252891906148a7565b610134549091506000906001600160a01b03166399e4a77161254d60208b018b6145a0565b60006040518363ffffffff1660e01b815260040161256c929190614eb8565b60206040518083038186803b15801561258457600080fd5b505afa158015612598573d6000803e3d6000fd5b505050506040513d601f19601f820116820180604052508101906125bc91906145bc565b6001600160a01b031690506125d460208901896145a0565b6001600160a01b0316856001600160a01b031660008051602061565283398151915286606001518760800151600087898860405161261796959493929190614f52565b60405180910390a3505060408051606081018252835181526020808501519082015292810151908301525060018055949350505050565b60fd546001600160a01b031690565b610135546001600160a01b031633146126885760405162461bcd60e51b815260040161048790615257565b600061269682840184614aa3565b905084156127b957600081602001516001600160a01b0316630dfe16816040518163ffffffff1660e01b815260040160206040518083038186803b1580156126dd57600080fd5b505afa1580156126f1573d6000803e3d6000fd5b505050506040513d601f19601f8201168201806040525081019061271591906145bc565b602083015160405163a9059cbb60e01b81529192506001600160a01b0383169163a9059cbb91612749918a90600401614e9f565b602060405180830381600087803b15801561276357600080fd5b505af1158015612777573d6000803e3d6000fd5b505050506040513d601f19601f8201168201806040525081019061279b919061486f565b6127b75760405162461bcd60e51b815260040161048790615277565b505b83156128da57600081602001516001600160a01b031663d21220a76040518163ffffffff1660e01b815260040160206040518083038186803b1580156127fe57600080fd5b505afa158015612812573d6000803e3d6000fd5b505050506040513d601f19601f8201168201806040525081019061283691906145bc565b602083015160405163a9059cbb60e01b81529192506001600160a01b0383169163a9059cbb9161286a918990600401614e9f565b602060405180830381600087803b15801561288457600080fd5b505af1158015612898573d6000803e3d6000fd5b505050506040513d601f19601f820116820180604052508101906128bc919061486f565b6128d85760405162461bcd60e51b815260040161048790615277565b505b5050505050565b6128e9612c9d565b6001600160a01b03166128fa6114cb565b6001600160a01b03161461293e576040805162461bcd60e51b8152602060048201526006602482015265534f5f434e4f60d01b604482015290519081900360640190fd5b612950816001600160a01b031661308d565b61296c5760405162461bcd60e51b815260040161048790615179565b61297581613e2c565b6040516001600160a01b038216907f871264f4293af7d2865ae7eae628b228f4991c57cb45b39c99f0b774ebe2901890600090a250565b610136546040516357ba739b60e11b81526000916001600160a01b03169063af74e736906129de908590600401614d8c565b60006040518083038186803b1580156129f657600080fd5b505afa158015612a0a573d6000803e3d6000fd5b505050506040513d6000823e601f3d908101601f19168201604052612a329190810190614733565b805190915060005b81811015612a6857612a5f84848381518110612a5257fe5b6020026020010151612cac565b50600101612a3a565b50505050565b610134546001600160a01b031690565b610134546001600160a01b03163314612aa95760405162461bcd60e51b81526004016104879061500f565b600084138015612ab95750600083125b80612acf5750600084128015612acf5750600083135b612aeb5760405162461bcd60e51b815260040161048790615117565b6000612af982840184614c17565b6040810151909150600080808813612b8257826001600160a01b031663d21220a76040518163ffffffff1660e01b815260040160206040518083038186803b158015612b4457600080fd5b505afa158015612b58573d6000803e3d6000fd5b505050506040513d601f19601f82011682018060405250810190612b7c91906145bc565b87612bf5565b826001600160a01b0316630dfe16816040518163ffffffff1660e01b815260040160206040518083038186803b158015612bbb57600080fd5b505afa158015612bcf573d6000803e3d6000fd5b505050506040513d601f19601f82011682018060405250810190612bf391906145bc565b885b91509150816001600160a01b031663a9059cbb8560400151836040518363ffffffff1660e01b8152600401612c2b929190614e9f565b602060405180830381600087803b158015612c4557600080fd5b505af1158015612c59573d6000803e3d6000fd5b505050506040513d601f19601f82011682018060405250810190612c7d919061486f565b610c055760405162461bcd60e51b815260040161048790615277565b4290565b6000612ca7613e80565b905090565b612cb46144bc565b61013454604051631e81ac3360e01b81526000916001600160a01b031690631e81ac3390612ce89087908790600401614da0565b606060405180830381600087803b158015612d0257600080fd5b505af1158015612d16573d6000803e3d6000fd5b505050506040513d601f19601f82011682018060405250810190612d3a919061495f565b925090508015612dfb57610136546001600160a01b031663874044f385612d6084613eb0565b6040518363ffffffff1660e01b8152600401612d7d929190614e9f565b600060405180830381600087803b158015612d9757600080fd5b505af1158015612dab573d6000803e3d6000fd5b50505050826001600160a01b0316846001600160a01b03167f733330d4aad1a878654bf888817b79bc6478013399be29fa3b8845c81305249e83604051612df29190614f49565b60405180910390a35b610136548251604051632e4586c360e01b81526001600160a01b0390921691632e4586c391612e309188918891600401614e1c565b600060405180830381600087803b158015612e4a57600080fd5b505af1158015612e5e573d6000803e3d6000fd5b50505050505b92915050565b612e726144d6565b610136548251602084015160405163165c4e2960e31b81526000936001600160a01b03169263b2e2714892612ea992600401614da0565b60206040518083038186803b158015612ec157600080fd5b505afa158015612ed5573d6000803e3d6000fd5b505050506040513d601f19601f82011682018060405250810190612ef991906148a7565b905080612f185760405162461bcd60e51b8152600401610487906153a0565b6040805160e08101825284516001600160a01b03908116825260208087015190911690820152600083139181018290526060810182905260016080820152612f829060a08101612f6785613609565b815260200186604001516001600160a01b0316815250613646565b949350505050565b6000612f9f838362ffffff16620f4240613edc565b9392505050565b6080810151612fb457613079565b80511561301f57806020015115612ff257806080015181606001511015612fed5760405162461bcd60e51b815260040161048790615339565b61301a565b80608001518160400151111561301a5760405162461bcd60e51b815260040161048790615050565b613079565b8060200151156130515780608001518160400151101561301a5760405162461bcd60e51b8152600401610487906152d6565b8060800151816060015111156130795760405162461bcd60e51b8152600401610487906150b3565b50565b60006130873061308d565b15905090565b3b151590565b600054610100900460ff16806130ac57506130ac61307c565b806130ba575060005460ff16155b6130f55760405162461bcd60e51b815260040180806020018281038252602e8152602001806156ba602e913960400191505060405180910390fd5b600054610100900460ff16158015613120576000805460ff1961ff0019909116610100171660011790555b613128613f8b565b8015613079576000805461ff001916905550565b600054610100900460ff1680613155575061315561307c565b80613163575060005460ff16155b61319e5760405162461bcd60e51b815260040180806020018281038252602e8152602001806156ba602e913960400191505060405180910390fd5b600054610100900460ff161580156131c9576000805460ff1961ff0019909116610100171660011790555b6131d1614030565b61312861411f565b6131e1610ea3565b613229576040805162461bcd60e51b815260206004820152601460248201527314185d5cd8589b194e881b9bdd081c185d5cd95960621b604482015290519081900360640190fd5b6099805460ff191690557f5db9ee0a495bf2e6ff9c91a7834c1ba4fdd244a5e8aa4e537bd38aeae4b073aa61325c612c9d565b604080516001600160a01b039092168252519081900360200190a1565b6000612f9f8360ff601285900316600a0a613a51565b60006001600160ff1b038211156132d75760405162461bcd60e51b81526004018080602001828103825260288152602001806157506028913960400191505060405180910390fd5b5090565b60008183038183128015906132f05750838113155b80613305575060008312801561330557508381135b612f9f5760405162461bcd60e51b81526004018080602001828103825260248152602001806157786024913960400191505060405180910390fd5b60008282018183128015906133555750838112155b8061336a575060008312801561336a57508381125b612f9f5760405162461bcd60e51b81526004018080602001828103825260218152602001806156996021913960400191505060405180910390fd5b60006134378461013260009054906101000a90046001600160a01b03166001600160a01b031663a85494026040518163ffffffff1660e01b815260040160206040518083038186803b1580156133fa57600080fd5b505afa15801561340e573d6000803e3d6000fd5b505050506040513d601f19601f820116820180604052508101906134329190614d4f565b6141bc565b12806134ca57506101365460405163f75c266d60e01b81526001600160a01b039091169063f75c266d9061346f908690600401614d8c565b60206040518083038186803b15801561348757600080fd5b505afa15801561349b573d6000803e3d6000fd5b505050506040513d601f19601f820116820180604052508101906134bf91906148a7565b6134c884610cbc565b125b6134e65760405162461bcd60e51b81526004016104879061537f565b6134f08383612cac565b506101355460405163398dbcfd60e01b81526000916001600160a01b03169063398dbcfd9061352790879087908790600401614dba565b60a060405180830381600087803b15801561354157600080fd5b505af1158015613555573d6000803e3d6000fd5b505050506040513d601f19601f820116820180604052508101906135799190614baf565b90506128da848483613cc9565b61358e610ea3565b156135d3576040805162461bcd60e51b815260206004820152601060248201526f14185d5cd8589b194e881c185d5cd95960821b604482015290519081900360640190fd5b6099805460ff191660011790557f62e78cea01bee320cd4e420270b5ea74000d11b0c9f74754ebdbfc544b05a25861325c612c9d565b6000808212156136295761362461361f83613eb0565b614240565b612e64565b612e6482614240565b600061363d8261328f565b60000392915050565b61364e6144d6565b610134546040805160e08101825284516001600160a01b0390811682526020808701518216908301528583015115158284015260608087015115159083015260808087015115159083015260a0808701519083015260c08087015182169083015291516310c5328760e21b81526000939290921691634314ca1c916136d59160040161550a565b61014060405180830381600087803b1580156136f057600080fd5b505af1158015613704573d6000803e3d6000fd5b505050506040513d601f19601f820116820180604052508101906137289190614ca0565b610136546101375460a08301519293506001600160a01b039182169263874044f392909116906137579061328f565b6040518363ffffffff1660e01b8152600401613774929190614e9f565b600060405180830381600087803b15801561378e57600080fd5b505af11580156137a2573d6000803e3d6000fd5b5050505061013660009054906101000a90046001600160a01b03166001600160a01b0316633c9b5ad18460000151856020015184604001516137f56137ea876080015161328f565b6060880151906132db565b6040518563ffffffff1660e01b81526004016138149493929190614e40565b6040805180830381600087803b15801561382d57600080fd5b505af1158015613841573d6000803e3d6000fd5b505050506040513d601f19601f8201168201806040525081019061386591906148bf565b505060c0810151156138e357610136548351602085015160c08401516040516376323d0960e11b81526001600160a01b039094169363ec647a12936138b09390929091600401614e1c565b600060405180830381600087803b1580156138ca57600080fd5b505af11580156138de573d6000803e3d6000fd5b505050505b82608001516138f75782516138f790613c13565b610136548351602085015160405163d50d01b760e01b81526000936001600160a01b03169263d50d01b79261392e92600401614da0565b60206040518083038186803b15801561394657600080fd5b505afa15801561395a573d6000803e3d6000fd5b505050506040513d601f19601f8201168201806040525081019061397e91906148a7565b905083602001516001600160a01b031684600001516001600160a01b0316600080516020615652833981519152846040015185606001518660800151868860c001518960e001516040516139d796959493929190614f52565b60405180910390a3610136548451602086015160405163fa8e30af60e01b81526001600160a01b039093169263fa8e30af92613a17929091600401614da0565b600060405180830381600087803b158015613a3157600080fd5b505af1158015613a45573d6000803e3d6000fd5b50939695505050505050565b600082613a6057506000612e64565b82600019148015613a745750600160ff1b82145b15613ab05760405162461bcd60e51b81526004018080602001828103825260278152602001806157296027913960400191505060405180910390fd5b82820282848281613abd57fe5b0514612f9f5760405162461bcd60e51b81526004018080602001828103825260278152602001806157296027913960400191505060405180910390fd5b600081613b4e576040805162461bcd60e51b815260206004820181905260248201527f5369676e6564536166654d6174683a206469766973696f6e206279207a65726f604482015290519081900360640190fd5b81600019148015613b625750600160ff1b83145b15613b9e5760405162461bcd60e51b81526004018080602001828103825260218152602001806156e86021913960400191505060405180910390fd5b6000828481613ba957fe5b05949350505050565b604080516bffffffffffffffffffffffff19606096871b81166020808401919091529590961b9095166034860152600292830b60e890811b60488701529190920b901b604b8401528051602e818503018152604e9093019052815191012090565b6000613c688261013260009054906101000a90046001600160a01b03166001600160a01b031663543ce73a6040518163ffffffff1660e01b815260040160206040518083038186803b1580156133fa57600080fd5b12156130795760405162461bcd60e51b8152600401610487906150d4565b80600f81900b8114610cb75760405162461bcd60e51b81526004018080602001828103825260278152602001806156726027913960400191505060405180910390fd5b6000808260600151600014613d88576101345460408051608080820183526001600160a01b03898116835288811660208401526060808901518486015291880151918301919091529151631393a46960e01b81529190921691631393a46991613d359190600401615459565b60206040518083038186803b158015613d4d57600080fd5b505afa158015613d61573d6000803e3d6000fd5b505050506040513d601f19601f82011682018060405250810190613d8591906148a7565b90505b610136546060840151608085015160408601516001600160a01b03909316926389f9217792899289928790613dbc9061328f565b6040518763ffffffff1660e01b8152600401613ddd96959493929190614e69565b600060405180830381600087803b158015613df757600080fd5b505af1158015613e0b573d6000803e3d6000fd5b5092979650505050505050565b600061363d826001600160801b0316613c86565b60fd80546001600160a01b0383166001600160a01b0319909116811790915560408051918252517fa4388ecc389b1390354ae0c65a856c0d7dd4fb648419f5d3ac0b99e38f46fd119181900360200190a150565b600060143610801590613e975750613e9733610ca5565b15613eab575060131936013560601c6107cb565b503390565b6000600160ff1b8213613ed55760405162461bcd60e51b8152600401610487906151ff565b5060000390565b6000808060001985870986860292508281109083900303905080613f125760008411613f0757600080fd5b508290049050612f9f565b808411613f1e57600080fd5b6000848688096000868103871696879004966002600389028118808a02820302808a02820302808a02820302808a02820302808a02820302808a02909103029181900381900460010186841190950394909402919094039290920491909117919091029150509392505050565b600054610100900460ff1680613fa45750613fa461307c565b80613fb2575060005460ff16155b613fed5760405162461bcd60e51b815260040180806020018281038252602e8152602001806156ba602e913960400191505060405180910390fd5b600054610100900460ff16158015614018576000805460ff1961ff0019909116610100171660011790555b600180558015613079576000805461ff001916905550565b600054610100900460ff1680614049575061404961307c565b80614057575060005460ff16155b6140925760405162461bcd60e51b815260040180806020018281038252602e8152602001806156ba602e913960400191505060405180910390fd5b600054610100900460ff161580156140bd576000805460ff1961ff0019909116610100171660011790555b6140c5614297565b60006140cf612c9d565b606580546001600160a01b0319166001600160a01b03831690811790915560405191925090600090600080516020615709833981519152908290a3508015613079576000805461ff001916905550565b600054610100900460ff1680614138575061413861307c565b80614146575060005460ff16155b6141815760405162461bcd60e51b815260040180806020018281038252602e8152602001806156ba602e913960400191505060405180910390fd5b600054610100900460ff161580156141ac576000805460ff1961ff0019909116610100171660011790555b6141b4614328565b6131286143c8565b61013354604051633ffd130360e01b81526000916001600160a01b031690633ffd1303906141f09086908690600401614ed7565b60206040518083038186803b15801561420857600080fd5b505afa15801561421c573d6000803e3d6000fd5b505050506040513d601f19601f82011682018060405250810190612f9f91906148a7565b6000808212156132d7576040805162461bcd60e51b815260206004820181905260248201527f53616665436173743a2076616c7565206d75737420626520706f736974697665604482015290519081900360640190fd5b600054610100900460ff16806142b057506142b061307c565b806142be575060005460ff16155b6142f95760405162461bcd60e51b815260040180806020018281038252602e8152602001806156ba602e913960400191505060405180910390fd5b600054610100900460ff16158015614324576000805460ff1961ff0019909116610100171660011790555b6131285b600054610100900460ff1680614341575061434161307c565b8061434f575060005460ff16155b61438a5760405162461bcd60e51b815260040180806020018281038252602e8152602001806156ba602e913960400191505060405180910390fd5b600054610100900460ff16158015613128576000805460ff1961ff0019909116610100171660011790558015613079576000805461ff001916905550565b600054610100900460ff16806143e157506143e161307c565b806143ef575060005460ff16155b61442a5760405162461bcd60e51b815260040180806020018281038252602e8152602001806156ba602e913960400191505060405180910390fd5b600054610100900460ff16158015614455576000805460ff1961ff0019909116610100171660011790555b6099805460ff191690558015613079576000805461ff001916905550565b6040518060800160405280600081526020016000815260200160008152602001600081525090565b60405180606001604052806000815260200160008152602001600081525090565b604051806040016040528060008152602001600081525090565b6040518061014001604052806000815260200160008152602001600081526020016000815260200160008152602001600081526020016000815260200160008152602001600060020b81526020016000151581525090565b8035610cb7816155d9565b8035610cb7816155ee565b8051610cb7816155ee565b60008083601f840112614560578182fd5b5081356001600160401b03811115614576578182fd5b60208301915083602082850101111561458e57600080fd5b9250929050565b8051610cb7816155fc565b6000602082840312156145b1578081fd5b8135612f9f816155d9565b6000602082840312156145cd578081fd5b8151612f9f816155d9565b600080604083850312156145ea578081fd5b82356145f5816155d9565b91506020830135614605816155d9565b809150509250929050565b600080600080600080600060e0888a03121561462a578283fd5b8735614635816155d9565b96506020880135614645816155d9565b95506040880135614655816155d9565b94506060880135614665816155d9565b93506080880135614675816155d9565b925060a0880135614685816155d9565b915060c0880135614695816155d9565b8091505092959891949750929550565b600080600080606085870312156146ba578182fd5b84356146c5816155d9565b935060208501356146d5816155d9565b925060408501356001600160401b03808211156146f0578384fd5b818701915087601f830112614703578384fd5b813581811115614711578485fd5b8860208083028501011115614724578485fd5b95989497505060200194505050565b60006020808385031215614745578182fd5b82516001600160401b0381111561475a578283fd5b8301601f8101851361476a578283fd5b805161477d614778826155bc565b615599565b8181528381019083850185840285018601891015614799578687fd5b8694505b838510156147c45780516147b0816155d9565b83526001949094019391850191850161479d565b50979650505050505050565b600060208083850312156147e2578182fd5b82516001600160401b038111156147f7578283fd5b8301601f81018513614807578283fd5b8051614815614778826155bc565b8181528381019083850185840285018601891015614831578687fd5b8694505b838510156147c4578051835260019490940193918501918501614835565b600060208284031215614864578081fd5b8135612f9f816155ee565b600060208284031215614880578081fd5b8151612f9f816155ee565b60006020828403121561489c578081fd5b8135612f9f816155fc565b6000602082840312156148b8578081fd5b5051919050565b600080604083850312156148d1578182fd5b505080516020909101519092909150565b600080600080606085870312156148f7578182fd5b843593506020850135925060408501356001600160401b0381111561491a578283fd5b6149268782880161454f565b95989497509550505050565b600080600060608486031215614946578081fd5b8351925060208401519150604084015190509250925092565b6000808284036060811215614972578283fd5b835192506040601f1982011215614987578182fd5b50604051604081018181106001600160401b03821117156149a457fe5b60409081526020858101518352940151938101939093525092909150565b600061012082840312156149d4578081fd5b50919050565b6000608082840312156149eb578081fd5b604051608081018181106001600160401b0382111715614a0757fe5b80604052508251815260208301516020820152604083015160408201526060830151614a328161560b565b60608201529392505050565b600060a082840312156149d4578081fd5b600060608284031215614a60578081fd5b604051606081018181106001600160401b0382111715614a7c57fe5b80604052508251815260208301516020820152604083015160408201528091505092915050565b600060408284031215614ab4578081fd5b604051604081018181106001600160401b0382111715614ad057fe5b6040528235614ade816155d9565b81526020830135614aee816155d9565b60208201529392505050565b6000610100808385031215614b0d578182fd5b604051908101906001600160401b0382118183101715614b2957fe5b81604052614b368461452e565b8152614b4460208501614539565b6020820152614b5560408501614539565b6040820152606084013560608201526080840135608082015260a084013560a0820152614b8460c0850161452e565b60c082015260e084013560e0820152809250505092915050565b600060e082840312156149d4578081fd5b600060a08284031215614bc0578081fd5b60405160a081018181106001600160401b0382111715614bdc57fe5b806040525082518152602083015160208201526040830151604082015260608301516060820152608083015160808201528091505092915050565b600060a08284031215614c28578081fd5b60405160a081018181106001600160401b0382111715614c4457fe5b6040528235614c52816155d9565b81526020830135614c62816155d9565b60208201526040830135614c75816155d9565b60408201526060830135614c8881615620565b60608201526080928301359281019290925250919050565b6000610140808385031215614cb3578182fd5b614cbc81615599565b9050825181526020830151602082015260408301516040820152606083015160608201526080830151608082015260a083015160a082015260c083015160c082015260e083015160e0820152610100614d16818501614595565b90820152610120614d28848201614544565b908201529392505050565b600060208284031215614d44578081fd5b8135612f9f8161560b565b600060208284031215614d60578081fd5b8151612f9f81615620565b600060208284031215614d7c578081fd5b815160ff81168114612f9f578182fd5b6001600160a01b0391909116815260200190565b6001600160a01b0392831681529116602082015260400190565b6001600160a01b0384811682528316602080830191909152606060408301819052835190830181905260009184810191608085019190845b81811015614e0e57845184529382019392820192600101614df2565b509198975050505050505050565b6001600160a01b039384168152919092166020820152604081019190915260600190565b6001600160a01b0394851681529290931660208301526040820152606081019190915260800190565b6001600160a01b03968716815294909516602085015260408401929092526060830152608082015260a081019190915260c00190565b6001600160a01b03929092168252602082015260400190565b6001600160a01b0392909216825263ffffffff16602082015260400190565b6001600160a01b0392909216825262ffffff16602082015260400190565b901515815260200190565b9283526020830191909152604082015260600190565b600296870b81529490950b602085015260408401929092526060830152600f0b608082015260a081019190915260c00190565b90815260200190565b958652602086019490945260408501929092526060840152608083015260a082015260c00190565b6000602080835283518082850152825b81811015614fa657858101830151858201604001528201614f8a565b81811115614fb75783604083870101525b50601f01601f1916929092016040019392505050565b60208082526008908201526708690bea2889c62760c31b604082015260600190565b60208082526006908201526521a42fa2a0ab60d11b604082015260600190565b60208082526005908201526443485f4f4560d81b604082015260600190565b60208082526008908201526743485f4946414e4360c01b604082015260600190565b60208082526007908201526643485f544d525360c81b604082015260600190565b60208082526007908201526643485f41424e4360c81b604082015260600190565b60208082526007908201526643485f55414e4360c81b604082015260600190565b60208082526007908201526610d217d513549360ca1b604082015260600190565b60208082526008908201526743485f4e4546434960c01b604082015260600190565b60208082526007908201526643485f51414e4360c81b604082015260600190565b60208082526006908201526543485f46305360d01b604082015260600190565b60208082526007908201526621a42fa829a1a360c91b604082015260600190565b60208082526007908201526621a42fa22aaa2160c91b604082015260600190565b60208082526007908201526643485f54464e4360c81b604082015260600190565b60208082526006908201526543485f454e4360d01b604082015260600190565b60208082526007908201526643485f43434e4360c81b604082015260600190565b6020808252600a908201526943485f434c575449534f60b01b604082015260600190565b6020808252601c908201527f506572704d6174683a20696e76657273696f6e206f766572666c6f7700000000604082015260600190565b60208082526007908201526643485f4f424e4360c81b604082015260600190565b60208082526006908201526521a42fa727a160d11b604082015260600190565b60208082526005908201526421a42faa2360d91b604082015260600190565b60208082526005908201526443485f544560d81b604082015260600190565b60208082526007908201526643485f56414e4360c81b604082015260600190565b60208082526007908201526610d217d513149360ca1b604082015260600190565b60208082526007908201526643485f54424e4560c81b604082015260600190565b60208082526007908201526643485f54514e4560c81b604082015260600190565b60208082526007908201526643485f544c525360c81b604082015260600190565b6020808252600b908201526a043485f43414c57524654560ac1b604082015260600190565b60208082526007908201526643485f4e45584f60c81b604082015260600190565b60208082526006908201526521a42fa829ad60d11b604082015260600190565b60006101008201905060018060a01b03808451168352806020850151166020840152506040830151604083015260608301516060830152608083015160020b608083015260a083015160020b60a083015260c0830151805160c0840152602081015160e08401525092915050565b8151815260208083015190820152604080830151908201526060918201519181019190915260800190565b81516001600160a01b03908116825260208084015190911690820152604080830151908201526060918201519181019190915260800190565b81516001600160a01b03908116825260208084015190911690820152604080830151600290810b9183019190915260608084015190910b908201526080918201516001600160801b03169181019190915260a00190565b81518152602080830151908201526040918201519181019190915260600190565b81516001600160a01b03908116825260208084015182169083015260408084015115159083015260608084015115159083015260808084015115159083015260a0838101519083015260c092830151169181019190915260e00190565b918252602082015260400190565b938452602084019290925260408301526001600160a01b0316606082015260800190565b6040518181016001600160401b03811182821017156155b457fe5b604052919050565b60006001600160401b038211156155cf57fe5b5060209081020190565b6001600160a01b038116811461307957600080fd5b801515811461307957600080fd5b8060020b811461307957600080fd5b6001600160801b038116811461307957600080fd5b62ffffff8116811461307957600080fdfe5265656e7472616e637947756172643a207265656e7472616e742063616c6c00968bc4f738eae0486dc6736c4b427dbafa4acfdf6eaf223337791ddeb3a5624753616665436173743a2076616c756520646f65736e27742066697420696e2031323820626974735369676e6564536166654d6174683a206164646974696f6e206f766572666c6f77496e697469616c697a61626c653a20636f6e747261637420697320616c726561647920696e697469616c697a65645369676e6564536166654d6174683a206469766973696f6e206f766572666c6f778be0079c531659141344cd1fd0a4f28419497f9722a3daafe3b4186f6b6457e05369676e6564536166654d6174683a206d756c7469706c69636174696f6e206f766572666c6f7753616665436173743a2076616c756520646f65736e27742066697420696e20616e20696e743235365369676e6564536166654d6174683a207375627472616374696f6e206f766572666c6f77a26469706673582212201bc4273159b99a1bf5037211d215ea692edab3d731ae879676b887a89ef07c0164736f6c63430007060033",
    "devdoc": {
        "kind": "dev",
        "methods": {
            "candidate()": {
                "details": "Returns the candidate that can become the owner."
            },
            "getAccountValue(address)": {
                "details": "accountValue = totalCollateralValue + totalUnrealizedPnl, in 18 decimals"
            },
            "initialize(address,address,address,address,address,address,address)": {
                "details": "this function is public for testing"
            },
            "owner()": {
                "details": "Returns the address of the current owner."
            },
            "paused()": {
                "details": "Returns true if the contract is paused, and false otherwise."
            },
            "renounceOwnership()": {
                "details": "Leaves the contract without owner. It will not be possible to call `onlyOwner` functions anymore. Can only be called by the current owner. NOTE: Renouncing ownership will leave the contract without an owner, thereby removing any functionality that is only available to the owner."
            },
            "setOwner(address)": {
                "details": "Set ownership of the contract to a new account (`newOwner`). Can only be called by the current owner."
            },
            "uniswapV3MintCallback(uint256,uint256,bytes)": {
                "details": "namings here follow Uniswap's convention",
                "params": {
                    "amount0Owed": "The amount of token0 due to the pool for the minted liquidity",
                    "amount1Owed": "The amount of token1 due to the pool for the minted liquidity",
                    "data": "Any data passed through by the caller via the IUniswapV3PoolActions#mint call"
                }
            },
            "uniswapV3SwapCallback(int256,int256,bytes)": {
                "details": "namings here follow Uniswap's convention",
                "params": {
                    "amount0Delta": "The amount of token0 that was sent (negative) or must be received (positive) by the pool by the end of the swap. If positive, the callback must send that amount of token0 to the pool.",
                    "amount1Delta": "The amount of token1 that was sent (negative) or must be received (positive) by the pool by the end of the swap. If positive, the callback must send that amount of token1 to the pool.",
                    "data": "Any data passed through by the caller via the IUniswapV3PoolActions#swap call"
                }
            },
            "updateOwner()": {
                "details": "Transfers ownership of the contract to a new account (`_candidate`). Can only be called by the new owner."
            }
        },
        "version": 1
    },
    "userdoc": {
        "kind": "user",
        "methods": {
            "isTrustedForwarder(address)": {
                "notice": "return if the forwarder is trusted to forward relayed transactions to us. the forwarder is required to verify the sender's signature, and verify the call is not a replay."
            },
            "uniswapV3MintCallback(uint256,uint256,bytes)": {
                "notice": "Called to `msg.sender` after minting liquidity to a position from IUniswapV3Pool#mint."
            },
            "uniswapV3SwapCallback(int256,int256,bytes)": {
                "notice": "Called to `msg.sender` after executing a swap via IUniswapV3Pool#swap."
            }
        },
        "version": 1
    },
    "storageLayout": {
        "storage": [
            {
                "astId": 1039,
                "contract": "contracts/ClearingHouse.sol:ClearingHouse",
                "label": "_initialized",
                "offset": 0,
                "slot": "0",
                "type": "t_bool"
            },
            {
                "astId": 1042,
                "contract": "contracts/ClearingHouse.sol:ClearingHouse",
                "label": "_initializing",
                "offset": 1,
                "slot": "0",
                "type": "t_bool"
            },
            {
                "astId": 2976,
                "contract": "contracts/ClearingHouse.sol:ClearingHouse",
                "label": "_status",
                "offset": 0,
                "slot": "1",
                "type": "t_uint256"
            },
            {
                "astId": 3019,
                "contract": "contracts/ClearingHouse.sol:ClearingHouse",
                "label": "__gap",
                "offset": 0,
                "slot": "2",
                "type": "t_array(t_uint256)49_storage"
            },
            {
                "astId": 2356,
                "contract": "contracts/ClearingHouse.sol:ClearingHouse",
                "label": "__gap",
                "offset": 0,
                "slot": "51",
                "type": "t_array(t_uint256)50_storage"
            },
            {
                "astId": 20497,
                "contract": "contracts/ClearingHouse.sol:ClearingHouse",
                "label": "_owner",
                "offset": 0,
                "slot": "101",
                "type": "t_address"
            },
            {
                "astId": 20499,
                "contract": "contracts/ClearingHouse.sol:ClearingHouse",
                "label": "_candidate",
                "offset": 0,
                "slot": "102",
                "type": "t_address"
            },
            {
                "astId": 20503,
                "contract": "contracts/ClearingHouse.sol:ClearingHouse",
                "label": "__gap",
                "offset": 0,
                "slot": "103",
                "type": "t_array(t_uint256)50_storage"
            },
            {
                "astId": 2870,
                "contract": "contracts/ClearingHouse.sol:ClearingHouse",
                "label": "_paused",
                "offset": 0,
                "slot": "153",
                "type": "t_bool"
            },
            {
                "astId": 2961,
                "contract": "contracts/ClearingHouse.sol:ClearingHouse",
                "label": "__gap",
                "offset": 0,
                "slot": "154",
                "type": "t_array(t_uint256)49_storage"
            },
            {
                "astId": 20436,
                "contract": "contracts/ClearingHouse.sol:ClearingHouse",
                "label": "__gap",
                "offset": 0,
                "slot": "203",
                "type": "t_array(t_uint256)50_storage"
            },
            {
                "astId": 20752,
                "contract": "contracts/ClearingHouse.sol:ClearingHouse",
                "label": "_trustedForwarder",
                "offset": 0,
                "slot": "253",
                "type": "t_address"
            },
            {
                "astId": 20756,
                "contract": "contracts/ClearingHouse.sol:ClearingHouse",
                "label": "__gap",
                "offset": 0,
                "slot": "254",
                "type": "t_array(t_uint256)50_storage"
            },
            {
                "astId": 24686,
                "contract": "contracts/ClearingHouse.sol:ClearingHouse",
                "label": "_quoteToken",
                "offset": 0,
                "slot": "304",
                "type": "t_address"
            },
            {
                "astId": 24688,
                "contract": "contracts/ClearingHouse.sol:ClearingHouse",
                "label": "_uniswapV3Factory",
                "offset": 0,
                "slot": "305",
                "type": "t_address"
            },
            {
                "astId": 24690,
                "contract": "contracts/ClearingHouse.sol:ClearingHouse",
                "label": "_settlementTokenDecimals",
                "offset": 20,
                "slot": "305",
                "type": "t_uint8"
            },
            {
                "astId": 24692,
                "contract": "contracts/ClearingHouse.sol:ClearingHouse",
                "label": "_clearingHouseConfig",
                "offset": 0,
                "slot": "306",
                "type": "t_address"
            },
            {
                "astId": 24694,
                "contract": "contracts/ClearingHouse.sol:ClearingHouse",
                "label": "_vault",
                "offset": 0,
                "slot": "307",
                "type": "t_address"
            },
            {
                "astId": 24696,
                "contract": "contracts/ClearingHouse.sol:ClearingHouse",
                "label": "_exchange",
                "offset": 0,
                "slot": "308",
                "type": "t_address"
            },
            {
                "astId": 24698,
                "contract": "contracts/ClearingHouse.sol:ClearingHouse",
                "label": "_orderBook",
                "offset": 0,
                "slot": "309",
                "type": "t_address"
            },
            {
                "astId": 24700,
                "contract": "contracts/ClearingHouse.sol:ClearingHouse",
                "label": "_accountBalance",
                "offset": 0,
                "slot": "310",
                "type": "t_address"
            },
            {
                "astId": 24702,
                "contract": "contracts/ClearingHouse.sol:ClearingHouse",
                "label": "_insuranceFund",
                "offset": 0,
                "slot": "311",
                "type": "t_address"
            }
        ],
        "types": {
            "t_address": {
                "encoding": "inplace",
                "label": "address",
                "numberOfBytes": "20"
            },
            "t_array(t_uint256)49_storage": {
                "base": "t_uint256",
                "encoding": "inplace",
                "label": "uint256[49]",
                "numberOfBytes": "1568"
            },
            "t_array(t_uint256)50_storage": {
                "base": "t_uint256",
                "encoding": "inplace",
                "label": "uint256[50]",
                "numberOfBytes": "1600"
            },
            "t_bool": {
                "encoding": "inplace",
                "label": "bool",
                "numberOfBytes": "1"
            },
            "t_uint256": {
                "encoding": "inplace",
                "label": "uint256",
                "numberOfBytes": "32"
            },
            "t_uint8": {
                "encoding": "inplace",
                "label": "uint8",
                "numberOfBytes": "1"
            }
        }
    }
}