{
    "address": "0xb35EE7751690e9DE9C6461D6db5680B08d25bA23",
    "abi": [
        {
            "anonymous": false,
            "inputs": [
                {
                    "indexed": true,
                    "internalType": "address",
                    "name": "clearingHouse",
                    "type": "address"
                }
            ],
            "name": "ClearingHouseChanged",
            "type": "event"
        },
        {
            "anonymous": false,
            "inputs": [
                {
                    "indexed": true,
                    "internalType": "address",
                    "name": "exchange",
                    "type": "address"
                }
            ],
            "name": "ExchangeChanged",
            "type": "event"
        },
        {
            "anonymous": false,
            "inputs": [
                {
                    "indexed": true,
                    "internalType": "address",
                    "name": "previousOwner",
                    "type": "address"
                },
                {
                    "indexed": true,
                    "internalType": "address",
                    "name": "newOwner",
                    "type": "address"
                }
            ],
            "name": "OwnershipTransferred",
            "type": "event"
        },
        {
            "inputs": [
                {
                    "components": [
                        {
                            "internalType": "address",
                            "name": "trader",
                            "type": "address"
                        },
                        {
                            "internalType": "address",
                            "name": "baseToken",
                            "type": "address"
                        },
                        {
                            "internalType": "uint256",
                            "name": "base",
                            "type": "uint256"
                        },
                        {
                            "internalType": "uint256",
                            "name": "quote",
                            "type": "uint256"
                        },
                        {
                            "internalType": "int24",
                            "name": "lowerTick",
                            "type": "int24"
                        },
                        {
                            "internalType": "int24",
                            "name": "upperTick",
                            "type": "int24"
                        },
                        {
                            "components": [
                                {
                                    "internalType": "int256",
                                    "name": "twPremiumX96",
                                    "type": "int256"
                                },
                                {
                                    "internalType": "int256",
                                    "name": "twPremiumDivBySqrtPriceX96",
                                    "type": "int256"
                                }
                            ],
                            "internalType": "struct Funding.Growth",
                            "name": "fundingGrowthGlobal",
                            "type": "tuple"
                        }
                    ],
                    "internalType": "struct IOrderBook.AddLiquidityParams",
                    "name": "params",
                    "type": "tuple"
                }
            ],
            "name": "addLiquidity",
            "outputs": [
                {
                    "components": [
                        {
                            "internalType": "uint256",
                            "name": "base",
                            "type": "uint256"
                        },
                        {
                            "internalType": "uint256",
                            "name": "quote",
                            "type": "uint256"
                        },
                        {
                            "internalType": "uint256",
                            "name": "fee",
                            "type": "uint256"
                        },
                        {
                            "internalType": "uint128",
                            "name": "liquidity",
                            "type": "uint128"
                        }
                    ],
                    "internalType": "struct IOrderBook.AddLiquidityResponse",
                    "name": "",
                    "type": "tuple"
                }
            ],
            "stateMutability": "nonpayable",
            "type": "function"
        },
        {
            "inputs": [],
            "name": "candidate",
            "outputs": [
                {
                    "internalType": "address",
                    "name": "",
                    "type": "address"
                }
            ],
            "stateMutability": "view",
            "type": "function"
        },
        {
            "inputs": [],
            "name": "getClearingHouse",
            "outputs": [
                {
                    "internalType": "address",
                    "name": "",
                    "type": "address"
                }
            ],
            "stateMutability": "view",
            "type": "function"
        },
        {
            "inputs": [],
            "name": "getExchange",
            "outputs": [
                {
                    "internalType": "address",
                    "name": "",
                    "type": "address"
                }
            ],
            "stateMutability": "view",
            "type": "function"
        },
        {
            "inputs": [
                {
                    "internalType": "address",
                    "name": "trader",
                    "type": "address"
                },
                {
                    "internalType": "address",
                    "name": "baseToken",
                    "type": "address"
                },
                {
                    "components": [
                        {
                            "internalType": "int256",
                            "name": "twPremiumX96",
                            "type": "int256"
                        },
                        {
                            "internalType": "int256",
                            "name": "twPremiumDivBySqrtPriceX96",
                            "type": "int256"
                        }
                    ],
                    "internalType": "struct Funding.Growth",
                    "name": "fundingGrowthGlobal",
                    "type": "tuple"
                }
            ],
            "name": "getLiquidityCoefficientInFundingPayment",
            "outputs": [
                {
                    "internalType": "int256",
                    "name": "liquidityCoefficientInFundingPayment",
                    "type": "int256"
                }
            ],
            "stateMutability": "view",
            "type": "function"
        },
        {
            "inputs": [],
            "name": "getMarketRegistry",
            "outputs": [
                {
                    "internalType": "address",
                    "name": "",
                    "type": "address"
                }
            ],
            "stateMutability": "view",
            "type": "function"
        },
        {
            "inputs": [
                {
                    "internalType": "address",
                    "name": "trader",
                    "type": "address"
                },
                {
                    "internalType": "address",
                    "name": "baseToken",
                    "type": "address"
                },
                {
                    "internalType": "int24",
                    "name": "lowerTick",
                    "type": "int24"
                },
                {
                    "internalType": "int24",
                    "name": "upperTick",
                    "type": "int24"
                }
            ],
            "name": "getOpenOrder",
            "outputs": [
                {
                    "components": [
                        {
                            "internalType": "uint128",
                            "name": "liquidity",
                            "type": "uint128"
                        },
                        {
                            "internalType": "int24",
                            "name": "lowerTick",
                            "type": "int24"
                        },
                        {
                            "internalType": "int24",
                            "name": "upperTick",
                            "type": "int24"
                        },
                        {
                            "internalType": "uint256",
                            "name": "lastFeeGrowthInsideX128",
                            "type": "uint256"
                        },
                        {
                            "internalType": "int256",
                            "name": "lastTwPremiumGrowthInsideX96",
                            "type": "int256"
                        },
                        {
                            "internalType": "int256",
                            "name": "lastTwPremiumGrowthBelowX96",
                            "type": "int256"
                        },
                        {
                            "internalType": "int256",
                            "name": "lastTwPremiumDivBySqrtPriceGrowthInsideX96",
                            "type": "int256"
                        },
                        {
                            "internalType": "uint256",
                            "name": "baseDebt",
                            "type": "uint256"
                        },
                        {
                            "internalType": "uint256",
                            "name": "quoteDebt",
                            "type": "uint256"
                        }
                    ],
                    "internalType": "struct OpenOrder.Info",
                    "name": "",
                    "type": "tuple"
                }
            ],
            "stateMutability": "view",
            "type": "function"
        },
        {
            "inputs": [
                {
                    "internalType": "bytes32",
                    "name": "orderId",
                    "type": "bytes32"
                }
            ],
            "name": "getOpenOrderById",
            "outputs": [
                {
                    "components": [
                        {
                            "internalType": "uint128",
                            "name": "liquidity",
                            "type": "uint128"
                        },
                        {
                            "internalType": "int24",
                            "name": "lowerTick",
                            "type": "int24"
                        },
                        {
                            "internalType": "int24",
                            "name": "upperTick",
                            "type": "int24"
                        },
                        {
                            "internalType": "uint256",
                            "name": "lastFeeGrowthInsideX128",
                            "type": "uint256"
                        },
                        {
                            "internalType": "int256",
                            "name": "lastTwPremiumGrowthInsideX96",
                            "type": "int256"
                        },
                        {
                            "internalType": "int256",
                            "name": "lastTwPremiumGrowthBelowX96",
                            "type": "int256"
                        },
                        {
                            "internalType": "int256",
                            "name": "lastTwPremiumDivBySqrtPriceGrowthInsideX96",
                            "type": "int256"
                        },
                        {
                            "internalType": "uint256",
                            "name": "baseDebt",
                            "type": "uint256"
                        },
                        {
                            "internalType": "uint256",
                            "name": "quoteDebt",
                            "type": "uint256"
                        }
                    ],
                    "internalType": "struct OpenOrder.Info",
                    "name": "",
                    "type": "tuple"
                }
            ],
            "stateMutability": "view",
            "type": "function"
        },
        {
            "inputs": [
                {
                    "internalType": "address",
                    "name": "trader",
                    "type": "address"
                },
                {
                    "internalType": "address",
                    "name": "baseToken",
                    "type": "address"
                }
            ],
            "name": "getOpenOrderIds",
            "outputs": [
                {
                    "internalType": "bytes32[]",
                    "name": "",
                    "type": "bytes32[]"
                }
            ],
            "stateMutability": "view",
            "type": "function"
        },
        {
            "inputs": [
                {
                    "internalType": "address",
                    "name": "trader",
                    "type": "address"
                },
                {
                    "internalType": "address",
                    "name": "baseToken",
                    "type": "address"
                },
                {
                    "internalType": "int24",
                    "name": "lowerTick",
                    "type": "int24"
                },
                {
                    "internalType": "int24",
                    "name": "upperTick",
                    "type": "int24"
                }
            ],
            "name": "getPendingFee",
            "outputs": [
                {
                    "internalType": "uint256",
                    "name": "",
                    "type": "uint256"
                }
            ],
            "stateMutability": "view",
            "type": "function"
        },
        {
            "inputs": [
                {
                    "internalType": "address",
                    "name": "trader",
                    "type": "address"
                },
                {
                    "internalType": "address",
                    "name": "baseToken",
                    "type": "address"
                },
                {
                    "internalType": "bool",
                    "name": "fetchBase",
                    "type": "bool"
                }
            ],
            "name": "getTotalOrderDebt",
            "outputs": [
                {
                    "internalType": "uint256",
                    "name": "",
                    "type": "uint256"
                }
            ],
            "stateMutability": "view",
            "type": "function"
        },
        {
            "inputs": [
                {
                    "internalType": "address",
                    "name": "trader",
                    "type": "address"
                },
                {
                    "internalType": "address[]",
                    "name": "baseTokens",
                    "type": "address[]"
                }
            ],
            "name": "getTotalQuoteBalanceAndPendingFee",
            "outputs": [
                {
                    "internalType": "int256",
                    "name": "totalQuoteAmountInPools",
                    "type": "int256"
                },
                {
                    "internalType": "uint256",
                    "name": "totalPendingFee",
                    "type": "uint256"
                }
            ],
            "stateMutability": "view",
            "type": "function"
        },
        {
            "inputs": [
                {
                    "internalType": "address",
                    "name": "trader",
                    "type": "address"
                },
                {
                    "internalType": "address",
                    "name": "baseToken",
                    "type": "address"
                },
                {
                    "internalType": "bool",
                    "name": "fetchBase",
                    "type": "bool"
                }
            ],
            "name": "getTotalTokenAmountInPoolAndPendingFee",
            "outputs": [
                {
                    "internalType": "uint256",
                    "name": "tokenAmount",
                    "type": "uint256"
                },
                {
                    "internalType": "uint256",
                    "name": "pendingFee",
                    "type": "uint256"
                }
            ],
            "stateMutability": "view",
            "type": "function"
        },
        {
            "inputs": [
                {
                    "internalType": "address",
                    "name": "trader",
                    "type": "address"
                },
                {
                    "internalType": "address[]",
                    "name": "tokens",
                    "type": "address[]"
                }
            ],
            "name": "hasOrder",
            "outputs": [
                {
                    "internalType": "bool",
                    "name": "",
                    "type": "bool"
                }
            ],
            "stateMutability": "view",
            "type": "function"
        },
        {
            "inputs": [
                {
                    "internalType": "address",
                    "name": "marketRegistryArg",
                    "type": "address"
                }
            ],
            "name": "initialize",
            "outputs": [],
            "stateMutability": "nonpayable",
            "type": "function"
        },
        {
            "inputs": [],
            "name": "owner",
            "outputs": [
                {
                    "internalType": "address",
                    "name": "",
                    "type": "address"
                }
            ],
            "stateMutability": "view",
            "type": "function"
        },
        {
            "inputs": [
                {
                    "components": [
                        {
                            "internalType": "address",
                            "name": "maker",
                            "type": "address"
                        },
                        {
                            "internalType": "address",
                            "name": "baseToken",
                            "type": "address"
                        },
                        {
                            "internalType": "int24",
                            "name": "lowerTick",
                            "type": "int24"
                        },
                        {
                            "internalType": "int24",
                            "name": "upperTick",
                            "type": "int24"
                        },
                        {
                            "internalType": "uint128",
                            "name": "liquidity",
                            "type": "uint128"
                        }
                    ],
                    "internalType": "struct IOrderBook.RemoveLiquidityParams",
                    "name": "params",
                    "type": "tuple"
                }
            ],
            "name": "removeLiquidity",
            "outputs": [
                {
                    "components": [
                        {
                            "internalType": "uint256",
                            "name": "base",
                            "type": "uint256"
                        },
                        {
                            "internalType": "uint256",
                            "name": "quote",
                            "type": "uint256"
                        },
                        {
                            "internalType": "uint256",
                            "name": "fee",
                            "type": "uint256"
                        },
                        {
                            "internalType": "int256",
                            "name": "takerBase",
                            "type": "int256"
                        },
                        {
                            "internalType": "int256",
                            "name": "takerQuote",
                            "type": "int256"
                        }
                    ],
                    "internalType": "struct IOrderBook.RemoveLiquidityResponse",
                    "name": "",
                    "type": "tuple"
                }
            ],
            "stateMutability": "nonpayable",
            "type": "function"
        },
        {
            "inputs": [
                {
                    "internalType": "address",
                    "name": "maker",
                    "type": "address"
                },
                {
                    "internalType": "address",
                    "name": "baseToken",
                    "type": "address"
                },
                {
                    "internalType": "bytes32[]",
                    "name": "orderIds",
                    "type": "bytes32[]"
                }
            ],
            "name": "removeLiquidityByIds",
            "outputs": [
                {
                    "components": [
                        {
                            "internalType": "uint256",
                            "name": "base",
                            "type": "uint256"
                        },
                        {
                            "internalType": "uint256",
                            "name": "quote",
                            "type": "uint256"
                        },
                        {
                            "internalType": "uint256",
                            "name": "fee",
                            "type": "uint256"
                        },
                        {
                            "internalType": "int256",
                            "name": "takerBase",
                            "type": "int256"
                        },
                        {
                            "internalType": "int256",
                            "name": "takerQuote",
                            "type": "int256"
                        }
                    ],
                    "internalType": "struct IOrderBook.RemoveLiquidityResponse",
                    "name": "",
                    "type": "tuple"
                }
            ],
            "stateMutability": "nonpayable",
            "type": "function"
        },
        {
            "inputs": [],
            "name": "renounceOwnership",
            "outputs": [],
            "stateMutability": "nonpayable",
            "type": "function"
        },
        {
            "inputs": [
                {
                    "components": [
                        {
                            "internalType": "address",
                            "name": "baseToken",
                            "type": "address"
                        },
                        {
                            "internalType": "bool",
                            "name": "isBaseToQuote",
                            "type": "bool"
                        },
                        {
                            "internalType": "bool",
                            "name": "shouldUpdateState",
                            "type": "bool"
                        },
                        {
                            "internalType": "int256",
                            "name": "amount",
                            "type": "int256"
                        },
                        {
                            "internalType": "uint160",
                            "name": "sqrtPriceLimitX96",
                            "type": "uint160"
                        },
                        {
                            "internalType": "uint24",
                            "name": "exchangeFeeRatio",
                            "type": "uint24"
                        },
                        {
                            "internalType": "uint24",
                            "name": "uniswapFeeRatio",
                            "type": "uint24"
                        },
                        {
                            "components": [
                                {
                                    "internalType": "int256",
                                    "name": "twPremiumX96",
                                    "type": "int256"
                                },
                                {
                                    "internalType": "int256",
                                    "name": "twPremiumDivBySqrtPriceX96",
                                    "type": "int256"
                                }
                            ],
                            "internalType": "struct Funding.Growth",
                            "name": "globalFundingGrowth",
                            "type": "tuple"
                        }
                    ],
                    "internalType": "struct IOrderBook.ReplaySwapParams",
                    "name": "params",
                    "type": "tuple"
                }
            ],
            "name": "replaySwap",
            "outputs": [
                {
                    "components": [
                        {
                            "internalType": "int24",
                            "name": "tick",
                            "type": "int24"
                        },
                        {
                            "internalType": "uint256",
                            "name": "fee",
                            "type": "uint256"
                        },
                        {
                            "internalType": "uint256",
                            "name": "insuranceFundFee",
                            "type": "uint256"
                        }
                    ],
                    "internalType": "struct IOrderBook.ReplaySwapResponse",
                    "name": "",
                    "type": "tuple"
                }
            ],
            "stateMutability": "nonpayable",
            "type": "function"
        },
        {
            "inputs": [
                {
                    "internalType": "address",
                    "name": "clearingHouseArg",
                    "type": "address"
                }
            ],
            "name": "setClearingHouse",
            "outputs": [],
            "stateMutability": "nonpayable",
            "type": "function"
        },
        {
            "inputs": [
                {
                    "internalType": "address",
                    "name": "exchangeArg",
                    "type": "address"
                }
            ],
            "name": "setExchange",
            "outputs": [],
            "stateMutability": "nonpayable",
            "type": "function"
        },
        {
            "inputs": [
                {
                    "internalType": "address",
                    "name": "newOwner",
                    "type": "address"
                }
            ],
            "name": "setOwner",
            "outputs": [],
            "stateMutability": "nonpayable",
            "type": "function"
        },
        {
            "inputs": [
                {
                    "internalType": "uint256",
                    "name": "amount0Owed",
                    "type": "uint256"
                },
                {
                    "internalType": "uint256",
                    "name": "amount1Owed",
                    "type": "uint256"
                },
                {
                    "internalType": "bytes",
                    "name": "data",
                    "type": "bytes"
                }
            ],
            "name": "uniswapV3MintCallback",
            "outputs": [],
            "stateMutability": "nonpayable",
            "type": "function"
        },
        {
            "inputs": [
                {
                    "internalType": "address",
                    "name": "trader",
                    "type": "address"
                },
                {
                    "internalType": "address",
                    "name": "baseToken",
                    "type": "address"
                },
                {
                    "components": [
                        {
                            "internalType": "int256",
                            "name": "twPremiumX96",
                            "type": "int256"
                        },
                        {
                            "internalType": "int256",
                            "name": "twPremiumDivBySqrtPriceX96",
                            "type": "int256"
                        }
                    ],
                    "internalType": "struct Funding.Growth",
                    "name": "fundingGrowthGlobal",
                    "type": "tuple"
                }
            ],
            "name": "updateFundingGrowthAndLiquidityCoefficientInFundingPayment",
            "outputs": [
                {
                    "internalType": "int256",
                    "name": "liquidityCoefficientInFundingPayment",
                    "type": "int256"
                }
            ],
            "stateMutability": "nonpayable",
            "type": "function"
        },
        {
            "inputs": [
                {
                    "internalType": "bytes32",
                    "name": "orderId",
                    "type": "bytes32"
                },
                {
                    "internalType": "int256",
                    "name": "base",
                    "type": "int256"
                },
                {
                    "internalType": "int256",
                    "name": "quote",
                    "type": "int256"
                }
            ],
            "name": "updateOrderDebt",
            "outputs": [],
            "stateMutability": "nonpayable",
            "type": "function"
        },
        {
            "inputs": [],
            "name": "updateOwner",
            "outputs": [],
            "stateMutability": "nonpayable",
            "type": "function"
        }
    ],
    "transactionHash": "0x1683a6610dec4744d24606d2da8b5024c4f391bac0ce575e059374078a619aa2",
    "args": [],
    "solcInputHash": "bbcb938f6f927e009bca6fa7c0bf12e2",
    "bytecode": "0x608060405234801561001057600080fd5b50615fe880620000216000396000f3fe608060405234801561001057600080fd5b50600436106101795760003560e01c80638da5cb5b116100d9578063c66b8ed211610087578063c66b8ed214610337578063d0581a931461033f578063d348799714610352578063e8ab2fb314610365578063eaad235414610385578063f807cd2214610398578063fb112d6c146103a057610179565b80638da5cb5b146102b9578063a3bf0df8146102c1578063acf71827146102e1578063b0c0417414610301578063bc5920ba14610314578063c4d66de81461031c578063c575ff791461032f57610179565b80635b778b9d116101365780635b778b9d1461022f5780635d8a541d1461024257806367b1f5df146102635780636c8381f814610276578063715018a61461028b5780637c2b7c53146102935780637fc26736146102a657610179565b806313af40351461017e578063398dbcfd14610193578063436933ea146101bc578063449323d8146101dc57806347b52fb7146101ef5780634dffaee51461020f575b600080fd5b61019161018c36600461541a565b6103b3565b005b6101a66101a136600461548a565b61050e565b6040516101b39190615d95565b60405180910390f35b6101cf6101ca366004615452565b610771565b6040516101b39190615b66565b6101916101ea36600461541a565b6107eb565b6102026101fd366004615591565b610892565b6040516101b39190615bf7565b61022261021d3660046155d8565b610ab3565b6040516101b39190615baa565b6101a661023d366004615755565b610b36565b6102556102503660046154ec565b610ce0565b6040516101b3929190615c00565b61019161027136600461541a565b610cfa565b61027e610da1565b6040516101b39190615a8f565b610191610db0565b6102026102a13660046154ec565b610e51565b6102026102b4366004615591565b610fc3565b61027e61121e565b6102d46102cf366004615766565b61122d565b6040516101b39190615dcf565b6102f46102ef36600461562a565b611838565b6040516101b39190615cfb565b61019161030f366004615642565b6118d3565b610191611933565b61019161032a36600461541a565b611a1f565b61027e611ad3565b61027e611ae2565b61025561034d3660046155d8565b611af1565b6101916103603660046159f4565b611b68565b6103786103733660046156a5565b611d08565b6040516101b39190615cc7565b6102f4610393366004615536565b6120d5565b61027e612188565b6102026103ae366004615536565b612197565b6103bb612245565b6001600160a01b03166103cc61121e565b6001600160a01b031614610410576040805162461bcd60e51b8152602060048201526006602482015265534f5f434e4f60d01b604482015290519081900360640190fd5b6001600160a01b038116610454576040805162461bcd60e51b81526020600482015260066024820152650534f5f4e57360d41b604482015290519081900360640190fd5b6033546001600160a01b03828116911614156104a0576040805162461bcd60e51b8152602060048201526006602482015265534f5f53414f60d01b604482015290519081900360640190fd5b6034546001600160a01b03828116911614156104ec576040805162461bcd60e51b8152602060048201526006602482015265534f5f53414360d01b604482015290519081900360640190fd5b603480546001600160a01b0319166001600160a01b0392909216919091179055565b610516615195565b61051e612249565b609a5460405163bbe4f6db60e01b81526000916001600160a01b03169063bbe4f6db9061054f908890600401615a8f565b60206040518083038186803b15801561056757600080fd5b505afa15801561057b573d6000803e3d6000fd5b505050506040513d601f19601f8201168201806040525081019061059f9190615436565b90506105a9615195565b60005b8481101561076457600060cf60008888858181106105c657fe5b60209081029290920135835250818101929092526040908101600090812082516101208101845281546001600160801b0381168252600160801b8104600290810b810b810b968301879052600160981b909104810b810b810b948201859052600183015460608301528201546080820152600382015460a0820152600482015460c0820152600582015460e0820152600690910154610100820152935091610671918c918c91612285565b905060006106e66040518060e001604052808d6001600160a01b031681526020018c6001600160a01b03168152602001886001600160a01b03168152602001848152602001856020015160020b8152602001856040015160020b815260200185600001516001600160801b03168152506122e6565b805186519192506106f7919061246e565b85526020808201519086015161070c9161246e565b6020860152604080820151908601516107249161246e565b60408601526060808201519086015161073c916124c8565b606086015260808082015190860151610754916124c8565b60808601525050506001016105ac565b509150505b949350505050565b6001600160a01b03808316600090815260ce602090815260408083209385168352928152908290208054835181840281018401909452808452606093928301828280156107dd57602002820191906000526020600020905b8154815260200190600101908083116107c9575b505050505090505b92915050565b6107f3612245565b6001600160a01b031661080461121e565b6001600160a01b031614610848576040805162461bcd60e51b8152602060048201526006602482015265534f5f434e4f60d01b604482015290519081900360640190fd5b606780546001600160a01b0319166001600160a01b0383169081179091556040517fd0654f5900f9e7e4e605a19334306e6a2786bbf960ac0484a4c12feb6428fe2f90600090a250565b6001600160a01b03808416600090815260ce60209081526040808320938616835292815282822080548451818402810184019095528085529293849390928301828280156108ff57602002820191906000526020600020905b8154815260200190600101908083116108eb575b5050506001600160a01b03808816600090815260d06020526040808220609a54915163bbe4f6db60e01b815296975095919450909116915063bbe4f6db9061094b908990600401615a8f565b60206040518083038186803b15801561096357600080fd5b505afa158015610977573d6000803e3d6000fd5b505050506040513d601f19601f8201168201806040525081019061099b9190615436565b905060006109a88261252d565b505050505091505060005b8451811015610aa657600060cf60008784815181106109ce57fe5b6020908102919091018101518252818101929092526040908101600090812082516101208101845281546001600160801b0381168252600160801b8104600290810b810b810b838801819052600160981b909204810b810b810b958301869052600184015460608401528301546080830152600383015460a0830152600483015460c0830152600583015460e08301526006909201546101008201528c51948d01519095509193610a84938a93909189916125c0565b9050610a9a610a9383836126a4565b89906124c8565b975050506001016109b3565b50505050505b9392505050565b6000805b82811015610b2b576001600160a01b038516600090815260ce6020526040812081868685818110610ae457fe5b9050602002016020810190610af9919061541a565b6001600160a01b031681526020810191909152604001600020541115610b23576001915050610aac565b600101610ab7565b506000949350505050565b610b3e615195565b610b46612249565b609a546000906001600160a01b031663bbe4f6db610b6a604086016020870161541a565b6040518263ffffffff1660e01b8152600401610b869190615a8f565b60206040518083038186803b158015610b9e57600080fd5b505afa158015610bb2573d6000803e3d6000fd5b505050506040513d601f19601f82011682018060405250810190610bd69190615436565b90506000610c1f610bea602086018661541a565b610bfa604087016020880161541a565b610c0a606088016040890161566d565b610c1a6080890160608a0161566d565b612285565b6040805160e08101909152909150610cd69080610c3f602088018861541a565b6001600160a01b03168152602001866020016020810190610c60919061541a565b6001600160a01b03168152602001846001600160a01b03168152602001838152602001866040016020810190610c96919061566d565b60020b8152602001610cae608088016060890161566d565b60020b8152602001610cc660a088016080890161581b565b6001600160801b031690526122e6565b925050505b919050565b600080610cee85858561278a565b90969095509350505050565b610d02612245565b6001600160a01b0316610d1361121e565b6001600160a01b031614610d57576040805162461bcd60e51b8152602060048201526006602482015265534f5f434e4f60d01b604482015290519081900360640190fd5b60cd80546001600160a01b0319166001600160a01b0383169081179091556040517f39870277935708b88965de17b0c29d3c1ad93a200dce569fc56702229432973e90600090a250565b6034546001600160a01b031690565b610db8612245565b6001600160a01b0316610dc961121e565b6001600160a01b031614610e0d576040805162461bcd60e51b8152602060048201526006602482015265534f5f434e4f60d01b604482015290519081900360640190fd5b6033546040516000916001600160a01b031690600080516020615f20833981519152908390a3603380546001600160a01b0319908116909155603480549091169055565b6001600160a01b03808416600090815260ce6020908152604080832093861683529281528282208054845181840281018401909552808552929384938493919291830182828015610ec157602002820191906000526020600020905b815481526020019060010190808311610ead575b505083519394506000925050505b81811015610fb757600060cf6000858481518110610ee957fe5b6020908102919091018101518252818101929092526040908101600090812082516101208101845281546001600160801b0381168252600160801b8104600290810b810b810b96830196909652600160981b9004850b850b850b9381019390935260018101546060840152928301546080830152600383015460a0830152600483015460c0830152600583015460e0830152600690920154610100820152915087610f9957816101000151610f9f565b8160e001515b9050610fab868261246e565b95505050600101610ecf565b50919695505050505050565b6001600160a01b03808416600090815260ce602090815260408083209386168352928152828220805484518184028101840190955280855292938493909283018282801561103057602002820191906000526020600020905b81548152602001906001019080831161101c575b5050506001600160a01b03808816600090815260d06020526040808220609a54915163bbe4f6db60e01b815296975095919450909116915063bbe4f6db9061107c908990600401615a8f565b60206040518083038186803b15801561109457600080fd5b505afa1580156110a8573d6000803e3d6000fd5b505050506040513d601f19601f820116820180604052508101906110cc9190615436565b835190915060006110dc8361252d565b505050505091505060005b8281101561121157600060cf600088848151811061110157fe5b602090810291909101810151825281810192909252604001600090812080548c51938d01519194509192611150928a92600160801b8204600290810b93600160981b909304900b9189916125c0565b604080516101208101825284546001600160801b0381168252600160801b8104600290810b810b810b6020840152600160981b909104810b810b810b9282019290925260018501546060820152908401546080820152600384015460a0820152600484015460c0820152600584015460e082015260068401546101008201529091506111e7906111e090836126a4565b8a906124c8565b815160028401556020820151600384015560409091015160049092019190915596506001016110e7565b5050505050509392505050565b6033546001600160a01b031690565b6112356151c4565b60cd546001600160a01b0316611249612245565b6001600160a01b0316146112785760405162461bcd60e51b815260040161126f90615c2f565b60405180910390fd5b609a54825160405163bbe4f6db60e01b81526000926001600160a01b03169163bbe4f6db916112aa9190600401615a8f565b60206040518083038186803b1580156112c257600080fd5b505afa1580156112d6573d6000803e3d6000fd5b505050506040513d601f19601f820116820180604052508101906112fa9190615436565b6060840151609a54855160405163033e16f360e21b81529394506000928312936001600160a01b0390921691630cf85bcc9161133891600401615a8f565b60806040518083038186803b15801561135057600080fd5b505afa158015611364573d6000803e3d6000fd5b505050506040513d601f19601f8201168201806040525081019061138891906156d8565b60600151905060008060006113cb86896060015160d160008c600001516001600160a01b03166001600160a01b0316815260200190815260200160002054612a66565b905087608001516001600160a01b03166000146113ec578760800151611416565b876020015161140f5773fffd8963efd1fc6a506488495d951d5263988d25611416565b6401000276a45b6001600160a01b03166080890152600061142f87612b3c565b90505b60408201511580159061145f575088608001516001600160a01b031682602001516001600160a01b031614155b156117e75761146c6151e8565b6020808401516001600160a01b031682528351908b0151611490918a918590612baf565b15156040830152600290810b810b60208301819052620d89e719910b12156114c157620d89e71960208201526114e0565b6020810151620d89e860029190910b13156114e057620d89e860208201525b6114ed8160200151612cd1565b6001600160a01b03166060820152602080840151908b015161158a9190611530578b608001516001600160a01b031683606001516001600160a01b03161161154e565b8b608001516001600160a01b031683606001516001600160a01b0316105b61155c578260600151611562565b8b608001515b856080015186604001518e6020015161157f578e60a00151611585565b8e60c001515b612ff9565b60c085015260a084015260808301526001600160a01b0316602084015286156115e8576115de6115d36115ce8360c00151846080015161246e90919063ffffffff16565b6131eb565b604085015190613237565b6040840152611609565b6116036115f88260a001516131eb565b6040850151906124c8565b60408401525b60808301516001600160801b0316156116ab57896020015115611647576116418160a001518b60a0015162ffffff16620f424061329c565b60c08201525b60c0810151948501946000906116669062ffffff8916620f424061329c565b60c08301519581019590915060009061167f90836132d6565b905061169d81600160801b87608001516001600160801b0316613333565b606086018051909101905250505b80606001516001600160a01b031683602001516001600160a01b031614156117a95780604001511561177f578960400151156117365789516001600160a01b0316600090815260d0602090815260409182902083820151835160608082018652880151815260e08f018051518286015251909301519383019390935291611734918391906133e2565b505b6000611746898360200151613421565b90508a60200151156117615761175e81600f0b6134b0565b90505b61176f8460800151826134e3565b6001600160801b03166080850152505b896020015161179257806020015161179b565b60018160200151035b600290810b900b83526117e1565b80600001516001600160a01b031683602001516001600160a01b0316146117e1576117d78360200151613599565b600290810b900b83525b50611432565b88604001511561181157606082015189516001600160a01b0316600090815260d160205260409020555b5060408051606081018252915160020b825260208201939093529182015295945050505050565b611840615224565b50600090815260cf602090815260409182902082516101208101845281546001600160801b0381168252600160801b8104600290810b810b810b94830194909452600160981b9004830b830b830b9381019390935260018101546060840152908101546080830152600381015460a0830152600481015460c0830152600581015460e08301526006015461010082015290565b6118db612249565b600083815260cf60205260409020600581015461190c90611907908590611901906131eb565b906124c8565b613897565b81600501819055506119286119078361190184600601546131eb565b600690910155505050565b6034546001600160a01b0316611978576040805162461bcd60e51b81526020600482015260056024820152640534f5f43360dc1b604482015290519081900360640190fd5b611980612245565b6034546001600160a01b039081169116146119cb576040805162461bcd60e51b8152602060048201526006602482015265534f5f434e4360d01b604482015290519081900360640190fd5b6034546033546040516001600160a01b039283169290911690600080516020615f2083398151915290600090a360348054603380546001600160a01b03199081166001600160a01b03841617909155169055565b600054610100900460ff1680611a385750611a386138ee565b80611a46575060005460ff16155b611a815760405162461bcd60e51b815260040180806020018281038252602e815260200180615ed1602e913960400191505060405180910390fd5b600054610100900460ff16158015611aac576000805460ff1961ff0019909116610100171660011790555b611ab46138ff565b611abd826139a9565b8015611acf576000805461ff00191690555b5050565b6067546001600160a01b031690565b609a546001600160a01b031690565b60008060005b83811015611b5f576000858583818110611b0d57fe5b9050602002016020810190611b22919061541a565b9050600080611b3389846000613a6e565b9092509050611b4286836124c8565b9550611b4e858261246e565b94505060019092019150611af79050565b50935093915050565b6000611b72612245565b90506000816001600160a01b0316630dfe16816040518163ffffffff1660e01b815260040160206040518083038186803b158015611baf57600080fd5b505afa158015611bc3573d6000803e3d6000fd5b505050506040513d601f19601f82011682018060405250810190611be79190615436565b609a5460405163bbe4f6db60e01b81529192506001600160a01b03169063bbe4f6db90611c18908490600401615a8f565b60206040518083038186803b158015611c3057600080fd5b505afa158015611c44573d6000803e3d6000fd5b505050506040513d601f19601f82011682018060405250810190611c689190615436565b6001600160a01b0316826001600160a01b031614611c985760405162461bcd60e51b815260040161126f90615c4f565b60675460405163d348799760e01b81526001600160a01b039091169063d348799790611cce908990899089908990600401615df3565b600060405180830381600087803b158015611ce857600080fd5b505af1158015611cfc573d6000803e3d6000fd5b50505050505050505050565b611d1061527f565b611d18612249565b609a546000906001600160a01b031663bbe4f6db611d3c604086016020870161541a565b6040518263ffffffff1660e01b8152600401611d589190615a8f565b60206040518083038186803b158015611d7057600080fd5b505afa158015611d84573d6000803e3d6000fd5b505050506040513d601f19601f82011682018060405250810190611da89190615436565b9050600060d181611dbf604087016020880161541a565b6001600160a01b03166001600160a01b03168152602001908152602001600020549050600060d06000866020016020810190611dfb919061541a565b6001600160a01b03166001600160a01b031681526020019081526020016000209050611e256152b0565b6000611e4085611e3b60a08a0160808b0161566d565b613ab5565b90506000611e5886611e3b60c08b0160a08c0161566d565b9050611f1e6040518060c00160405280886001600160a01b031681526020018a6080016020810190611e8a919061566d565b60020b8152602001611ea260c08c0160a08d0161566d565b60020b81526020018a6040013581526020018a60600135815260200160405180604001604052808c6000016020810190611edc919061541a565b6001600160a01b031681526020018a6001600160a01b0316815250604051602001611f079190615d72565b604051602081830303815290604052815250613b43565b92506000611f2b8761252d565b505050505091505082158015611f505750611f5087611e3b60a08c0160808d0161566d565b15611f9557611f95611f6860a08b0160808c0161566d565b6040805160608101825289815260c08d0135602082015260e08d0135918101919091528791908490613c5d565b81158015611fb25750611fb287611e3b60c08c0160a08d0161566d565b15611fca57611fca611f6860c08b0160a08c0161566d565b5050604080516101408101909152600091506120999080611fee60208b018b61541a565b6001600160a01b0316815260200189602001602081019061200f919061541a565b6001600160a01b0390811682528816602082015260400161203660a08b0160808c0161566d565b60020b815260200161204e60c08b0160a08c0161566d565b60020b815260208082018890526040868101516001600160801b03169083015285516060830152850151608082015260a001612092368b90038b0160c08c016156bd565b9052613c9c565b6040805160808101825284518152602080860151908201528082019290925292909201516001600160801b031660608301525095945050505050565b6120dd615224565b60cf60006120ed87878787612285565b8152602080820192909252604090810160002081516101208101835281546001600160801b0381168252600160801b8104600290810b810b810b95830195909552600160981b9004840b840b840b9281019290925260018101546060830152918201546080820152600382015460a0820152600482015460c0820152600582015460e082015260069091015461010082015295945050505050565b60cd546001600160a01b031690565b6000806107648560cf60006121ae8a8a8a8a612285565b8152602080820192909252604090810160002081516101208101835281546001600160801b0381168252600160801b8104600290810b810b810b95830195909552600160981b9004840b840b840b9281019290925260018101546060830152918201546080820152600382015460a0820152600482015460c0820152600582015460e0820152600690910154610100820152613fa2565b3390565b6067546001600160a01b031661225d612245565b6001600160a01b0316146122835760405162461bcd60e51b815260040161126f90615c0e565b565b604080516bffffffffffffffffffffffff19606096871b81166020808401919091529590961b9095166034860152600292830b60e890811b60488701529190920b901b604b8401528051602e818503018152604e9093019052815191012090565b6122ee615195565b60006123656040518060a0016040528085604001516001600160a01b0316815260200160cd60009054906101000a90046001600160a01b03166001600160a01b03168152602001856080015160020b81526020018560a0015160020b81526020018560c001516001600160801b0316815250614052565b90506000806000612375866141a8565b925092509250600061239a612389846131eb565b8651612394906131eb565b90613237565b905060006123b76123aa846131eb565b61239488602001516131eb565b90506123cb88604001518960800151613ab5565b6123fa5760808801516020808a01516001600160a01b0316600090815260d0909152604090206123fa91614371565b61240c88604001518960a00151613ab5565b61243b5760a08801516020808a01516001600160a01b0316600090815260d09091526040902061243b91614371565b6040805160a081018252875181526020978801519781019790975286019490945260608501525050608082015292915050565b600082820183811015610aac576040805162461bcd60e51b815260206004820152601b60248201527f536166654d6174683a206164646974696f6e206f766572666c6f770000000000604482015290519081900360640190fd5b60008282018183128015906124dd5750838112155b806124f257506000831280156124f257508381125b610aac5760405162461bcd60e51b8152600401808060200182810382526021815260200180615eb06021913960400191505060405180910390fd5b6000806000806000806000876001600160a01b0316633850c7bd6040518163ffffffff1660e01b815260040160e06040518083038186803b15801561257157600080fd5b505afa158015612585573d6000803e3d6000fd5b505050506040513d601f19601f820116820180604052508101906125a9919061592b565b959e949d50929b5090995097509550909350915050565b6125c86152da565b600286810b810b60009081526020899052604080822088840b90930b82529020600180830154908201546125fa6152da565b8a60020b8960020b121561261057828803612612565b825b6020820152600060028b810b908b900b1261262f57828903612631565b825b905060008660020154905060008660020154905060008e60020b8d60020b121561265d57828b0361265f565b825b905060008e60020b8e60020b1261267857828c0361267a565b825b6020870151909d03949094038552909903999099036040830152509b9a5050505050505050505050565b6000806126b48460400151612cd1565b905060006126d16126c88660200151612cd1565b86518490614395565b905060006127026126f38760a00151876020015161323790919063ffffffff16565b6126fc846131eb565b906143fe565b9050600061276561275161273e61272a8a608001518a6000015161323790919063ffffffff16565b600160601b886001600160a01b03166144a7565b60c08a015160408a015161239491613237565b88516126fc906001600160801b03166131eb565b905061277f600160601b61277984846124c8565b9061454b565b979650505050505050565b6001600160a01b03808416600090815260ce60209081526040808320938616835292815282822080548451818402810184019095528085529293849384939192918301828280156127fa57602002820191906000526020600020905b8154815260200190600101908083116127e6575b5050609a5460405163bbe4f6db60e01b815294955060009461288e94506001600160a01b03909116925063bbe4f6db9150612839908a90600401615a8f565b60206040518083038186803b15801561285157600080fd5b505afa158015612865573d6000803e3d6000fd5b505050506040513d601f19601f820116820180604052508101906128899190615436565b61252d565b50508651949550600093505050505b81811015612a5a57600060cf60008684815181106128b757fe5b6020908102919091018101518252818101929092526040908101600090812082516101208101845281546001600160801b0381168252600160801b8104600290810b810b810b968301879052600160981b909104810b810b810b9482019490945260018201546060820152928101546080840152600381015460a0840152600481015460c0840152600581015460e08401526006015461010083015290925090819061296290612cd1565b905060006129738460400151612cd1565b90508a80156129935750806001600160a01b0316876001600160a01b0316105b156129cc576129c5826001600160a01b0316886001600160a01b0316116129ba57826129bc565b875b85518390614395565b9250612a1f565b8a1580156129eb5750816001600160a01b0316876001600160a01b0316115b15612a1f57612a1c82826001600160a01b0316896001600160a01b031610612a135782612a15565b885b8651614603565b92505b50612a2c9050888261246e565b975088612a50576000612a3f8b84613fa2565b509050612a4c888261246e565b9750505b505060010161289d565b50505050935093915050565b612a6e6152fb565b600080612a7a8661252d565b5050505050915091506000866001600160a01b0316631a6865026040518163ffffffff1660e01b815260040160206040518083038186803b158015612abe57600080fd5b505afa158015612ad2573d6000803e3d6000fd5b505050506040513d601f19601f82011682018060405250810190612af69190615837565b6040805160a08101825260029490940b84526001600160a01b0390941660208401529282019590955260608101939093526001600160801b031660808301525092915050565b6000816001600160a01b031663d0c93a7c6040518163ffffffff1660e01b815260040160206040518083038186803b158015612b7757600080fd5b505afa158015612b8b573d6000803e3d6000fd5b505050506040513d601f19601f820116820180604052508101906107e59190615689565b60008060008460020b8660020b81612bc357fe5b05905060008660020b128015612bea57508460020b8660020b81612be357fe5b0760020b15155b15612bf457600019015b8315612c5d57600080612c0683614646565b9092509050600160ff82161b800160001901600081612c258c86614658565b168015159650905085612c3f57888360ff16860302612c52565b88612c49826146d7565b840360ff168603025b965050505050612cc7565b600080612c6c83600101614646565b9092509050600019600160ff83161b0119600081612c8a8c86614658565b168015159650905085612caa57888360ff0360ff16866001010102612cc0565b8883612cb583614772565b0360ff168660010101025b9650505050505b5094509492505050565b60008060008360020b12612ce8578260020b612cf0565b8260020b6000035b9050620d89e8811115612d2e576040805162461bcd60e51b81526020600482015260016024820152601560fa1b604482015290519081900360640190fd5b600060018216612d4257600160801b612d54565b6ffffcb933bd6fad37aa2d162d1a5940015b6001600160881b031690506002821615612d7e576ffff97272373d413259a46990580e213a0260801c5b6004821615612d9d576ffff2e50f5f656932ef12357cf3c7fdcc0260801c5b6008821615612dbc576fffe5caca7e10e4e61c3624eaa0941cd00260801c5b6010821615612ddb576fffcb9843d60f6159c9db58835c9266440260801c5b6020821615612dfa576fff973b41fa98c081472e6896dfb254c00260801c5b6040821615612e19576fff2ea16466c96a3843ec78b326b528610260801c5b6080821615612e38576ffe5dee046a99a2a811c461f1969c30530260801c5b610100821615612e58576ffcbe86c7900a88aedcffc83b479aa3a40260801c5b610200821615612e78576ff987a7253ac413176f2b074cf7815e540260801c5b610400821615612e98576ff3392b0822b70005940c7a398e4b70f30260801c5b610800821615612eb8576fe7159475a2c29b7443b29c7fa6e889d90260801c5b611000821615612ed8576fd097f3bdfd2022b8845ad8f792aa58250260801c5b612000821615612ef8576fa9f746462d870fdf8a65dc1f90e061e50260801c5b614000821615612f18576f70d869a156d2a1b890bb3df62baf32f70260801c5b618000821615612f38576f31be135f97d08fd981231505542fcfa60260801c5b62010000821615612f59576f09aa508b5b7a84e1c677de54f3e99bc90260801c5b62020000821615612f79576e5d6af8dedb81196699c329225ee6040260801c5b62040000821615612f98576d2216e584f5fa1ea926041bedfe980260801c5b62080000821615612fb5576b048a170391f7dc42444e8fa20260801c5b60008460020b1315612fd0578060001981612fcc57fe5b0490505b640100000000810615612fe4576001612fe7565b60005b60ff16602082901c0192505050919050565b60008080806001600160a01b03808916908a16101581871280159061307e5760006130328989620f42400362ffffff16620f4240613333565b90508261304b576130468c8c8c600161485b565b613058565b6130588b8d8c60016148d4565b9550858110613069578a9650613078565b6130758c8b8386614974565b96505b506130c8565b81613095576130908b8b8b60006148d4565b6130a2565b6130a28a8c8b600061485b565b93508388600003106130b6578995506130c8565b6130c58b8a8a600003856149c0565b95505b6001600160a01b038a811690871614821561312b578080156130e75750815b6130fd576130f8878d8c60016148d4565b6130ff565b855b955080801561310c575081155b6131225761311d878d8c600061485b565b613124565b845b9450613175565b8080156131355750815b61314b576131468c888c600161485b565b61314d565b855b955080801561315a575081155b6131705761316b8c888c60006148d4565b613172565b845b94505b8115801561318557508860000385115b15613191578860000394505b8180156131b057508a6001600160a01b0316876001600160a01b031614155b156131bf5785890393506131dc565b6131d9868962ffffff168a620f42400362ffffff1661329c565b93505b50505095509550955095915050565b60006001600160ff1b038211156132335760405162461bcd60e51b8152600401808060200182810382526028815260200180615f676028913960400191505060405180910390fd5b5090565b600081830381831280159061324c5750838113155b80613261575060008312801561326157508381135b610aac5760405162461bcd60e51b8152600401808060200182810382526024815260200180615f8f6024913960400191505060405180910390fd5b60006132a9848484613333565b9050600082806132b557fe5b8486091115610aac5760001981106132cc57600080fd5b6001019392505050565b60008282111561332d576040805162461bcd60e51b815260206004820152601e60248201527f536166654d6174683a207375627472616374696f6e206f766572666c6f770000604482015290519081900360640190fd5b50900390565b6000808060001985870986860292508281109083900303905080613369576000841161335e57600080fd5b508290049050610aac565b80841161337557600080fd5b6000848688096000868103871696879004966002600389028118808a02820302808a02820302808a02820302808a02820302808a02820302808a02909103029181900381900460010186841190950394909402919094039290920491909117919091029150509392505050565b600291820b820b600090815260209384526040908190208054835103815560018101805495840151959095039094559290910180549190920151039055565b60405163f30dba9360e01b81526000906001600160a01b0384169063f30dba9390613450908590600401615bc3565b6101006040518083038186803b15801561346957600080fd5b505afa15801561347d573d6000803e3d6000fd5b505050506040513d601f19601f820116820180604052508101906134a19190615853565b50949998505050505050505050565b600060016001607f1b031982600f0b136134dc5760405162461bcd60e51b815260040161126f90615c70565b5060000390565b60008082600f0b121561354857826001600160801b03168260000384039150816001600160801b031610613543576040805162461bcd60e51b81526020600482015260026024820152614c5360f01b604482015290519081900360640190fd5b6107e5565b826001600160801b03168284019150816001600160801b031610156107e5576040805162461bcd60e51b81526020600482015260026024820152614c4160f01b604482015290519081900360640190fd5b60006401000276a36001600160a01b038316108015906135d5575073fffd8963efd1fc6a506488495d951d5263988d266001600160a01b038316105b61360a576040805162461bcd60e51b81526020600482015260016024820152602960f91b604482015290519081900360640190fd5b640100000000600160c01b03602083901b166001600160801b03811160071b81811c6001600160401b03811160061b90811c63ffffffff811160051b90811c61ffff811160041b90811c60ff8111600390811b91821c600f811160021b90811c918211600190811b92831c9790881196179094179092171790911717176080811061369d57607f810383901c91506136a7565b80607f0383901b91505b908002607f81811c60ff83811c9190911c800280831c81831c1c800280841c81841c1c800280851c81851c1c800280861c81861c1c800280871c81871c1c800280881c81881c1c800280891c81891c1c8002808a1c818a1c1c8002808b1c818b1c1c8002808c1c818c1c1c8002808d1c818d1c1c8002808e1c9c81901c9c909c1c80029c8d901c9e9d607f198f0160401b60c09190911c6001603f1b161760c19b909b1c6001603e1b169a909a1760c29990991c6001603d1b169890981760c39790971c6001603c1b169690961760c49590951c6001603b1b169490941760c59390931c6001603a1b169290921760c69190911c600160391b161760c79190911c600160381b161760c89190911c6680000000000000161760c99190911c6640000000000000161760ca9190911c6620000000000000161760cb9190911c6610000000000000161760cc9190911c6608000000000000161760cd9190911c66040000000000001617693627a301d71055774c8581026f028f6481ab7f045a5af012a19d003aa9198101608090811d906fdb2df09e81959a81455e260799a0632f8301901d600281810b9083900b1461388857886001600160a01b031661386c82612cd1565b6001600160a01b031611156138815781613883565b805b61388a565b815b9998505050505050505050565b600080821215613233576040805162461bcd60e51b815260206004820181905260248201527f53616665436173743a2076616c7565206d75737420626520706f736974697665604482015290519081900360640190fd5b60006138f930614a0c565b15905090565b600054610100900460ff168061391857506139186138ee565b80613926575060005460ff16155b6139615760405162461bcd60e51b815260040180806020018281038252602e815260200180615ed1602e913960400191505060405180910390fd5b600054610100900460ff1615801561398c576000805460ff1961ff0019909116610100171660011790555b613994614a12565b80156139a6576000805461ff00191690555b50565b600054610100900460ff16806139c257506139c26138ee565b806139d0575060005460ff16155b613a0b5760405162461bcd60e51b815260040180806020018281038252602e815260200180615ed1602e913960400191505060405180910390fd5b600054610100900460ff16158015613a36576000805460ff1961ff0019909116610100171660011790555b613a3e614b01565b609a80546001600160a01b0319166001600160a01b0384161790558015611acf576000805461ff00191690555050565b600080600080613a7f87878761278a565b915091506000613a90888888610e51565b9050613aa7613a9e826131eb565b612394856131eb565b989197509095505050505050565b60405163f30dba9360e01b81526000906001600160a01b0384169063f30dba9390613ae4908590600401615bc3565b6101006040518083038186803b158015613afd57600080fd5b505afa158015613b11573d6000803e3d6000fd5b505050506040513d601f19601f82011682018060405250810190613b359190615853565b9a9950505050505050505050565b613b4b6152b0565b6000613b5a836000015161252d565b50505050505090506000613b9182613b758660200151612cd1565b613b828760400151612cd1565b87606001518860800151614b96565b8451602086015160408088015160a08901519151633c8a7d8d60e01b815294955060009485946001600160a01b031693633c8a7d8d93613bd993309390918a91600401615aa3565b6040805180830381600087803b158015613bf257600080fd5b505af1158015613c06573d6000803e3d6000fd5b505050506040513d601f19601f82011682018060405250810190613c2a91906159d1565b915091506040518060600160405280838152602001828152602001846001600160801b0316815250945050505050919050565b8160020b8360020b13613c9657600283810b810b6000908152602086815260409182902084518155908401516001820155908301519101555b50505050565b600080613cbb8360000151846020015185606001518660800151612285565b600081815260cf602052604090208054919250906001600160801b0316613e825783516001600160a01b03908116600090815260ce602090815260408083208289015185168452825291829020609a548351633b38243160e21b815293519194169263ece090c4926004808301939192829003018186803b158015613d3f57600080fd5b505afa158015613d53573d6000803e3d6000fd5b505050506040513d601f19601f82011682018060405250810190613d779190615a6e565b60ff16818054905010613d9c5760405162461bcd60e51b815260040161126f90615ca7565b8054600181018255600082815260208120909101849055606086015183546080880151600290810b62ffffff908116600160981b0262ffffff60981b199490920b16600160801b0262ffffff60801b1990921691909117919091161783556040860151613e089061252d565b5050506020808b01516001600160a01b0316600090815260d082526040812089546101208e015180519401519698509096509094613e639450869350600160801b8204600290810b93600160981b909304900b9188916125c0565b8051600287015560208101516003870155604001516004860155505050505b602080850151604080516101208101825284546001600160801b0381168252600160801b8104600290810b810b810b95830195909552600160981b9004840b840b840b9181019190915260018401546060820152918301546080830152600383015460a0830152600483015460c0830152600583015460e083015260068301546101008301526000918291613f1691613fa2565b60c08801518554929450909250613f4291613f3d916001600160801b03918216911661246e565b614c58565b83546001600160801b0319166001600160801b03919091161783556001830181905560e08601516005840154613f779161246e565b60058401556101008601516006840154613f909161246e565b60069093019290925592505050919050565b609a5460405163bbe4f6db60e01b815260009182918291613fdd916001600160a01b039091169063bbe4f6db90612839908990600401615a8f565b505050506001600160a01b038816600090815260d0602090815260408083208a8301518b83015160d19094529190932054949650919450614022938593508690614ca0565b92506140468560600151840386600001516001600160801b0316600160801b613333565b935050505b9250929050565b61405a615329565b60008083600001516001600160a01b031663a34123a78560400151866060015187608001516040518463ffffffff1660e01b815260040161409d93929190615bd1565b6040805180830381600087803b1580156140b657600080fd5b505af11580156140ca573d6000803e3d6000fd5b505050506040513d601f19601f820116820180604052508101906140ee91906159d1565b9150915083600001516001600160a01b0316634f1eb3d88560200151866040015187606001516001600160801b03806040518663ffffffff1660e01b815260040161413d959493929190615b29565b6040805180830381600087803b15801561415657600080fd5b505af115801561416a573d6000803e3d6000fd5b505050506040513d601f19601f8201168201806040525081019061418e91906158fd565b505060408051808201909152918252602082015292915050565b606080820151600090815260cf602090815260408083208286015182516101208101845282546001600160801b0381168252600160801b8104600290810b810b810b96830196909652600160981b9004850b850b850b93810193909352600182015495830195909552918201546080820152600382015460a0820152600482015460c0820152600582015460e082015260068201546101008201529192839283929183916142569190613fa2565b60c088015191965091506001600160801b031615614335576005820154156142b357600582015460c0870151835461429b92916001600160801b039081169116613333565b60058301549094506142ad90856132d6565b60058301555b6006820154156142f857600682015460c087015183546142e092916001600160801b039081169116613333565b60068301549093506142f290846132d6565b60068301555b60c0860151825461431991613f3d916001600160801b0390811691166132d6565b82546001600160801b0319166001600160801b03919091161782555b81546001600160801b03166143605761435b866000015187602001518860600151614d08565b614368565b600182018190555b50509193909250565b600290810b810b600090815260209290925260408220828155600181018390550155565b6000826001600160a01b0316846001600160a01b031611156143b5579192915b836001600160a01b03166143ee606060ff16846001600160801b0316901b8686036001600160a01b0316866001600160a01b0316613333565b816143f557fe5b04949350505050565b60008261440d575060006107e5565b826000191480156144215750600160ff1b82145b1561445d5760405162461bcd60e51b8152600401808060200182810382526027815260200180615f406027913960400191505060405180910390fd5b8282028284828161446a57fe5b0514610aac5760405162461bcd60e51b8152600401808060200182810382526027815260200180615f406027913960400191505060405180910390fd5b600080600085126144b857846144c1565b6144c185614e11565b905060008085126144d257846144db565b6144db85614e11565b9050600080871280156144ee5750600086135b8061450457506000871380156145045750600086125b61450f576000614512565b60015b90506000614521848488613333565b90508161453657614531816131eb565b61453f565b61453f81614e36565b98975050505050505050565b60008161459f576040805162461bcd60e51b815260206004820181905260248201527f5369676e6564536166654d6174683a206469766973696f6e206279207a65726f604482015290519081900360640190fd5b816000191480156145b35750600160ff1b83145b156145ef5760405162461bcd60e51b8152600401808060200182810382526021815260200180615eff6021913960400191505060405180910390fd5b60008284816145fa57fe5b05949350505050565b6000826001600160a01b0316846001600160a01b03161115614623579192915b610769826001600160801b03168585036001600160a01b0316600160601b613333565b60020b600881901d9161010090910790565b60405163299ce14b60e11b81526000906001600160a01b03841690635339c29690614687908590600401615bb5565b60206040518083038186803b15801561469f57600080fd5b505afa1580156146b3573d6000803e3d6000fd5b505050506040513d601f19601f82011682018060405250810190610aac91906159b9565b60008082116146e557600080fd5b600160801b82106146f857608091821c91015b600160401b821061470b57604091821c91015b640100000000821061471f57602091821c91015b62010000821061473157601091821c91015b610100821061474257600891821c91015b6010821061475257600491821c91015b6004821061476257600291821c91015b60028210610cdb57600101919050565b600080821161478057600080fd5b5060ff6001600160801b0382161561479b57607f19016147a3565b608082901c91505b6001600160401b038216156147bb57603f19016147c3565b604082901c91505b63ffffffff8216156147d857601f19016147e0565b602082901c91505b61ffff8216156147f357600f19016147fb565b601082901c91505b60ff82161561480d5760071901614815565b600882901c91505b600f821615614827576003190161482f565b600482901c91505b60038216156148415760011901614849565b600282901c91505b6001821615610cdb5760001901919050565b6000836001600160a01b0316856001600160a01b0316111561487b579293925b816148a8576148a3836001600160801b03168686036001600160a01b0316600160601b613333565b6148cb565b6148cb836001600160801b03168686036001600160a01b0316600160601b61329c565b95945050505050565b6000836001600160a01b0316856001600160a01b031611156148f4579293925b600160601b600160e01b03606084901b166001600160a01b03868603811690871661491e57600080fd5b8361494e57866001600160a01b03166149418383896001600160a01b0316613333565b8161494857fe5b0461277f565b61277f6149658383896001600160a01b031661329c565b886001600160a01b0316614e4a565b600080856001600160a01b03161161498b57600080fd5b6000846001600160801b0316116149a157600080fd5b816149b3576148a38585856001614e55565b6148cb8585856001614f36565b600080856001600160a01b0316116149d757600080fd5b6000846001600160801b0316116149ed57600080fd5b816149ff576148a38585856000614f36565b6148cb8585856000614e55565b3b151590565b600054610100900460ff1680614a2b5750614a2b6138ee565b80614a39575060005460ff16155b614a745760405162461bcd60e51b815260040180806020018281038252602e815260200180615ed1602e913960400191505060405180910390fd5b600054610100900460ff16158015614a9f576000805460ff1961ff0019909116610100171660011790555b614aa7614b01565b6000614ab1612245565b603380546001600160a01b0319166001600160a01b03831690811790915560405191925090600090600080516020615f20833981519152908290a35080156139a6576000805461ff001916905550565b600054610100900460ff1680614b1a5750614b1a6138ee565b80614b28575060005460ff16155b614b635760405162461bcd60e51b815260040180806020018281038252602e815260200180615ed1602e913960400191505060405180910390fd5b600054610100900460ff16158015614b8e576000805460ff1961ff0019909116610100171660011790555b613994615019565b6000836001600160a01b0316856001600160a01b03161115614bb6579293925b846001600160a01b0316866001600160a01b031611614be157614bda8585856150b9565b90506148cb565b836001600160a01b0316866001600160a01b03161015614c43576000614c088786866150b9565b90506000614c1787898661511c565b9050806001600160801b0316826001600160801b031610614c385780614c3a565b815b925050506148cb565b614c4e85858461511c565b9695505050505050565b806001600160801b0381168114610cdb5760405162461bcd60e51b8152600401808060200182810382526027815260200180615e896027913960400191505060405180910390fd5b600284810b80820b6000908152602088905260408082205487850b850b83529082205491939092849187900b1215614cda57828503614cdc565b825b905060008760020b8760020b12614cf557828603614cf7565b825b919095030398975050505050505050565b6001600160a01b03808416600090815260ce602090815260408083209386168352929052908120805490915b81811015614e095783838281548110614d4957fe5b90600052602060002001541415614e0157600182038114614d9757826001830381548110614d7357fe5b9060005260206000200154838281548110614d8a57fe5b6000918252602090912001555b82805480614da157fe5b60008281526020808220830160001990810183905590920190925585825260cf90526040812080546001600160b01b0319168155600181018290556002810182905560038101829055600481018290556005810182905560060155614e09565b600101614d34565b505050505050565b6000600160ff1b82136134dc5760405162461bcd60e51b815260040161126f90615c70565b6000614e41826131eb565b60000392915050565b808204910615150190565b60008115614ec85760006001600160a01b03841115614e8b57614e8684600160601b876001600160801b0316613333565b614ea3565b6001600160801b038516606085901b81614ea157fe5b045b9050614ec0614ebb6001600160a01b03881683615159565b615169565b915050610769565b60006001600160a01b03841115614ef657614ef184600160601b876001600160801b031661329c565b614f0d565b614f0d606085901b6001600160801b038716614e4a565b905080866001600160a01b031611614f2457600080fd5b6001600160a01b038616039050610769565b600082614f44575083610769565b600160601b600160e01b03606085901b168215614fd2576001600160a01b03861684810290858281614f7257fe5b041415614fa357818101828110614fa157614f9783896001600160a01b03168361329c565b9350505050610769565b505b614fc982614fc4878a6001600160a01b03168681614fbd57fe5b0490615159565b614e4a565b92505050610769565b6001600160a01b03861684810290858281614fe957fe5b04148015614ff657508082115b614fff57600080fd5b808203614f97614ebb846001600160a01b038b168461329c565b600054610100900460ff168061503257506150326138ee565b80615040575060005460ff16155b61507b5760405162461bcd60e51b815260040180806020018281038252602e815260200180615ed1602e913960400191505060405180910390fd5b600054610100900460ff16158015613994576000805460ff1961ff00199091166101001716600117905580156139a6576000805461ff001916905550565b6000826001600160a01b0316846001600160a01b031611156150d9579192915b60006150fc856001600160a01b0316856001600160a01b0316600160601b613333565b90506148cb61511784838888036001600160a01b0316613333565b61517f565b6000826001600160a01b0316846001600160a01b0316111561513c579192915b61076961511783600160601b8787036001600160a01b0316613333565b808201828110156107e557600080fd5b806001600160a01b0381168114610cdb57600080fd5b806001600160801b0381168114610cdb57600080fd5b6040518060a0016040528060008152602001600081526020016000815260200160008152602001600081525090565b6040518060600160405280600060020b815260200160008152602001600081525090565b6040805160e081018252600080825260208201819052918101829052606081018290526080810182905260a0810182905260c081019190915290565b60405180610120016040528060006001600160801b03168152602001600060020b8152602001600060020b81526020016000815260200160008152602001600081526020016000815260200160008152602001600081525090565b604051806080016040528060008152602001600081526020016000815260200160006001600160801b031681525090565b6040518060600160405280600081526020016000815260200160006001600160801b031681525090565b60405180606001604052806000815260200160008152602001600081525090565b6040805160a08101825260008082526020820181905291810182905260608101829052608081019190915290565b604051806040016040528060008152602001600081525090565b8035610cdb81615e30565b60008083601f84011261535f578182fd5b5081356001600160401b03811115615375578182fd5b602083019150836020808302850101111561404b57600080fd5b8035610cdb81615e45565b8051610cdb81615e45565b6000604082840312156153b6578081fd5b604051604081018181106001600160401b03821117156153d257fe5b604052823581526020928301359281019290925250919050565b805161ffff81168114610cdb57600080fd5b8035610cdb81615e77565b805160ff81168114610cdb57600080fd5b60006020828403121561542b578081fd5b8135610aac81615e30565b600060208284031215615447578081fd5b8151610aac81615e30565b60008060408385031215615464578081fd5b823561546f81615e30565b9150602083013561547f81615e30565b809150509250929050565b6000806000806060858703121561549f578182fd5b84356154aa81615e30565b935060208501356154ba81615e30565b925060408501356001600160401b038111156154d4578283fd5b6154e08782880161534e565b95989497509550505050565b600080600060608486031215615500578081fd5b833561550b81615e30565b9250602084013561551b81615e30565b9150604084013561552b81615e45565b809150509250925092565b6000806000806080858703121561554b578182fd5b843561555681615e30565b9350602085013561556681615e30565b9250604085013561557681615e53565b9150606085013561558681615e53565b939692955090935050565b6000806000608084860312156155a5578081fd5b83356155b081615e30565b925060208401356155c081615e30565b91506155cf85604086016153a5565b90509250925092565b6000806000604084860312156155ec578081fd5b83356155f781615e30565b925060208401356001600160401b03811115615611578182fd5b61561d8682870161534e565b9497909650939450505050565b60006020828403121561563b578081fd5b5035919050565b600080600060608486031215615656578081fd5b505081359360208301359350604090920135919050565b60006020828403121561567e578081fd5b8135610aac81615e53565b60006020828403121561569a578081fd5b8151610aac81615e53565b600061010082840312156156b7578081fd5b50919050565b6000604082840312156156ce578081fd5b610aac83836153a5565b6000608082840312156156e9578081fd5b604051608081018181106001600160401b038211171561570557fe5b604052825161571381615e30565b8152602083015161572381615e77565b6020820152604083015161573681615e77565b6040820152606083015161574981615e77565b60608201529392505050565b600060a082840312156156b7578081fd5b60006101208284031215615778578081fd5b60405161010081018181106001600160401b038211171561579557fe5b6040526157a183615343565b81526157af6020840161538f565b60208201526157c06040840161538f565b6040820152606083013560608201526157db60808401615343565b60808201526157ec60a084016153fe565b60a08201526157fd60c084016153fe565b60c082015261580f8460e085016153a5565b60e08201529392505050565b60006020828403121561582c578081fd5b8135610aac81615e62565b600060208284031215615848578081fd5b8151610aac81615e62565b600080600080600080600080610100898b03121561586f578586fd5b885161587a81615e62565b80985050602089015180600f0b8114615891578687fd5b80975050604089015195506060890151945060808901518060060b81146158b6578485fd5b60a08a01519094506158c781615e30565b60c08a015190935063ffffffff811681146158e0578283fd5b91506158ee60e08a0161539a565b90509295985092959890939650565b6000806040838503121561590f578182fd5b825161591a81615e62565b602084015190925061547f81615e62565b600080600080600080600060e0888a031215615945578081fd5b875161595081615e30565b602089015190975061596181615e53565b955061596f604089016153ec565b945061597d606089016153ec565b935061598b608089016153ec565b925061599960a08901615409565b915060c08801516159a981615e45565b8091505092959891949750929550565b6000602082840312156159ca578081fd5b5051919050565b600080604083850312156159e3578182fd5b505080516020909101519092909150565b60008060008060608587031215615a09578182fd5b843593506020850135925060408501356001600160401b0380821115615a2d578384fd5b818701915087601f830112615a40578384fd5b813581811115615a4e578485fd5b886020828501011115615a5f578485fd5b95989497505060200194505050565b600060208284031215615a7f578081fd5b610aac82615409565b60020b9052565b6001600160a01b0391909116815260200190565b600060018060a01b038716825260208660020b818401528560020b604084015260018060801b038516606084015260a0608084015283518060a0850152825b81811015615afe5785810183015185820160c001528201615ae2565b81811115615b0f578360c083870101525b50601f01601f19169290920160c001979650505050505050565b6001600160a01b03959095168552600293840b60208601529190920b60408401526001600160801b03918216606084015216608082015260a00190565b6020808252825182820181905260009190848201906040850190845b81811015615b9e57835183529284019291840191600101615b82565b50909695505050505050565b901515815260200190565b60019190910b815260200190565b60029190910b815260200190565b600293840b81529190920b60208201526001600160801b03909116604082015260600190565b90815260200190565b918252602082015260400190565b6020808252600790820152660869088be9e86960cb1b604082015260600190565b60208082526006908201526509e84be9e8ab60d31b604082015260600190565b6020808252600790820152662aa1a12fa321ab60c91b604082015260600190565b6020808252601c908201527f506572704d6174683a20696e76657273696f6e206f766572666c6f7700000000604082015260600190565b6020808252600690820152654f425f4f4e4560d01b604082015260600190565b8151815260208083015190820152604080830151908201526060918201516001600160801b03169181019190915260800190565b81516001600160801b0316815260208083015160020b90820152604080830151610120830191615d2d90840182615a88565b50606083015160608301526080830151608083015260a083015160a083015260c083015160c083015260e083015160e083015261010080840151818401525092915050565b81516001600160a01b039081168252602092830151169181019190915260400190565b600060a082019050825182526020830151602083015260408301516040830152606083015160608301526080830151608083015292915050565b815160020b8152602080830151908201526040918201519181019190915260600190565b60008582528460208301526060604083015282606083015282846080840137818301608090810191909152601f909201601f191601019392505050565b6001600160a01b03811681146139a657600080fd5b80151581146139a657600080fd5b8060020b81146139a657600080fd5b6001600160801b03811681146139a657600080fd5b62ffffff811681146139a657600080fdfe53616665436173743a2076616c756520646f65736e27742066697420696e2031323820626974735369676e6564536166654d6174683a206164646974696f6e206f766572666c6f77496e697469616c697a61626c653a20636f6e747261637420697320616c726561647920696e697469616c697a65645369676e6564536166654d6174683a206469766973696f6e206f766572666c6f778be0079c531659141344cd1fd0a4f28419497f9722a3daafe3b4186f6b6457e05369676e6564536166654d6174683a206d756c7469706c69636174696f6e206f766572666c6f7753616665436173743a2076616c756520646f65736e27742066697420696e20616e20696e743235365369676e6564536166654d6174683a207375627472616374696f6e206f766572666c6f77a2646970667358221220636ac96ca46befa67c5aa6a7a399758ec71f5e38474e4be8b45b3c873bf9a4fd64736f6c63430007060033",
    "devdoc": {
        "kind": "dev",
        "methods": {
            "candidate()": {
                "details": "Returns the candidate that can become the owner."
            },
            "getLiquidityCoefficientInFundingPayment(address,address,(int256,int256))": {
                "details": "this is the view version of updateFundingGrowthAndLiquidityCoefficientInFundingPayment()",
                "returns": {
                    "liquidityCoefficientInFundingPayment": "the funding payment of all orders/liquidity of a maker"
                }
            },
            "getTotalTokenAmountInPoolAndPendingFee(address,address,bool)": {
                "details": "the returned quote amount does not include funding payment because      the latter is counted directly toward realizedPnl.      the return value includes maker fee.      please refer to _getTotalTokenAmountInPool() docstring for specs"
            },
            "owner()": {
                "details": "Returns the address of the current owner."
            },
            "renounceOwnership()": {
                "details": "Leaves the contract without owner. It will not be possible to call `onlyOwner` functions anymore. Can only be called by the current owner. NOTE: Renouncing ownership will leave the contract without an owner, thereby removing any functionality that is only available to the owner."
            },
            "setOwner(address)": {
                "details": "Set ownership of the contract to a new account (`newOwner`). Can only be called by the current owner."
            },
            "uniswapV3MintCallback(uint256,uint256,bytes)": {
                "details": "In the implementation you must pay the pool tokens owed for the minted liquidity. The caller of this method must be checked to be a UniswapV3Pool deployed by the canonical UniswapV3Factory.",
                "params": {
                    "amount0Owed": "The amount of token0 due to the pool for the minted liquidity",
                    "amount1Owed": "The amount of token1 due to the pool for the minted liquidity",
                    "data": "Any data passed through by the caller via the IUniswapV3PoolActions#mint call"
                }
            },
            "updateFundingGrowthAndLiquidityCoefficientInFundingPayment(address,address,(int256,int256))": {
                "details": "this is the non-view version of getLiquidityCoefficientInFundingPayment()",
                "returns": {
                    "liquidityCoefficientInFundingPayment": "the funding payment of all orders/liquidity of a maker"
                }
            },
            "updateOwner()": {
                "details": "Transfers ownership of the contract to a new account (`_candidate`). Can only be called by the new owner."
            }
        },
        "version": 1
    },
    "userdoc": {
        "kind": "user",
        "methods": {
            "uniswapV3MintCallback(uint256,uint256,bytes)": {
                "notice": "Called to `msg.sender` after minting liquidity to a position from IUniswapV3Pool#mint."
            }
        },
        "version": 1
    },
    "storageLayout": {
        "storage": [
            {
                "astId": 1039,
                "contract": "contracts/OrderBook.sol:OrderBook",
                "label": "_initialized",
                "offset": 0,
                "slot": "0",
                "type": "t_bool"
            },
            {
                "astId": 1042,
                "contract": "contracts/OrderBook.sol:OrderBook",
                "label": "_initializing",
                "offset": 1,
                "slot": "0",
                "type": "t_bool"
            },
            {
                "astId": 2356,
                "contract": "contracts/OrderBook.sol:OrderBook",
                "label": "__gap",
                "offset": 0,
                "slot": "1",
                "type": "t_array(t_uint256)50_storage"
            },
            {
                "astId": 20497,
                "contract": "contracts/OrderBook.sol:OrderBook",
                "label": "_owner",
                "offset": 0,
                "slot": "51",
                "type": "t_address"
            },
            {
                "astId": 20499,
                "contract": "contracts/OrderBook.sol:OrderBook",
                "label": "_candidate",
                "offset": 0,
                "slot": "52",
                "type": "t_address"
            },
            {
                "astId": 20503,
                "contract": "contracts/OrderBook.sol:OrderBook",
                "label": "__gap",
                "offset": 0,
                "slot": "53",
                "type": "t_array(t_uint256)50_storage"
            },
            {
                "astId": 20368,
                "contract": "contracts/OrderBook.sol:OrderBook",
                "label": "_clearingHouse",
                "offset": 0,
                "slot": "103",
                "type": "t_address"
            },
            {
                "astId": 20372,
                "contract": "contracts/OrderBook.sol:OrderBook",
                "label": "__gap",
                "offset": 0,
                "slot": "104",
                "type": "t_array(t_uint256)50_storage"
            },
            {
                "astId": 20687,
                "contract": "contracts/OrderBook.sol:OrderBook",
                "label": "_marketRegistry",
                "offset": 0,
                "slot": "154",
                "type": "t_address"
            },
            {
                "astId": 20691,
                "contract": "contracts/OrderBook.sol:OrderBook",
                "label": "__gap",
                "offset": 0,
                "slot": "155",
                "type": "t_array(t_uint256)50_storage"
            },
            {
                "astId": 24786,
                "contract": "contracts/OrderBook.sol:OrderBook",
                "label": "_exchange",
                "offset": 0,
                "slot": "205",
                "type": "t_address"
            },
            {
                "astId": 24793,
                "contract": "contracts/OrderBook.sol:OrderBook",
                "label": "_openOrderIdsMap",
                "offset": 0,
                "slot": "206",
                "type": "t_mapping(t_address,t_mapping(t_address,t_array(t_bytes32)dyn_storage))"
            },
            {
                "astId": 24797,
                "contract": "contracts/OrderBook.sol:OrderBook",
                "label": "_openOrderMap",
                "offset": 0,
                "slot": "207",
                "type": "t_mapping(t_bytes32,t_struct(Info)22342_storage)"
            },
            {
                "astId": 24803,
                "contract": "contracts/OrderBook.sol:OrderBook",
                "label": "_growthOutsideTickMap",
                "offset": 0,
                "slot": "208",
                "type": "t_mapping(t_address,t_mapping(t_int24,t_struct(GrowthInfo)23475_storage))"
            },
            {
                "astId": 24807,
                "contract": "contracts/OrderBook.sol:OrderBook",
                "label": "_feeGrowthGlobalX128Map",
                "offset": 0,
                "slot": "209",
                "type": "t_mapping(t_address,t_uint256)"
            }
        ],
        "types": {
            "t_address": {
                "encoding": "inplace",
                "label": "address",
                "numberOfBytes": "20"
            },
            "t_array(t_bytes32)dyn_storage": {
                "base": "t_bytes32",
                "encoding": "dynamic_array",
                "label": "bytes32[]",
                "numberOfBytes": "32"
            },
            "t_array(t_uint256)50_storage": {
                "base": "t_uint256",
                "encoding": "inplace",
                "label": "uint256[50]",
                "numberOfBytes": "1600"
            },
            "t_bool": {
                "encoding": "inplace",
                "label": "bool",
                "numberOfBytes": "1"
            },
            "t_bytes32": {
                "encoding": "inplace",
                "label": "bytes32",
                "numberOfBytes": "32"
            },
            "t_int24": {
                "encoding": "inplace",
                "label": "int24",
                "numberOfBytes": "3"
            },
            "t_int256": {
                "encoding": "inplace",
                "label": "int256",
                "numberOfBytes": "32"
            },
            "t_mapping(t_address,t_array(t_bytes32)dyn_storage)": {
                "encoding": "mapping",
                "key": "t_address",
                "label": "mapping(address => bytes32[])",
                "numberOfBytes": "32",
                "value": "t_array(t_bytes32)dyn_storage"
            },
            "t_mapping(t_address,t_mapping(t_address,t_array(t_bytes32)dyn_storage))": {
                "encoding": "mapping",
                "key": "t_address",
                "label": "mapping(address => mapping(address => bytes32[]))",
                "numberOfBytes": "32",
                "value": "t_mapping(t_address,t_array(t_bytes32)dyn_storage)"
            },
            "t_mapping(t_address,t_mapping(t_int24,t_struct(GrowthInfo)23475_storage))": {
                "encoding": "mapping",
                "key": "t_address",
                "label": "mapping(address => mapping(int24 => struct Tick.GrowthInfo))",
                "numberOfBytes": "32",
                "value": "t_mapping(t_int24,t_struct(GrowthInfo)23475_storage)"
            },
            "t_mapping(t_address,t_uint256)": {
                "encoding": "mapping",
                "key": "t_address",
                "label": "mapping(address => uint256)",
                "numberOfBytes": "32",
                "value": "t_uint256"
            },
            "t_mapping(t_bytes32,t_struct(Info)22342_storage)": {
                "encoding": "mapping",
                "key": "t_bytes32",
                "label": "mapping(bytes32 => struct OpenOrder.Info)",
                "numberOfBytes": "32",
                "value": "t_struct(Info)22342_storage"
            },
            "t_mapping(t_int24,t_struct(GrowthInfo)23475_storage)": {
                "encoding": "mapping",
                "key": "t_int24",
                "label": "mapping(int24 => struct Tick.GrowthInfo)",
                "numberOfBytes": "32",
                "value": "t_struct(GrowthInfo)23475_storage"
            },
            "t_struct(GrowthInfo)23475_storage": {
                "encoding": "inplace",
                "label": "struct Tick.GrowthInfo",
                "members": [
                    {
                        "astId": 23470,
                        "contract": "contracts/OrderBook.sol:OrderBook",
                        "label": "feeX128",
                        "offset": 0,
                        "slot": "0",
                        "type": "t_uint256"
                    },
                    {
                        "astId": 23472,
                        "contract": "contracts/OrderBook.sol:OrderBook",
                        "label": "twPremiumX96",
                        "offset": 0,
                        "slot": "1",
                        "type": "t_int256"
                    },
                    {
                        "astId": 23474,
                        "contract": "contracts/OrderBook.sol:OrderBook",
                        "label": "twPremiumDivBySqrtPriceX96",
                        "offset": 0,
                        "slot": "2",
                        "type": "t_int256"
                    }
                ],
                "numberOfBytes": "96"
            },
            "t_struct(Info)22342_storage": {
                "encoding": "inplace",
                "label": "struct OpenOrder.Info",
                "members": [
                    {
                        "astId": 22325,
                        "contract": "contracts/OrderBook.sol:OrderBook",
                        "label": "liquidity",
                        "offset": 0,
                        "slot": "0",
                        "type": "t_uint128"
                    },
                    {
                        "astId": 22327,
                        "contract": "contracts/OrderBook.sol:OrderBook",
                        "label": "lowerTick",
                        "offset": 16,
                        "slot": "0",
                        "type": "t_int24"
                    },
                    {
                        "astId": 22329,
                        "contract": "contracts/OrderBook.sol:OrderBook",
                        "label": "upperTick",
                        "offset": 19,
                        "slot": "0",
                        "type": "t_int24"
                    },
                    {
                        "astId": 22331,
                        "contract": "contracts/OrderBook.sol:OrderBook",
                        "label": "lastFeeGrowthInsideX128",
                        "offset": 0,
                        "slot": "1",
                        "type": "t_uint256"
                    },
                    {
                        "astId": 22333,
                        "contract": "contracts/OrderBook.sol:OrderBook",
                        "label": "lastTwPremiumGrowthInsideX96",
                        "offset": 0,
                        "slot": "2",
                        "type": "t_int256"
                    },
                    {
                        "astId": 22335,
                        "contract": "contracts/OrderBook.sol:OrderBook",
                        "label": "lastTwPremiumGrowthBelowX96",
                        "offset": 0,
                        "slot": "3",
                        "type": "t_int256"
                    },
                    {
                        "astId": 22337,
                        "contract": "contracts/OrderBook.sol:OrderBook",
                        "label": "lastTwPremiumDivBySqrtPriceGrowthInsideX96",
                        "offset": 0,
                        "slot": "4",
                        "type": "t_int256"
                    },
                    {
                        "astId": 22339,
                        "contract": "contracts/OrderBook.sol:OrderBook",
                        "label": "baseDebt",
                        "offset": 0,
                        "slot": "5",
                        "type": "t_uint256"
                    },
                    {
                        "astId": 22341,
                        "contract": "contracts/OrderBook.sol:OrderBook",
                        "label": "quoteDebt",
                        "offset": 0,
                        "slot": "6",
                        "type": "t_uint256"
                    }
                ],
                "numberOfBytes": "224"
            },
            "t_uint128": {
                "encoding": "inplace",
                "label": "uint128",
                "numberOfBytes": "16"
            },
            "t_uint256": {
                "encoding": "inplace",
                "label": "uint256",
                "numberOfBytes": "32"
            }
        }
    }
}