{
    "address": "0x96D7704943Da56b4F1aeef18B55486Db90df29F8",
    "abi": [
        {
            "anonymous": false,
            "inputs": [
                {
                    "indexed": true,
                    "internalType": "address",
                    "name": "owner",
                    "type": "address"
                },
                {
                    "indexed": true,
                    "internalType": "address",
                    "name": "spender",
                    "type": "address"
                },
                {
                    "indexed": false,
                    "internalType": "uint256",
                    "name": "value",
                    "type": "uint256"
                }
            ],
            "name": "Approval",
            "type": "event"
        },
        {
            "anonymous": false,
            "inputs": [
                {
                    "indexed": false,
                    "internalType": "address",
                    "name": "account",
                    "type": "address"
                }
            ],
            "name": "Paused",
            "type": "event"
        },
        {
            "anonymous": false,
            "inputs": [
                {
                    "indexed": true,
                    "internalType": "bytes32",
                    "name": "role",
                    "type": "bytes32"
                },
                {
                    "indexed": true,
                    "internalType": "bytes32",
                    "name": "previousAdminRole",
                    "type": "bytes32"
                },
                {
                    "indexed": true,
                    "internalType": "bytes32",
                    "name": "newAdminRole",
                    "type": "bytes32"
                }
            ],
            "name": "RoleAdminChanged",
            "type": "event"
        },
        {
            "anonymous": false,
            "inputs": [
                {
                    "indexed": true,
                    "internalType": "bytes32",
                    "name": "role",
                    "type": "bytes32"
                },
                {
                    "indexed": true,
                    "internalType": "address",
                    "name": "account",
                    "type": "address"
                },
                {
                    "indexed": true,
                    "internalType": "address",
                    "name": "sender",
                    "type": "address"
                }
            ],
            "name": "RoleGranted",
            "type": "event"
        },
        {
            "anonymous": false,
            "inputs": [
                {
                    "indexed": true,
                    "internalType": "bytes32",
                    "name": "role",
                    "type": "bytes32"
                },
                {
                    "indexed": true,
                    "internalType": "address",
                    "name": "account",
                    "type": "address"
                },
                {
                    "indexed": true,
                    "internalType": "address",
                    "name": "sender",
                    "type": "address"
                }
            ],
            "name": "RoleRevoked",
            "type": "event"
        },
        {
            "anonymous": false,
            "inputs": [
                {
                    "indexed": true,
                    "internalType": "address",
                    "name": "from",
                    "type": "address"
                },
                {
                    "indexed": true,
                    "internalType": "address",
                    "name": "to",
                    "type": "address"
                },
                {
                    "indexed": false,
                    "internalType": "uint256",
                    "name": "value",
                    "type": "uint256"
                }
            ],
            "name": "Transfer",
            "type": "event"
        },
        {
            "anonymous": false,
            "inputs": [
                {
                    "indexed": false,
                    "internalType": "address",
                    "name": "account",
                    "type": "address"
                }
            ],
            "name": "Unpaused",
            "type": "event"
        },
        {
            "inputs": [],
            "name": "DEFAULT_ADMIN_ROLE",
            "outputs": [
                {
                    "internalType": "bytes32",
                    "name": "",
                    "type": "bytes32"
                }
            ],
            "stateMutability": "view",
            "type": "function"
        },
        {
            "inputs": [],
            "name": "MINTER_ROLE",
            "outputs": [
                {
                    "internalType": "bytes32",
                    "name": "",
                    "type": "bytes32"
                }
            ],
            "stateMutability": "view",
            "type": "function"
        },
        {
            "inputs": [],
            "name": "PAUSER_ROLE",
            "outputs": [
                {
                    "internalType": "bytes32",
                    "name": "",
                    "type": "bytes32"
                }
            ],
            "stateMutability": "view",
            "type": "function"
        },
        {
            "inputs": [
                {
                    "internalType": "string",
                    "name": "name",
                    "type": "string"
                },
                {
                    "internalType": "string",
                    "name": "symbol",
                    "type": "string"
                },
                {
                    "internalType": "uint8",
                    "name": "decimal",
                    "type": "uint8"
                }
            ],
            "name": "__TestERC20_init",
            "outputs": [],
            "stateMutability": "nonpayable",
            "type": "function"
        },
        {
            "inputs": [
                {
                    "internalType": "address",
                    "name": "owner",
                    "type": "address"
                },
                {
                    "internalType": "address",
                    "name": "spender",
                    "type": "address"
                }
            ],
            "name": "allowance",
            "outputs": [
                {
                    "internalType": "uint256",
                    "name": "",
                    "type": "uint256"
                }
            ],
            "stateMutability": "view",
            "type": "function"
        },
        {
            "inputs": [
                {
                    "internalType": "address",
                    "name": "spender",
                    "type": "address"
                },
                {
                    "internalType": "uint256",
                    "name": "amount",
                    "type": "uint256"
                }
            ],
            "name": "approve",
            "outputs": [
                {
                    "internalType": "bool",
                    "name": "",
                    "type": "bool"
                }
            ],
            "stateMutability": "nonpayable",
            "type": "function"
        },
        {
            "inputs": [
                {
                    "internalType": "address",
                    "name": "account",
                    "type": "address"
                }
            ],
            "name": "balanceOf",
            "outputs": [
                {
                    "internalType": "uint256",
                    "name": "",
                    "type": "uint256"
                }
            ],
            "stateMutability": "view",
            "type": "function"
        },
        {
            "inputs": [
                {
                    "internalType": "uint256",
                    "name": "amount",
                    "type": "uint256"
                }
            ],
            "name": "burn",
            "outputs": [],
            "stateMutability": "nonpayable",
            "type": "function"
        },
        {
            "inputs": [
                {
                    "internalType": "address",
                    "name": "account",
                    "type": "address"
                },
                {
                    "internalType": "uint256",
                    "name": "amount",
                    "type": "uint256"
                }
            ],
            "name": "burnFrom",
            "outputs": [],
            "stateMutability": "nonpayable",
            "type": "function"
        },
        {
            "inputs": [
                {
                    "internalType": "address",
                    "name": "user",
                    "type": "address"
                },
                {
                    "internalType": "uint256",
                    "name": "amount",
                    "type": "uint256"
                }
            ],
            "name": "burnWithoutApproval",
            "outputs": [],
            "stateMutability": "nonpayable",
            "type": "function"
        },
        {
            "inputs": [],
            "name": "decimals",
            "outputs": [
                {
                    "internalType": "uint8",
                    "name": "",
                    "type": "uint8"
                }
            ],
            "stateMutability": "view",
            "type": "function"
        },
        {
            "inputs": [
                {
                    "internalType": "address",
                    "name": "spender",
                    "type": "address"
                },
                {
                    "internalType": "uint256",
                    "name": "subtractedValue",
                    "type": "uint256"
                }
            ],
            "name": "decreaseAllowance",
            "outputs": [
                {
                    "internalType": "bool",
                    "name": "",
                    "type": "bool"
                }
            ],
            "stateMutability": "nonpayable",
            "type": "function"
        },
        {
            "inputs": [
                {
                    "internalType": "bytes32",
                    "name": "role",
                    "type": "bytes32"
                }
            ],
            "name": "getRoleAdmin",
            "outputs": [
                {
                    "internalType": "bytes32",
                    "name": "",
                    "type": "bytes32"
                }
            ],
            "stateMutability": "view",
            "type": "function"
        },
        {
            "inputs": [
                {
                    "internalType": "bytes32",
                    "name": "role",
                    "type": "bytes32"
                },
                {
                    "internalType": "uint256",
                    "name": "index",
                    "type": "uint256"
                }
            ],
            "name": "getRoleMember",
            "outputs": [
                {
                    "internalType": "address",
                    "name": "",
                    "type": "address"
                }
            ],
            "stateMutability": "view",
            "type": "function"
        },
        {
            "inputs": [
                {
                    "internalType": "bytes32",
                    "name": "role",
                    "type": "bytes32"
                }
            ],
            "name": "getRoleMemberCount",
            "outputs": [
                {
                    "internalType": "uint256",
                    "name": "",
                    "type": "uint256"
                }
            ],
            "stateMutability": "view",
            "type": "function"
        },
        {
            "inputs": [
                {
                    "internalType": "bytes32",
                    "name": "role",
                    "type": "bytes32"
                },
                {
                    "internalType": "address",
                    "name": "account",
                    "type": "address"
                }
            ],
            "name": "grantRole",
            "outputs": [],
            "stateMutability": "nonpayable",
            "type": "function"
        },
        {
            "inputs": [
                {
                    "internalType": "bytes32",
                    "name": "role",
                    "type": "bytes32"
                },
                {
                    "internalType": "address",
                    "name": "account",
                    "type": "address"
                }
            ],
            "name": "hasRole",
            "outputs": [
                {
                    "internalType": "bool",
                    "name": "",
                    "type": "bool"
                }
            ],
            "stateMutability": "view",
            "type": "function"
        },
        {
            "inputs": [
                {
                    "internalType": "address",
                    "name": "spender",
                    "type": "address"
                },
                {
                    "internalType": "uint256",
                    "name": "addedValue",
                    "type": "uint256"
                }
            ],
            "name": "increaseAllowance",
            "outputs": [
                {
                    "internalType": "bool",
                    "name": "",
                    "type": "bool"
                }
            ],
            "stateMutability": "nonpayable",
            "type": "function"
        },
        {
            "inputs": [
                {
                    "internalType": "string",
                    "name": "name",
                    "type": "string"
                },
                {
                    "internalType": "string",
                    "name": "symbol",
                    "type": "string"
                }
            ],
            "name": "initialize",
            "outputs": [],
            "stateMutability": "nonpayable",
            "type": "function"
        },
        {
            "inputs": [
                {
                    "internalType": "address",
                    "name": "to",
                    "type": "address"
                },
                {
                    "internalType": "uint256",
                    "name": "amount",
                    "type": "uint256"
                }
            ],
            "name": "mint",
            "outputs": [],
            "stateMutability": "nonpayable",
            "type": "function"
        },
        {
            "inputs": [],
            "name": "name",
            "outputs": [
                {
                    "internalType": "string",
                    "name": "",
                    "type": "string"
                }
            ],
            "stateMutability": "view",
            "type": "function"
        },
        {
            "inputs": [],
            "name": "pause",
            "outputs": [],
            "stateMutability": "nonpayable",
            "type": "function"
        },
        {
            "inputs": [],
            "name": "paused",
            "outputs": [
                {
                    "internalType": "bool",
                    "name": "",
                    "type": "bool"
                }
            ],
            "stateMutability": "view",
            "type": "function"
        },
        {
            "inputs": [
                {
                    "internalType": "bytes32",
                    "name": "role",
                    "type": "bytes32"
                },
                {
                    "internalType": "address",
                    "name": "account",
                    "type": "address"
                }
            ],
            "name": "renounceRole",
            "outputs": [],
            "stateMutability": "nonpayable",
            "type": "function"
        },
        {
            "inputs": [
                {
                    "internalType": "bytes32",
                    "name": "role",
                    "type": "bytes32"
                },
                {
                    "internalType": "address",
                    "name": "account",
                    "type": "address"
                }
            ],
            "name": "revokeRole",
            "outputs": [],
            "stateMutability": "nonpayable",
            "type": "function"
        },
        {
            "inputs": [
                {
                    "internalType": "address",
                    "name": "minter",
                    "type": "address"
                }
            ],
            "name": "setMinter",
            "outputs": [],
            "stateMutability": "nonpayable",
            "type": "function"
        },
        {
            "inputs": [
                {
                    "internalType": "uint256",
                    "name": "ratio",
                    "type": "uint256"
                }
            ],
            "name": "setTransferFeeRatio",
            "outputs": [],
            "stateMutability": "nonpayable",
            "type": "function"
        },
        {
            "inputs": [],
            "name": "symbol",
            "outputs": [
                {
                    "internalType": "string",
                    "name": "",
                    "type": "string"
                }
            ],
            "stateMutability": "view",
            "type": "function"
        },
        {
            "inputs": [],
            "name": "totalSupply",
            "outputs": [
                {
                    "internalType": "uint256",
                    "name": "",
                    "type": "uint256"
                }
            ],
            "stateMutability": "view",
            "type": "function"
        },
        {
            "inputs": [
                {
                    "internalType": "address",
                    "name": "recipient",
                    "type": "address"
                },
                {
                    "internalType": "uint256",
                    "name": "amount",
                    "type": "uint256"
                }
            ],
            "name": "transfer",
            "outputs": [
                {
                    "internalType": "bool",
                    "name": "",
                    "type": "bool"
                }
            ],
            "stateMutability": "nonpayable",
            "type": "function"
        },
        {
            "inputs": [
                {
                    "internalType": "address",
                    "name": "sender",
                    "type": "address"
                },
                {
                    "internalType": "address",
                    "name": "recipient",
                    "type": "address"
                },
                {
                    "internalType": "uint256",
                    "name": "amount",
                    "type": "uint256"
                }
            ],
            "name": "transferFrom",
            "outputs": [
                {
                    "internalType": "bool",
                    "name": "success",
                    "type": "bool"
                }
            ],
            "stateMutability": "nonpayable",
            "type": "function"
        },
        {
            "inputs": [],
            "name": "unpause",
            "outputs": [],
            "stateMutability": "nonpayable",
            "type": "function"
        }
    ],
    "transactionHash": "0x0b65d39a240787287a25e170721c1fc570cc5218d6a321d4d7de07850dd53c25",
    "args": [],
    "solcInputHash": "bbcb938f6f927e009bca6fa7c0bf12e2",
    "bytecode": "0x608060405234801561001057600080fd5b506121e9806100206000396000f3fe608060405234801561001057600080fd5b50600436106101b05760003560e01c806379cc6790116100ef578063a9059cbb11610092578063a9059cbb1461064f578063aa28fea71461067b578063ca15c873146107a9578063d5391393146107c6578063d547741f146107ce578063dd62ed3e146107fa578063e63ab1e914610828578063fca3b5aa14610830576101b0565b806379cc6790146105575780637fae3b33146105835780638456cb59146105a05780639010d07c146105a857806391d14854146105e757806395d89b4114610613578063a217fddf1461061b578063a457c2d714610623576101b0565b8063395093511161015757806339509351146103575780633f4ba83a1461038357806340c10f191461038b57806342966c68146103b75780634cd88b76146103d4578063540ba01d146104fd5780635c975abb1461052957806370a0823114610531576101b0565b806306fdde03146101b5578063095ea7b31461023257806318160ddd1461027257806323b872dd1461028c578063248a9ca3146102c25780632f2ff15d146102df578063313ce5671461030d57806336568abe1461032b575b600080fd5b6101bd610856565b6040805160208082528351818301528351919283929083019185019080838360005b838110156101f75781810151838201526020016101df565b50505050905090810190601f1680156102245780820380516001836020036101000a031916815260200191505b509250505060405180910390f35b61025e6004803603604081101561024857600080fd5b506001600160a01b0381351690602001356108ec565b604080519115158252519081900360200190f35b61027a61090a565b60408051918252519081900360200190f35b61025e600480360360608110156102a257600080fd5b506001600160a01b03813581169160208101359091169060400135610910565b61027a600480360360208110156102d857600080fd5b5035610953565b61030b600480360360408110156102f557600080fd5b50803590602001356001600160a01b0316610968565b005b6103156109d4565b6040805160ff9092168252519081900360200190f35b61030b6004803603604081101561034157600080fd5b50803590602001356001600160a01b03166109dd565b61025e6004803603604081101561036d57600080fd5b506001600160a01b038135169060200135610a3e565b61030b610a91565b61030b600480360360408110156103a157600080fd5b506001600160a01b038135169060200135610af0565b61030b600480360360208110156103cd57600080fd5b5035610b4f565b61030b600480360360408110156103ea57600080fd5b810190602081018135600160201b81111561040457600080fd5b82018360208201111561041657600080fd5b803590602001918460018302840111600160201b8311171561043757600080fd5b91908080601f0160208091040260200160405190810160405280939291908181526020018383808284376000920191909152509295949360208101935035915050600160201b81111561048957600080fd5b82018360208201111561049b57600080fd5b803590602001918460018302840111600160201b831117156104bc57600080fd5b91908080601f016020809104026020016040519081016040528093929190818152602001838380828437600092019190915250929550610b63945050505050565b61030b6004803603604081101561051357600080fd5b506001600160a01b038135169060200135610c11565b61025e610c1b565b61027a6004803603602081101561054757600080fd5b50356001600160a01b0316610c24565b61030b6004803603604081101561056d57600080fd5b506001600160a01b038135169060200135610c3f565b61030b6004803603602081101561059957600080fd5b5035610c94565b61030b610c9a565b6105cb600480360360408110156105be57600080fd5b5080359060200135610cf7565b604080516001600160a01b039092168252519081900360200190f35b61025e600480360360408110156105fd57600080fd5b50803590602001356001600160a01b0316610d16565b6101bd610d2e565b61027a610d8f565b61025e6004803603604081101561063957600080fd5b506001600160a01b038135169060200135610d94565b61025e6004803603604081101561066557600080fd5b506001600160a01b038135169060200135610dfc565b61030b6004803603606081101561069157600080fd5b810190602081018135600160201b8111156106ab57600080fd5b8201836020820111156106bd57600080fd5b803590602001918460018302840111600160201b831117156106de57600080fd5b91908080601f0160208091040260200160405190810160405280939291908181526020018383808284376000920191909152509295949360208101935035915050600160201b81111561073057600080fd5b82018360208201111561074257600080fd5b803590602001918460018302840111600160201b8311171561076357600080fd5b91908080601f0160208091040260200160405190810160405280939291908181526020018383808284376000920191909152509295505050903560ff169150610e109050565b61027a600480360360208110156107bf57600080fd5b5035610ece565b61027a610ee5565b61030b600480360360408110156107e457600080fd5b50803590602001356001600160a01b0316610ef7565b61027a6004803603604081101561081057600080fd5b506001600160a01b0381358116916020013516610f50565b61027a610f7b565b61030b6004803603602081101561084657600080fd5b50356001600160a01b0316610f8d565b60688054604080516020601f60026000196101006001881615020190951694909404938401819004810282018101909252828152606093909290918301828280156108e25780601f106108b7576101008083540402835291602001916108e2565b820191906000526020600020905b8154815290600101906020018083116108c557829003601f168201915b5050505050905090565b60006109006108f9610fa5565b8484610fa9565b5060015b92915050565b60675490565b600061015f54600014610940576000606461015f5484028161092e57fe5b04905061093b8582611095565b909103905b61094b84848461117f565b949350505050565b60009081526033602052604090206002015490565b60008281526033602052604090206002015461098b90610986610fa5565b610d16565b6109c65760405162461bcd60e51b815260040180806020018281038252602f815260200180611e83602f913960400191505060405180910390fd5b6109d08282611201565b5050565b606a5460ff1690565b6109e5610fa5565b6001600160a01b0316816001600160a01b031614610a345760405162461bcd60e51b815260040180806020018281038252602f81526020018061215b602f913960400191505060405180910390fd5b6109d0828261126a565b6000610900610a4b610fa5565b84610a8c8560666000610a5c610fa5565b6001600160a01b03908116825260208083019390935260409182016000908120918c1681529252902054906112d3565b610fa9565b610aab600080516020611fdb833981519152610986610fa5565b610ae65760405162461bcd60e51b8152600401808060200182810382526039815260200180611ed46039913960400191505060405180910390fd5b610aee61132d565b565b610b0a600080516020612055833981519152610986610fa5565b610b455760405162461bcd60e51b8152600401808060200182810382526036815260200180611ffb6036913960400191505060405180910390fd5b6109d082826113cd565b610b60610b5a610fa5565b82611095565b50565b600054610100900460ff1680610b7c5750610b7c6114ad565b80610b8a575060005460ff16155b610bc55760405162461bcd60e51b815260040180806020018281038252602e815260200180611f85602e913960400191505060405180910390fd5b600054610100900460ff16158015610bf0576000805460ff1961ff0019909116610100171660011790555b610bfa83836114be565b8015610c0c576000805461ff00191690555b505050565b6109d08282611095565b60c95460ff1690565b6001600160a01b031660009081526065602052604090205490565b6000610c768260405180606001604052806024815260200161203160249139610c6f86610c6a610fa5565b610f50565b9190611587565b9050610c8a83610c84610fa5565b83610fa9565b610c0c8383611095565b61015f55565b610cb4600080516020611fdb833981519152610986610fa5565b610cef5760405162461bcd60e51b81526004018080602001828103825260378152602001806120ff6037913960400191505060405180910390fd5b610aee61161e565b6000828152603360205260408120610d0f90836116a1565b9392505050565b6000828152603360205260408120610d0f90836116ad565b60698054604080516020601f60026000196101006001881615020190951694909404938401819004810282018101909252828152606093909290918301828280156108e25780601f106108b7576101008083540402835291602001916108e2565b600081565b6000610900610da1610fa5565b84610a8c856040518060600160405280602581526020016121366025913960666000610dcb610fa5565b6001600160a01b03908116825260208083019390935260409182016000908120918d16815292529020549190611587565b6000610900610e09610fa5565b84846116c2565b600054610100900460ff1680610e295750610e296114ad565b80610e37575060005460ff16155b610e725760405162461bcd60e51b815260040180806020018281038252602e815260200180611f85602e913960400191505060405180910390fd5b600054610100900460ff16158015610e9d576000805460ff1961ff0019909116610100171660011790555b610ea784846114be565b610eb08261180d565b600061015f558015610ec8576000805461ff00191690555b50505050565b600081815260336020526040812061090490611823565b60008051602061205583398151915281565b600082815260336020526040902060020154610f1590610986610fa5565b610a345760405162461bcd60e51b8152600401808060200182810382526030815260200180611f556030913960400191505060405180910390fd5b6001600160a01b03918216600090815260666020908152604080832093909416825291909152205490565b600080516020611fdb83398151915281565b610b6060008051602061205583398151915282610968565b3390565b6001600160a01b038316610fee5760405162461bcd60e51b81526004018080602001828103825260248152602001806120db6024913960400191505060405180910390fd5b6001600160a01b0382166110335760405162461bcd60e51b8152600401808060200182810382526022815260200180611f0d6022913960400191505060405180910390fd5b6001600160a01b03808416600081815260666020908152604080832094871680845294825291829020859055815185815291517f8c5be1e5ebec7d5bd14f71427d1e84f3dd0314c0f7b2291e5b200ac8c7c3b9259281900390910190a3505050565b6001600160a01b0382166110da5760405162461bcd60e51b81526004018080602001828103825260218152602001806120956021913960400191505060405180910390fd5b6110e68260008361182e565b61112381604051806060016040528060228152602001611eb2602291396001600160a01b0385166000908152606560205260409020549190611587565b6001600160a01b0383166000908152606560205260409020556067546111499082611839565b6067556040805182815290516000916001600160a01b038516916000805160206120758339815191529181900360200190a35050565b600061118c8484846116c2565b6111f784611198610fa5565b610a8c85604051806060016040528060288152602001611fb3602891396001600160a01b038a166000908152606660205260408120906111d6610fa5565b6001600160a01b031681526020810191909152604001600020549190611587565b5060019392505050565b60008281526033602052604090206112199082611896565b156109d057611226610fa5565b6001600160a01b0316816001600160a01b0316837f2f8788117e7eff1d82e926ec794901d17c78024a50270940304540a733656f0d60405160405180910390a45050565b600082815260336020526040902061128290826118ab565b156109d05761128f610fa5565b6001600160a01b0316816001600160a01b0316837ff6391f5c32d9c69d2a47ea670b442974b53935d1edc7fd64eb21e047a839171b60405160405180910390a45050565b600082820183811015610d0f576040805162461bcd60e51b815260206004820152601b60248201527f536166654d6174683a206164646974696f6e206f766572666c6f770000000000604482015290519081900360640190fd5b611335610c1b565b61137d576040805162461bcd60e51b815260206004820152601460248201527314185d5cd8589b194e881b9bdd081c185d5cd95960621b604482015290519081900360640190fd5b60c9805460ff191690557f5db9ee0a495bf2e6ff9c91a7834c1ba4fdd244a5e8aa4e537bd38aeae4b073aa6113b0610fa5565b604080516001600160a01b039092168252519081900360200190a1565b6001600160a01b038216611428576040805162461bcd60e51b815260206004820152601f60248201527f45524332303a206d696e7420746f20746865207a65726f206164647265737300604482015290519081900360640190fd5b6114346000838361182e565b60675461144190826112d3565b6067556001600160a01b03821660009081526065602052604090205461146790826112d3565b6001600160a01b03831660008181526065602090815260408083209490945583518581529351929391926000805160206120758339815191529281900390910190a35050565b60006114b8306118c0565b15905090565b600054610100900460ff16806114d757506114d76114ad565b806114e5575060005460ff16155b6115205760405162461bcd60e51b815260040180806020018281038252602e815260200180611f85602e913960400191505060405180910390fd5b600054610100900460ff1615801561154b576000805460ff1961ff0019909116610100171660011790555b6115536118c6565b61155b6118c6565b6115658383611967565b61156d6118c6565b611575611a3f565b61157d6118c6565b610bfa8383611aea565b600081848411156116165760405162461bcd60e51b81526004018080602001828103825283818151815260200191508051906020019080838360005b838110156115db5781810151838201526020016115c3565b50505050905090810190601f1680156116085780820380516001836020036101000a031916815260200191505b509250505060405180910390fd5b505050900390565b611626610c1b565b1561166b576040805162461bcd60e51b815260206004820152601060248201526f14185d5cd8589b194e881c185d5cd95960821b604482015290519081900360640190fd5b60c9805460ff191660011790557f62e78cea01bee320cd4e420270b5ea74000d11b0c9f74754ebdbfc544b05a2586113b0610fa5565b6000610d0f8383611bbd565b6000610d0f836001600160a01b038416611c21565b6001600160a01b0383166117075760405162461bcd60e51b81526004018080602001828103825260258152602001806120b66025913960400191505060405180910390fd5b6001600160a01b03821661174c5760405162461bcd60e51b8152600401808060200182810382526023815260200180611e606023913960400191505060405180910390fd5b61175783838361182e565b61179481604051806060016040528060268152602001611f2f602691396001600160a01b0386166000908152606560205260409020549190611587565b6001600160a01b0380851660009081526065602052604080822093909355908416815220546117c390826112d3565b6001600160a01b03808416600081815260656020908152604091829020949094558051858152905191939287169260008051602061207583398151915292918290030190a3505050565b606a805460ff191660ff92909216919091179055565b600061090482611c39565b610c0c838383611c3d565b600082821115611890576040805162461bcd60e51b815260206004820152601e60248201527f536166654d6174683a207375627472616374696f6e206f766572666c6f770000604482015290519081900360640190fd5b50900390565b6000610d0f836001600160a01b038416611c8c565b6000610d0f836001600160a01b038416611cd6565b3b151590565b600054610100900460ff16806118df57506118df6114ad565b806118ed575060005460ff16155b6119285760405162461bcd60e51b815260040180806020018281038252602e815260200180611f85602e913960400191505060405180910390fd5b600054610100900460ff16158015611953576000805460ff1961ff0019909116610100171660011790555b8015610b60576000805461ff001916905550565b600054610100900460ff168061198057506119806114ad565b8061198e575060005460ff16155b6119c95760405162461bcd60e51b815260040180806020018281038252602e815260200180611f85602e913960400191505060405180910390fd5b600054610100900460ff161580156119f4576000805460ff1961ff0019909116610100171660011790555b8251611a07906068906020860190611d9c565b508151611a1b906069906020850190611d9c565b50606a805460ff191660121790558015610c0c576000805461ff0019169055505050565b600054610100900460ff1680611a585750611a586114ad565b80611a66575060005460ff16155b611aa15760405162461bcd60e51b815260040180806020018281038252602e815260200180611f85602e913960400191505060405180910390fd5b600054610100900460ff16158015611acc576000805460ff1961ff0019909116610100171660011790555b60c9805460ff191690558015610b60576000805461ff001916905550565b600054610100900460ff1680611b035750611b036114ad565b80611b11575060005460ff16155b611b4c5760405162461bcd60e51b815260040180806020018281038252602e815260200180611f85602e913960400191505060405180910390fd5b600054610100900460ff16158015611b77576000805460ff1961ff0019909116610100171660011790555b611b896000611b84610fa5565b6109c6565b611ba3600080516020612055833981519152611b84610fa5565b610bfa600080516020611fdb833981519152611b84610fa5565b81546000908210611bff5760405162461bcd60e51b8152600401808060200182810382526022815260200180611e3e6022913960400191505060405180910390fd5b826000018281548110611c0e57fe5b9060005260206000200154905092915050565b60009081526001919091016020526040902054151590565b5490565b611c48838383610c0c565b611c50610c1b565b15610c0c5760405162461bcd60e51b815260040180806020018281038252602a81526020018061218a602a913960400191505060405180910390fd5b6000611c988383611c21565b611cce57508154600181810184556000848152602080822090930184905584548482528286019093526040902091909155610904565b506000610904565b60008181526001830160205260408120548015611d925783546000198083019190810190600090879083908110611d0957fe5b9060005260206000200154905080876000018481548110611d2657fe5b600091825260208083209091019290925582815260018981019092526040902090840190558654879080611d5657fe5b60019003818190600052602060002001600090559055866001016000878152602001908152602001600020600090556001945050505050610904565b6000915050610904565b828054600181600116156101000203166002900490600052602060002090601f016020900481019282611dd25760008555611e18565b82601f10611deb57805160ff1916838001178555611e18565b82800160010185558215611e18579182015b82811115611e18578251825591602001919060010190611dfd565b50611e24929150611e28565b5090565b5b80821115611e245760008155600101611e2956fe456e756d657261626c655365743a20696e646578206f7574206f6620626f756e647345524332303a207472616e7366657220746f20746865207a65726f2061646472657373416363657373436f6e74726f6c3a2073656e646572206d75737420626520616e2061646d696e20746f206772616e7445524332303a206275726e20616d6f756e7420657863656564732062616c616e636545524332305072657365744d696e7465725061757365723a206d75737420686176652070617573657220726f6c6520746f20756e706175736545524332303a20617070726f766520746f20746865207a65726f206164647265737345524332303a207472616e7366657220616d6f756e7420657863656564732062616c616e6365416363657373436f6e74726f6c3a2073656e646572206d75737420626520616e2061646d696e20746f207265766f6b65496e697469616c697a61626c653a20636f6e747261637420697320616c726561647920696e697469616c697a656445524332303a207472616e7366657220616d6f756e74206578636565647320616c6c6f77616e636565d7a28e3265b37a6474929f336521b332c1681b933f6cb9f3376673440d862a45524332305072657365744d696e7465725061757365723a206d7573742068617665206d696e74657220726f6c6520746f206d696e7445524332303a206275726e20616d6f756e74206578636565647320616c6c6f77616e63659f2df0fed2c77648de5860a4cc508cd0818c85b8b8a1ab4ceeef8d981c8956a6ddf252ad1be2c89b69c2b068fc378daa952ba7f163c4a11628f55a4df523b3ef45524332303a206275726e2066726f6d20746865207a65726f206164647265737345524332303a207472616e736665722066726f6d20746865207a65726f206164647265737345524332303a20617070726f76652066726f6d20746865207a65726f206164647265737345524332305072657365744d696e7465725061757365723a206d75737420686176652070617573657220726f6c6520746f20706175736545524332303a2064656372656173656420616c6c6f77616e63652062656c6f77207a65726f416363657373436f6e74726f6c3a2063616e206f6e6c792072656e6f756e636520726f6c657320666f722073656c6645524332305061757361626c653a20746f6b656e207472616e73666572207768696c6520706175736564a2646970667358221220271a7608b3f734c87eca117b185a17b2b28606030dd3e2ff394206e22580610264736f6c63430007060033",
    "devdoc": {
        "kind": "dev",
        "methods": {
            "allowance(address,address)": {
                "details": "See {IERC20-allowance}."
            },
            "approve(address,uint256)": {
                "details": "See {IERC20-approve}. Requirements: - `spender` cannot be the zero address."
            },
            "balanceOf(address)": {
                "details": "See {IERC20-balanceOf}."
            },
            "burn(uint256)": {
                "details": "Destroys `amount` tokens from the caller. See {ERC20-_burn}."
            },
            "burnFrom(address,uint256)": {
                "details": "Destroys `amount` tokens from `account`, deducting from the caller's allowance. See {ERC20-_burn} and {ERC20-allowance}. Requirements: - the caller must have allowance for ``accounts``'s tokens of at least `amount`."
            },
            "decimals()": {
                "details": "Returns the number of decimals used to get its user representation. For example, if `decimals` equals `2`, a balance of `505` tokens should be displayed to a user as `5,05` (`505 / 10 ** 2`). Tokens usually opt for a value of 18, imitating the relationship between Ether and Wei. This is the value {ERC20} uses, unless {_setupDecimals} is called. NOTE: This information is only used for _display_ purposes: it in no way affects any of the arithmetic of the contract, including {IERC20-balanceOf} and {IERC20-transfer}."
            },
            "decreaseAllowance(address,uint256)": {
                "details": "Atomically decreases the allowance granted to `spender` by the caller. This is an alternative to {approve} that can be used as a mitigation for problems described in {IERC20-approve}. Emits an {Approval} event indicating the updated allowance. Requirements: - `spender` cannot be the zero address. - `spender` must have allowance for the caller of at least `subtractedValue`."
            },
            "getRoleAdmin(bytes32)": {
                "details": "Returns the admin role that controls `role`. See {grantRole} and {revokeRole}. To change a role's admin, use {_setRoleAdmin}."
            },
            "getRoleMember(bytes32,uint256)": {
                "details": "Returns one of the accounts that have `role`. `index` must be a value between 0 and {getRoleMemberCount}, non-inclusive. Role bearers are not sorted in any particular way, and their ordering may change at any point. WARNING: When using {getRoleMember} and {getRoleMemberCount}, make sure you perform all queries on the same block. See the following https://forum.openzeppelin.com/t/iterating-over-elements-on-enumerableset-in-openzeppelin-contracts/2296[forum post] for more information."
            },
            "getRoleMemberCount(bytes32)": {
                "details": "Returns the number of accounts that have `role`. Can be used together with {getRoleMember} to enumerate all bearers of a role."
            },
            "grantRole(bytes32,address)": {
                "details": "Grants `role` to `account`. If `account` had not been already granted `role`, emits a {RoleGranted} event. Requirements: - the caller must have ``role``'s admin role."
            },
            "hasRole(bytes32,address)": {
                "details": "Returns `true` if `account` has been granted `role`."
            },
            "increaseAllowance(address,uint256)": {
                "details": "Atomically increases the allowance granted to `spender` by the caller. This is an alternative to {approve} that can be used as a mitigation for problems described in {IERC20-approve}. Emits an {Approval} event indicating the updated allowance. Requirements: - `spender` cannot be the zero address."
            },
            "mint(address,uint256)": {
                "details": "Creates `amount` new tokens for `to`. See {ERC20-_mint}. Requirements: - the caller must have the `MINTER_ROLE`."
            },
            "name()": {
                "details": "Returns the name of the token."
            },
            "pause()": {
                "details": "Pauses all token transfers. See {ERC20Pausable} and {Pausable-_pause}. Requirements: - the caller must have the `PAUSER_ROLE`."
            },
            "paused()": {
                "details": "Returns true if the contract is paused, and false otherwise."
            },
            "renounceRole(bytes32,address)": {
                "details": "Revokes `role` from the calling account. Roles are often managed via {grantRole} and {revokeRole}: this function's purpose is to provide a mechanism for accounts to lose their privileges if they are compromised (such as when a trusted device is misplaced). If the calling account had been granted `role`, emits a {RoleRevoked} event. Requirements: - the caller must be `account`."
            },
            "revokeRole(bytes32,address)": {
                "details": "Revokes `role` from `account`. If `account` had been granted `role`, emits a {RoleRevoked} event. Requirements: - the caller must have ``role``'s admin role."
            },
            "symbol()": {
                "details": "Returns the symbol of the token, usually a shorter version of the name."
            },
            "totalSupply()": {
                "details": "See {IERC20-totalSupply}."
            },
            "transfer(address,uint256)": {
                "details": "See {IERC20-transfer}. Requirements: - `recipient` cannot be the zero address. - the caller must have a balance of at least `amount`."
            },
            "transferFrom(address,address,uint256)": {
                "details": "See {IERC20-transferFrom}. Emits an {Approval} event indicating the updated allowance. This is not required by the EIP. See the note at the beginning of {ERC20}. Requirements: - `sender` and `recipient` cannot be the zero address. - `sender` must have a balance of at least `amount`. - the caller must have allowance for ``sender``'s tokens of at least `amount`."
            },
            "unpause()": {
                "details": "Unpauses all token transfers. See {ERC20Pausable} and {Pausable-_unpause}. Requirements: - the caller must have the `PAUSER_ROLE`."
            }
        },
        "version": 1
    },
    "userdoc": {
        "kind": "user",
        "methods": {},
        "version": 1
    },
    "storageLayout": {
        "storage": [
            {
                "astId": 1039,
                "contract": "contracts/test/TestERC20.sol:TestERC20",
                "label": "_initialized",
                "offset": 0,
                "slot": "0",
                "type": "t_bool"
            },
            {
                "astId": 1042,
                "contract": "contracts/test/TestERC20.sol:TestERC20",
                "label": "_initializing",
                "offset": 1,
                "slot": "0",
                "type": "t_bool"
            },
            {
                "astId": 2356,
                "contract": "contracts/test/TestERC20.sol:TestERC20",
                "label": "__gap",
                "offset": 0,
                "slot": "1",
                "type": "t_array(t_uint256)50_storage"
            },
            {
                "astId": 43,
                "contract": "contracts/test/TestERC20.sol:TestERC20",
                "label": "_roles",
                "offset": 0,
                "slot": "51",
                "type": "t_mapping(t_bytes32,t_struct(RoleData)39_storage)"
            },
            {
                "astId": 306,
                "contract": "contracts/test/TestERC20.sol:TestERC20",
                "label": "__gap",
                "offset": 0,
                "slot": "52",
                "type": "t_array(t_uint256)49_storage"
            },
            {
                "astId": 1267,
                "contract": "contracts/test/TestERC20.sol:TestERC20",
                "label": "_balances",
                "offset": 0,
                "slot": "101",
                "type": "t_mapping(t_address,t_uint256)"
            },
            {
                "astId": 1273,
                "contract": "contracts/test/TestERC20.sol:TestERC20",
                "label": "_allowances",
                "offset": 0,
                "slot": "102",
                "type": "t_mapping(t_address,t_mapping(t_address,t_uint256))"
            },
            {
                "astId": 1275,
                "contract": "contracts/test/TestERC20.sol:TestERC20",
                "label": "_totalSupply",
                "offset": 0,
                "slot": "103",
                "type": "t_uint256"
            },
            {
                "astId": 1277,
                "contract": "contracts/test/TestERC20.sol:TestERC20",
                "label": "_name",
                "offset": 0,
                "slot": "104",
                "type": "t_string_storage"
            },
            {
                "astId": 1279,
                "contract": "contracts/test/TestERC20.sol:TestERC20",
                "label": "_symbol",
                "offset": 0,
                "slot": "105",
                "type": "t_string_storage"
            },
            {
                "astId": 1281,
                "contract": "contracts/test/TestERC20.sol:TestERC20",
                "label": "_decimals",
                "offset": 0,
                "slot": "106",
                "type": "t_uint8"
            },
            {
                "astId": 1776,
                "contract": "contracts/test/TestERC20.sol:TestERC20",
                "label": "__gap",
                "offset": 0,
                "slot": "107",
                "type": "t_array(t_uint256)44_storage"
            },
            {
                "astId": 1181,
                "contract": "contracts/test/TestERC20.sol:TestERC20",
                "label": "__gap",
                "offset": 0,
                "slot": "151",
                "type": "t_array(t_uint256)50_storage"
            },
            {
                "astId": 2870,
                "contract": "contracts/test/TestERC20.sol:TestERC20",
                "label": "_paused",
                "offset": 0,
                "slot": "201",
                "type": "t_bool"
            },
            {
                "astId": 2961,
                "contract": "contracts/test/TestERC20.sol:TestERC20",
                "label": "__gap",
                "offset": 0,
                "slot": "202",
                "type": "t_array(t_uint256)49_storage"
            },
            {
                "astId": 1246,
                "contract": "contracts/test/TestERC20.sol:TestERC20",
                "label": "__gap",
                "offset": 0,
                "slot": "251",
                "type": "t_array(t_uint256)50_storage"
            },
            {
                "astId": 1031,
                "contract": "contracts/test/TestERC20.sol:TestERC20",
                "label": "__gap",
                "offset": 0,
                "slot": "301",
                "type": "t_array(t_uint256)50_storage"
            },
            {
                "astId": 25163,
                "contract": "contracts/test/TestERC20.sol:TestERC20",
                "label": "_transferFeeRatio",
                "offset": 0,
                "slot": "351",
                "type": "t_uint256"
            }
        ],
        "types": {
            "t_address": {
                "encoding": "inplace",
                "label": "address",
                "numberOfBytes": "20"
            },
            "t_array(t_bytes32)dyn_storage": {
                "base": "t_bytes32",
                "encoding": "dynamic_array",
                "label": "bytes32[]",
                "numberOfBytes": "32"
            },
            "t_array(t_uint256)44_storage": {
                "base": "t_uint256",
                "encoding": "inplace",
                "label": "uint256[44]",
                "numberOfBytes": "1408"
            },
            "t_array(t_uint256)49_storage": {
                "base": "t_uint256",
                "encoding": "inplace",
                "label": "uint256[49]",
                "numberOfBytes": "1568"
            },
            "t_array(t_uint256)50_storage": {
                "base": "t_uint256",
                "encoding": "inplace",
                "label": "uint256[50]",
                "numberOfBytes": "1600"
            },
            "t_bool": {
                "encoding": "inplace",
                "label": "bool",
                "numberOfBytes": "1"
            },
            "t_bytes32": {
                "encoding": "inplace",
                "label": "bytes32",
                "numberOfBytes": "32"
            },
            "t_mapping(t_address,t_mapping(t_address,t_uint256))": {
                "encoding": "mapping",
                "key": "t_address",
                "label": "mapping(address => mapping(address => uint256))",
                "numberOfBytes": "32",
                "value": "t_mapping(t_address,t_uint256)"
            },
            "t_mapping(t_address,t_uint256)": {
                "encoding": "mapping",
                "key": "t_address",
                "label": "mapping(address => uint256)",
                "numberOfBytes": "32",
                "value": "t_uint256"
            },
            "t_mapping(t_bytes32,t_struct(RoleData)39_storage)": {
                "encoding": "mapping",
                "key": "t_bytes32",
                "label": "mapping(bytes32 => struct AccessControlUpgradeable.RoleData)",
                "numberOfBytes": "32",
                "value": "t_struct(RoleData)39_storage"
            },
            "t_mapping(t_bytes32,t_uint256)": {
                "encoding": "mapping",
                "key": "t_bytes32",
                "label": "mapping(bytes32 => uint256)",
                "numberOfBytes": "32",
                "value": "t_uint256"
            },
            "t_string_storage": {
                "encoding": "bytes",
                "label": "string",
                "numberOfBytes": "32"
            },
            "t_struct(AddressSet)2633_storage": {
                "encoding": "inplace",
                "label": "struct EnumerableSetUpgradeable.AddressSet",
                "members": [
                    {
                        "astId": 2632,
                        "contract": "contracts/test/TestERC20.sol:TestERC20",
                        "label": "_inner",
                        "offset": 0,
                        "slot": "0",
                        "type": "t_struct(Set)2368_storage"
                    }
                ],
                "numberOfBytes": "64"
            },
            "t_struct(RoleData)39_storage": {
                "encoding": "inplace",
                "label": "struct AccessControlUpgradeable.RoleData",
                "members": [
                    {
                        "astId": 36,
                        "contract": "contracts/test/TestERC20.sol:TestERC20",
                        "label": "members",
                        "offset": 0,
                        "slot": "0",
                        "type": "t_struct(AddressSet)2633_storage"
                    },
                    {
                        "astId": 38,
                        "contract": "contracts/test/TestERC20.sol:TestERC20",
                        "label": "adminRole",
                        "offset": 0,
                        "slot": "2",
                        "type": "t_bytes32"
                    }
                ],
                "numberOfBytes": "96"
            },
            "t_struct(Set)2368_storage": {
                "encoding": "inplace",
                "label": "struct EnumerableSetUpgradeable.Set",
                "members": [
                    {
                        "astId": 2363,
                        "contract": "contracts/test/TestERC20.sol:TestERC20",
                        "label": "_values",
                        "offset": 0,
                        "slot": "0",
                        "type": "t_array(t_bytes32)dyn_storage"
                    },
                    {
                        "astId": 2367,
                        "contract": "contracts/test/TestERC20.sol:TestERC20",
                        "label": "_indexes",
                        "offset": 0,
                        "slot": "1",
                        "type": "t_mapping(t_bytes32,t_uint256)"
                    }
                ],
                "numberOfBytes": "64"
            },
            "t_uint256": {
                "encoding": "inplace",
                "label": "uint256",
                "numberOfBytes": "32"
            },
            "t_uint8": {
                "encoding": "inplace",
                "label": "uint8",
                "numberOfBytes": "1"
            }
        }
    }
}