{
    "address": "0x929577dff77995fd970e16BE588b66950D0a1e04",
    "abi": [
        {
            "inputs": [
                {
                    "internalType": "contract AggregatorV3Interface",
                    "name": "aggregator",
                    "type": "address"
                }
            ],
            "stateMutability": "nonpayable",
            "type": "constructor"
        },
        {
            "inputs": [],
            "name": "decimals",
            "outputs": [
                {
                    "internalType": "uint8",
                    "name": "",
                    "type": "uint8"
                }
            ],
            "stateMutability": "view",
            "type": "function"
        },
        {
            "inputs": [
                {
                    "internalType": "uint256",
                    "name": "interval",
                    "type": "uint256"
                }
            ],
            "name": "getPrice",
            "outputs": [
                {
                    "internalType": "uint256",
                    "name": "",
                    "type": "uint256"
                }
            ],
            "stateMutability": "view",
            "type": "function"
        }
    ],
    "transactionHash": "0xb1bd0110124d4f7259730defb565a5bcdfaf6c3eb2a2194a6db0e5dc3b179223",
    "args": [
        "0xA969bEB73d918f6100163Cd0fba3C586C269bee1"
    ],
    "bytecode": "0x60a060405234801561001057600080fd5b506040516107dc3803806107dc8339818101604052602081101561003357600080fd5b50516100526001600160a01b0382166100a2602090811b61027a17901c565b61008d576040805162461bcd60e51b81526020600482015260076024820152664350465f414e4360c81b604482015290519081900360640190fd5b60601b6001600160601b0319166080526100a8565b3b151590565b60805160601c6107096100d360003980608c528061028b528061048f528061055552506107096000f3fe608060405234801561001057600080fd5b50600436106100365760003560e01c8063313ce5671461003b578063e757223014610059575b600080fd5b610043610088565b6040805160ff9092168252519081900360200190f35b6100766004803603602081101561006f57600080fd5b5035610114565b60408051918252519081900360200190f35b60007f00000000000000000000000000000000000000000000000000000000000000006001600160a01b031663313ce5676040518163ffffffff1660e01b815260040160206040518083038186803b1580156100e357600080fd5b505afa1580156100f7573d6000803e3d6000fd5b505050506040513d602081101561010d57600080fd5b5051905090565b600080600080610122610280565b925092509250846000148061013e57506001600160501b038316155b1561014d575091506102759050565b60006101618661015b610357565b9061035b565b9050808210156101775782945050505050610275565b8160006101868261015b610357565b9050600061019486836103bd565b905060005b6001600160501b0388166101d557826101bc578698505050505050505050610275565b6101c6828461041d565b98505050505050505050610275565b6001880397506000806101e78a610484565b925092505086811161021a5761021161020a610203888a61035b565b84906103bd565b859061060d565b9350505061024b565b610224868261035b565b925061023361020a83856103bd565b935061023f858461060d565b94508095505050610199565b81610260578698505050505050505050610275565b61026a828b61041d565b985050505050505050505b919050565b3b151590565b6000806000806000807f00000000000000000000000000000000000000000000000000000000000000006001600160a01b031663feaf968c6040518163ffffffff1660e01b815260040160a06040518083038186803b1580156102e257600080fd5b505afa1580156102f6573d6000803e3d6000fd5b505050506040513d60a081101561030c57600080fd5b508051602082015160609092015191965093508592509050600082121561034b5761033683610667565b61034260018403610484565b90965090935090505b91945090915050909192565b4290565b6000828211156103b2576040805162461bcd60e51b815260206004820152601e60248201527f536166654d6174683a207375627472616374696f6e206f766572666c6f770000604482015290519081900360640190fd5b508082035b92915050565b6000826103cc575060006103b7565b828202828482816103d957fe5b04146104165760405162461bcd60e51b81526004018080602001828103825260218152602001806106b36021913960400191505060405180910390fd5b9392505050565b6000808211610473576040805162461bcd60e51b815260206004820152601a60248201527f536166654d6174683a206469766973696f6e206279207a65726f000000000000604482015290519081900360640190fd5b81838161047c57fe5b049392505050565b6000806000806000807f00000000000000000000000000000000000000000000000000000000000000006001600160a01b0316639a6fc8f5886040518263ffffffff1660e01b815260040180826001600160501b0316815260200191505060a06040518083038186803b1580156104fa57600080fd5b505afa15801561050e573d6000803e3d6000fd5b505050506040513d60a081101561052457600080fd5b508051602082015160609092015190945090925090505b60008212156106005761054d83610667565b6001830392507f00000000000000000000000000000000000000000000000000000000000000006001600160a01b0316639a6fc8f5846040518263ffffffff1660e01b815260040180826001600160501b0316815260200191505060a06040518083038186803b1580156105c057600080fd5b505afa1580156105d4573d6000803e3d6000fd5b505050506040513d60a08110156105ea57600080fd5b506020810151606090910151909250905061053b565b9196909550909350915050565b600082820183811015610416576040805162461bcd60e51b815260206004820152601b60248201527f536166654d6174683a206164646974696f6e206f766572666c6f770000000000604482015290519081900360640190fd5b6000816001600160501b0316116106af576040805162461bcd60e51b8152602060048201526007602482015266086a08cbe9c8a960cb1b604482015290519081900360640190fd5b5056fe536166654d6174683a206d756c7469706c69636174696f6e206f766572666c6f77a264697066735822122080b3a1335d492170b17a8ee7dcaec12f709163b933d85f644d480cc9a2f7af9b64736f6c63430007060033"
}