{
    "address": "0xc8486C57f8D1E01b440363dB6f148681b829C685",
    "abi": [
        {
            "anonymous": false,
            "inputs": [
                {
                    "indexed": false,
                    "internalType": "address",
                    "name": "accountBalance",
                    "type": "address"
                }
            ],
            "name": "AccountBalanceChanged",
            "type": "event"
        },
        {
            "anonymous": false,
            "inputs": [
                {
                    "indexed": true,
                    "internalType": "address",
                    "name": "clearingHouse",
                    "type": "address"
                }
            ],
            "name": "ClearingHouseChanged",
            "type": "event"
        },
        {
            "anonymous": false,
            "inputs": [
                {
                    "indexed": true,
                    "internalType": "address",
                    "name": "baseToken",
                    "type": "address"
                },
                {
                    "indexed": false,
                    "internalType": "uint256",
                    "name": "markTwap",
                    "type": "uint256"
                },
                {
                    "indexed": false,
                    "internalType": "uint256",
                    "name": "indexTwap",
                    "type": "uint256"
                }
            ],
            "name": "FundingUpdated",
            "type": "event"
        },
        {
            "anonymous": false,
            "inputs": [
                {
                    "indexed": true,
                    "internalType": "address",
                    "name": "baseToken",
                    "type": "address"
                },
                {
                    "indexed": false,
                    "internalType": "uint24",
                    "name": "maxTickCrossedWithinBlock",
                    "type": "uint24"
                }
            ],
            "name": "MaxTickCrossedWithinBlockChanged",
            "type": "event"
        },
        {
            "anonymous": false,
            "inputs": [
                {
                    "indexed": true,
                    "internalType": "address",
                    "name": "previousOwner",
                    "type": "address"
                },
                {
                    "indexed": true,
                    "internalType": "address",
                    "name": "newOwner",
                    "type": "address"
                }
            ],
            "name": "OwnershipTransferred",
            "type": "event"
        },
        {
            "inputs": [],
            "name": "candidate",
            "outputs": [
                {
                    "internalType": "address",
                    "name": "",
                    "type": "address"
                }
            ],
            "stateMutability": "view",
            "type": "function"
        },
        {
            "inputs": [],
            "name": "getAccountBalance",
            "outputs": [
                {
                    "internalType": "address",
                    "name": "",
                    "type": "address"
                }
            ],
            "stateMutability": "view",
            "type": "function"
        },
        {
            "inputs": [
                {
                    "internalType": "address",
                    "name": "trader",
                    "type": "address"
                }
            ],
            "name": "getAllPendingFundingPayment",
            "outputs": [
                {
                    "internalType": "int256",
                    "name": "pendingFundingPayment",
                    "type": "int256"
                }
            ],
            "stateMutability": "view",
            "type": "function"
        },
        {
            "inputs": [],
            "name": "getClearingHouse",
            "outputs": [
                {
                    "internalType": "address",
                    "name": "",
                    "type": "address"
                }
            ],
            "stateMutability": "view",
            "type": "function"
        },
        {
            "inputs": [],
            "name": "getClearingHouseConfig",
            "outputs": [
                {
                    "internalType": "address",
                    "name": "",
                    "type": "address"
                }
            ],
            "stateMutability": "view",
            "type": "function"
        },
        {
            "inputs": [],
            "name": "getMarketRegistry",
            "outputs": [
                {
                    "internalType": "address",
                    "name": "",
                    "type": "address"
                }
            ],
            "stateMutability": "view",
            "type": "function"
        },
        {
            "inputs": [
                {
                    "internalType": "address",
                    "name": "baseToken",
                    "type": "address"
                }
            ],
            "name": "getMaxTickCrossedWithinBlock",
            "outputs": [
                {
                    "internalType": "uint24",
                    "name": "",
                    "type": "uint24"
                }
            ],
            "stateMutability": "view",
            "type": "function"
        },
        {
            "inputs": [],
            "name": "getOrderBook",
            "outputs": [
                {
                    "internalType": "address",
                    "name": "",
                    "type": "address"
                }
            ],
            "stateMutability": "view",
            "type": "function"
        },
        {
            "inputs": [
                {
                    "internalType": "address",
                    "name": "trader",
                    "type": "address"
                },
                {
                    "internalType": "address",
                    "name": "baseToken",
                    "type": "address"
                }
            ],
            "name": "getPendingFundingPayment",
            "outputs": [
                {
                    "internalType": "int256",
                    "name": "",
                    "type": "int256"
                }
            ],
            "stateMutability": "view",
            "type": "function"
        },
        {
            "inputs": [
                {
                    "components": [
                        {
                            "internalType": "address",
                            "name": "trader",
                            "type": "address"
                        },
                        {
                            "internalType": "address",
                            "name": "baseToken",
                            "type": "address"
                        },
                        {
                            "internalType": "int256",
                            "name": "base",
                            "type": "int256"
                        },
                        {
                            "internalType": "int256",
                            "name": "quote",
                            "type": "int256"
                        }
                    ],
                    "internalType": "struct IExchange.RealizePnlParams",
                    "name": "params",
                    "type": "tuple"
                }
            ],
            "name": "getPnlToBeRealized",
            "outputs": [
                {
                    "internalType": "int256",
                    "name": "",
                    "type": "int256"
                }
            ],
            "stateMutability": "view",
            "type": "function"
        },
        {
            "inputs": [
                {
                    "internalType": "address",
                    "name": "baseToken",
                    "type": "address"
                },
                {
                    "internalType": "uint32",
                    "name": "twapInterval",
                    "type": "uint32"
                }
            ],
            "name": "getSqrtMarkTwapX96",
            "outputs": [
                {
                    "internalType": "uint160",
                    "name": "",
                    "type": "uint160"
                }
            ],
            "stateMutability": "view",
            "type": "function"
        },
        {
            "inputs": [
                {
                    "internalType": "address",
                    "name": "marketRegistryArg",
                    "type": "address"
                },
                {
                    "internalType": "address",
                    "name": "orderBookArg",
                    "type": "address"
                },
                {
                    "internalType": "address",
                    "name": "clearingHouseConfigArg",
                    "type": "address"
                }
            ],
            "name": "initialize",
            "outputs": [],
            "stateMutability": "nonpayable",
            "type": "function"
        },
        {
            "inputs": [],
            "name": "owner",
            "outputs": [
                {
                    "internalType": "address",
                    "name": "",
                    "type": "address"
                }
            ],
            "stateMutability": "view",
            "type": "function"
        },
        {
            "inputs": [],
            "name": "renounceOwnership",
            "outputs": [],
            "stateMutability": "nonpayable",
            "type": "function"
        },
        {
            "inputs": [
                {
                    "internalType": "address",
                    "name": "accountBalanceArg",
                    "type": "address"
                }
            ],
            "name": "setAccountBalance",
            "outputs": [],
            "stateMutability": "nonpayable",
            "type": "function"
        },
        {
            "inputs": [
                {
                    "internalType": "address",
                    "name": "clearingHouseArg",
                    "type": "address"
                }
            ],
            "name": "setClearingHouse",
            "outputs": [],
            "stateMutability": "nonpayable",
            "type": "function"
        },
        {
            "inputs": [
                {
                    "internalType": "address",
                    "name": "baseToken",
                    "type": "address"
                },
                {
                    "internalType": "uint24",
                    "name": "maxTickCrossedWithinBlock",
                    "type": "uint24"
                }
            ],
            "name": "setMaxTickCrossedWithinBlock",
            "outputs": [],
            "stateMutability": "nonpayable",
            "type": "function"
        },
        {
            "inputs": [
                {
                    "internalType": "address",
                    "name": "newOwner",
                    "type": "address"
                }
            ],
            "name": "setOwner",
            "outputs": [],
            "stateMutability": "nonpayable",
            "type": "function"
        },
        {
            "inputs": [
                {
                    "internalType": "address",
                    "name": "trader",
                    "type": "address"
                },
                {
                    "internalType": "address",
                    "name": "baseToken",
                    "type": "address"
                }
            ],
            "name": "settleFunding",
            "outputs": [
                {
                    "internalType": "int256",
                    "name": "fundingPayment",
                    "type": "int256"
                },
                {
                    "components": [
                        {
                            "internalType": "int256",
                            "name": "twPremiumX96",
                            "type": "int256"
                        },
                        {
                            "internalType": "int256",
                            "name": "twPremiumDivBySqrtPriceX96",
                            "type": "int256"
                        }
                    ],
                    "internalType": "struct Funding.Growth",
                    "name": "fundingGrowthGlobal",
                    "type": "tuple"
                }
            ],
            "stateMutability": "nonpayable",
            "type": "function"
        },
        {
            "inputs": [
                {
                    "components": [
                        {
                            "internalType": "address",
                            "name": "trader",
                            "type": "address"
                        },
                        {
                            "internalType": "address",
                            "name": "baseToken",
                            "type": "address"
                        },
                        {
                            "internalType": "bool",
                            "name": "isBaseToQuote",
                            "type": "bool"
                        },
                        {
                            "internalType": "bool",
                            "name": "isExactInput",
                            "type": "bool"
                        },
                        {
                            "internalType": "bool",
                            "name": "isClose",
                            "type": "bool"
                        },
                        {
                            "internalType": "uint256",
                            "name": "amount",
                            "type": "uint256"
                        },
                        {
                            "internalType": "uint160",
                            "name": "sqrtPriceLimitX96",
                            "type": "uint160"
                        }
                    ],
                    "internalType": "struct IExchange.SwapParams",
                    "name": "params",
                    "type": "tuple"
                }
            ],
            "name": "swap",
            "outputs": [
                {
                    "components": [
                        {
                            "internalType": "uint256",
                            "name": "base",
                            "type": "uint256"
                        },
                        {
                            "internalType": "uint256",
                            "name": "quote",
                            "type": "uint256"
                        },
                        {
                            "internalType": "int256",
                            "name": "exchangedPositionSize",
                            "type": "int256"
                        },
                        {
                            "internalType": "int256",
                            "name": "exchangedPositionNotional",
                            "type": "int256"
                        },
                        {
                            "internalType": "uint256",
                            "name": "fee",
                            "type": "uint256"
                        },
                        {
                            "internalType": "uint256",
                            "name": "insuranceFundFee",
                            "type": "uint256"
                        },
                        {
                            "internalType": "int256",
                            "name": "pnlToBeRealized",
                            "type": "int256"
                        },
                        {
                            "internalType": "uint256",
                            "name": "sqrtPriceAfterX96",
                            "type": "uint256"
                        },
                        {
                            "internalType": "int24",
                            "name": "tick",
                            "type": "int24"
                        },
                        {
                            "internalType": "bool",
                            "name": "isPartialClose",
                            "type": "bool"
                        }
                    ],
                    "internalType": "struct IExchange.SwapResponse",
                    "name": "",
                    "type": "tuple"
                }
            ],
            "stateMutability": "nonpayable",
            "type": "function"
        },
        {
            "inputs": [
                {
                    "internalType": "int256",
                    "name": "amount0Delta",
                    "type": "int256"
                },
                {
                    "internalType": "int256",
                    "name": "amount1Delta",
                    "type": "int256"
                },
                {
                    "internalType": "bytes",
                    "name": "data",
                    "type": "bytes"
                }
            ],
            "name": "uniswapV3SwapCallback",
            "outputs": [],
            "stateMutability": "nonpayable",
            "type": "function"
        },
        {
            "inputs": [],
            "name": "updateOwner",
            "outputs": [],
            "stateMutability": "nonpayable",
            "type": "function"
        }
    ],
    "transactionHash": "0x44cc3b7ba467fb947d5702c11c719eece6f74dc1643da9e2eb4d521b8f1b6aa6",
    "args": [],
    "solcInputHash": "79338060ebab6992079a592a0a5c7fd6",
    "bytecode": "0x608060405234801561001057600080fd5b50614612806100206000396000f3fe608060405234801561001057600080fd5b50600436106101425760003560e01c806380f57f11116100b8578063bc5920ba1161007c578063bc5920ba14610282578063c0c53b8b1461028a578063c575ff791461029d578063c66b8ed2146102a5578063cb379aa2146102ad578063fa461e33146102c057610142565b806380f57f11146102445780638da5cb5b1461025757806399e4a7711461025f578063aa2a829414610272578063b248c4ef1461027a57610142565b80634314ca1c1161010a5780634314ca1c146101d9578063449323d8146101f95780635eb8a4e61461020c5780636896fabf1461021f5780636c8381f814610234578063715018a61461023c57610142565b80631393a4691461014757806313af403514610170578063199387cc146101855780631e81ac331461019857806329386b7b146101b9575b600080fd5b61015a610155366004613cb1565b6102d3565b6040516101679190614024565b60405180910390f35b61018361017e36600461389c565b6103f9565b005b61018361019336600461389c565b610554565b6101ab6101a63660046138d4565b610636565b60405161016792919061406a565b6101cc6101c736600461389c565b6108f0565b6040516101679190614392565b6101ec6101e7366004613d77565b610910565b604051610167919061430f565b61018361020736600461389c565b610db4565b61018361021a366004613956565b610e5b565b610227611029565b6040516101679190613f08565b610227611038565b610183611047565b61015a61025236600461389c565b6110e8565b6102276111ba565b61022761026d366004613983565b6111c9565b61022761125f565b61022761126e565b61018361127d565b61018361029836600461390c565b611369565b6102276114ab565b6102276114ba565b61015a6102bb3660046138d4565b6114c9565b6101836102ce366004613b66565b611680565b60ce54815160208301516040516331997f7b60e11b815260009384936001600160a01b0390911692636332fef69261030f929190600401613f1c565b60606040518083038186803b15801561032757600080fd5b505afa15801561033b573d6000803e3d6000fd5b505050506040513d601f19601f8201168201806040525081019061035f9190613be0565b602081015181519192509060008115610385576040860151600080841291121415610388565b60005b9050806103965760006103ed565b6103ed6040518060c0016040528088600001516001600160a01b0316815260200188602001516001600160a01b03168152602001848152602001858152602001886040015181526020018860600151815250611820565b9450505050505b919050565b6104016118d5565b6001600160a01b03166104126111ba565b6001600160a01b031614610456576040805162461bcd60e51b8152602060048201526006602482015265534f5f434e4f60d01b604482015290519081900360640190fd5b6001600160a01b03811661049a576040805162461bcd60e51b81526020600482015260066024820152650534f5f4e57360d41b604482015290519081900360640190fd5b6033546001600160a01b03828116911614156104e6576040805162461bcd60e51b8152602060048201526006602482015265534f5f53414f60d01b604482015290519081900360640190fd5b6034546001600160a01b0382811691161415610532576040805162461bcd60e51b8152602060048201526006602482015265534f5f53414360d01b604482015290519081900360640190fd5b603480546001600160a01b0319166001600160a01b0392909216919091179055565b61055c6118d5565b6001600160a01b031661056d6111ba565b6001600160a01b0316146105b1576040805162461bcd60e51b8152602060048201526006602482015265534f5f434e4f60d01b604482015290519081900360640190fd5b6001600160a01b0381166105e05760405162461bcd60e51b81526004016105d790614126565b60405180910390fd5b60ce80546001600160a01b0319166001600160a01b0383161790556040517f2b28168781da733c8a034f84683b9c955f156de5e07e24920b1348f51445d3e69061062b908390613f08565b60405180910390a150565b600061064061373b565b609a54604051631246dbf560e01b81526001600160a01b0390911690631246dbf590610670908690600401613f08565b60206040518083038186803b15801561068857600080fd5b505afa15801561069c573d6000803e3d6000fd5b505050506040513d601f19601f820116820180604052508101906106c09190613b0f565b6106dc5760405162461bcd60e51b81526004016105d7906140a0565b6000806106e8856118d9565b60ce546040516359deb70960e11b8152939650919450925061080691889188916001600160a01b039091169063b3bd6e129061072a9085908590600401613f1c565b60206040518083038186803b15801561074257600080fd5b505afa158015610756573d6000803e3d6000fd5b505050506040513d601f19601f8201168201806040525081019061077a9190613b2b565b60ce546040516331997f7b60e11b81526001600160a01b0390911690636332fef6906107ac908d908d90600401613f1c565b60606040518083038186803b1580156107c457600080fd5b505afa1580156107d8573d6000803e3d6000fd5b505050506040513d601f19601f820116820180604052508101906107fc9190613be0565b6040015187611b6a565b93506000610812611c0e565b6001600160a01b038716600090815260d2602052604090205490915081146108e6576001600160a01b038616600081815260d36020908152604080832088518984015160d290945293829020600182019390935592835590849055519091907f54e4482fe1d38392effe5d53f0e9e72f60221a75a10cea7abbb684bfb03519bf906108a090879087906143a2565b60405180910390a26108b187611c12565b6001600160a01b038816600090815260d060205260409020805460029290920b62ffffff1662ffffff19909216919091179055505b5050509250929050565b6001600160a01b0316600090815260d4602052604090205462ffffff1690565b610918613755565b610920611c57565b60ce548251602084015160405163165c4e2960e31b81526000936001600160a01b03169263b2e271489261095692600401613f1c565b60206040518083038186803b15801561096e57600080fd5b505afa158015610982573d6000803e3d6000fd5b505050506040513d601f19601f820116820180604052508101906109a69190613b2b565b9050600081156109c257604084015115156000831214156109c5565b60005b90506000846080015180156109d957508215155b15610b25576109eb8560200151611c93565b80610a075750610a078560200151600085128760a00151611cab565b15610b20576000610a16611c0e565b86516001600160a01b03908116600090815260d560209081526040808320828c015190941683529290522054909150811415610a645760405162461bcd60e51b81526004016105d7906140e2565b85516001600160a01b03908116600090815260d560209081526040808320828b015185168452825280832085905560cf548151633a14199b60e11b8152915193941692637428333692600480840193919291829003018186803b158015610aca57600080fd5b505afa158015610ade573d6000803e3d6000fd5b505050506040513d601f19601f82011682018060405250810190610b029190613eab565b60a0880151909150610b149082611d0d565b60a08801525060019150505b610b55565b8115610b5557610b388560200151611c93565b15610b555760405162461bcd60e51b81526004016105d79061407e565b60ce548551602087015160405163d50d01b760e01b81526000936001600160a01b03169263d50d01b792610b8b92600401613f1c565b60206040518083038186803b158015610ba357600080fd5b505afa158015610bb7573d6000803e3d6000fd5b505050506040513d601f19601f82011682018060405250810190610bdb9190613b2b565b90506000610be887611d22565b90508660800151158015610bf95750835b15610c2d57610c1087602001518260c00151612103565b15610c2d5760405162461bcd60e51b81526004016105d790614104565b60008415610c8f57610c8c6040518060c001604052808a600001516001600160a01b031681526020018a602001516001600160a01b03168152602001888152602001858152602001846000015181526020018460200151815250611820565b90505b609a54602089015160405163bbe4f6db60e01b8152600092610d1e926001600160a01b039091169163bbe4f6db91610cc991600401613f08565b60206040518083038186803b158015610ce157600080fd5b505afa158015610cf5573d6000803e3d6000fd5b505050506040513d601f19601f82011682018060405250810190610d1991906138b8565b6121aa565b5050505050506001600160a01b03169050604051806101400160405280610d48856000015161223d565b8152602001610d5a856020015161223d565b81526020018460400151815260200184606001518152602001846080015181526020018460a0015181526020018381526020018281526020018460c0015160020b8152602001861515815250975050505050505050919050565b610dbc6118d5565b6001600160a01b0316610dcd6111ba565b6001600160a01b031614610e11576040805162461bcd60e51b8152602060048201526006602482015265534f5f434e4f60d01b604482015290519081900360640190fd5b606780546001600160a01b0319166001600160a01b0383169081179091556040517fd0654f5900f9e7e4e605a19334306e6a2786bbf960ac0484a4c12feb6428fe2f90600090a250565b610e636118d5565b6001600160a01b0316610e746111ba565b6001600160a01b031614610eb8576040805162461bcd60e51b8152602060048201526006602482015265534f5f434e4f60d01b604482015290519081900360640190fd5b610eca826001600160a01b0316612266565b610ee65760405162461bcd60e51b81526004016105d790614221565b609a54604051631246dbf560e01b81526001600160a01b0390911690631246dbf590610f16908590600401613f08565b60206040518083038186803b158015610f2e57600080fd5b505afa158015610f42573d6000803e3d6000fd5b505050506040513d601f19601f82011682018060405250810190610f669190613b0f565b610f825760405162461bcd60e51b81526004016105d7906140a0565b610f9b610f96620d89e8620d89e71961226c565b6122d1565b62ffffff168162ffffff161115610fc45760405162461bcd60e51b81526004016105d790614165565b6001600160a01b038216600081815260d4602052604090819020805462ffffff191662ffffff8516179055517f998d553f208e581d188c66da9e7d19bac5ca64d002753791210c4271c8e955d09061101d908490614392565b60405180910390a25050565b60ce546001600160a01b031690565b6034546001600160a01b031690565b61104f6118d5565b6001600160a01b03166110606111ba565b6001600160a01b0316146110a4576040805162461bcd60e51b8152602060048201526006602482015265534f5f434e4f60d01b604482015290519081900360640190fd5b6033546040516000916001600160a01b031690600080516020614524833981519152908390a3603380546001600160a01b0319908116909155603480549091169055565b60ce546040516357ba739b60e11b815260009182916001600160a01b039091169063af74e7369061111d908690600401613f08565b60006040518083038186803b15801561113557600080fd5b505afa158015611149573d6000803e3d6000fd5b505050506040513d6000823e601f3d908101601f1916820160405261117191908101906139b0565b805190915060005b818110156111b2576111a86111a18685848151811061119457fe5b60200260200101516114c9565b8590612315565b9350600101611179565b505050919050565b6033546001600160a01b031690565b609a5460405163bbe4f6db60e01b8152600091611256916001600160a01b039091169063bbe4f6db90611200908790600401613f08565b60206040518083038186803b15801561121857600080fd5b505afa15801561122c573d6000803e3d6000fd5b505050506040513d601f19601f8201168201806040525081019061125091906138b8565b8361237a565b90505b92915050565b60cf546001600160a01b031690565b60cd546001600160a01b031690565b6034546001600160a01b03166112c2576040805162461bcd60e51b81526020600482015260056024820152640534f5f43360dc1b604482015290519081900360640190fd5b6112ca6118d5565b6034546001600160a01b03908116911614611315576040805162461bcd60e51b8152602060048201526006602482015265534f5f434e4360d01b604482015290519081900360640190fd5b6034546033546040516001600160a01b03928316929091169060008051602061452483398151915290600090a360348054603380546001600160a01b03199081166001600160a01b03841617909155169055565b600054610100900460ff168061138257506113826124de565b80611390575060005460ff16155b6113cb5760405162461bcd60e51b815260040180806020018281038252602e815260200180614492602e913960400191505060405180910390fd5b600054610100900460ff161580156113f6576000805460ff1961ff0019909116610100171660011790555b6113fe6124ef565b61140784612599565b611419836001600160a01b0316612266565b6114355760405162461bcd60e51b81526004016105d790614145565b611447826001600160a01b0316612266565b6114635760405162461bcd60e51b81526004016105d7906141e1565b60cd80546001600160a01b038086166001600160a01b03199283161790925560cf80549285169290911691909117905580156114a5576000805461ff00191690555b50505050565b6067546001600160a01b031690565b609a546001600160a01b031690565b6000806114d5836118d9565b505060cd546040516347b52fb760e01b81529192506000916001600160a01b03909116906347b52fb79061151190889088908790600401613f36565b60206040518083038186803b15801561152957600080fd5b505afa15801561153d573d6000803e3d6000fd5b505050506040513d601f19601f820116820180604052508101906115619190613b2b565b60ce546040516359deb70960e11b8152919250611677916001600160a01b039091169063b3bd6e129061159a9089908990600401613f1c565b60206040518083038186803b1580156115b257600080fd5b505afa1580156115c6573d6000803e3d6000fd5b505050506040513d601f19601f820116820180604052508101906115ea9190613b2b565b60ce546040516331997f7b60e11b81526001600160a01b0390911690636332fef69061161c908a908a90600401613f1c565b60606040518083038186803b15801561163457600080fd5b505afa158015611648573d6000803e3d6000fd5b505050506040513d601f19601f8201168201806040525081019061166c9190613be0565b60400151848461265f565b95945050505050565b600061168a6118d5565b90506000816001600160a01b0316630dfe16816040518163ffffffff1660e01b815260040160206040518083038186803b1580156116c757600080fd5b505afa1580156116db573d6000803e3d6000fd5b505050506040513d601f19601f820116820180604052508101906116ff91906138b8565b609a5460405163bbe4f6db60e01b81529192506001600160a01b03169063bbe4f6db90611730908490600401613f08565b60206040518083038186803b15801561174857600080fd5b505afa15801561175c573d6000803e3d6000fd5b505050506040513d601f19601f8201168201806040525081019061178091906138b8565b6001600160a01b0316826001600160a01b0316146117b05760405162461bcd60e51b81526004016105d790614189565b60675460405163fa461e3360e01b81526001600160a01b039091169063fa461e33906117e690899089908990899060040161402d565b600060405180830381600087803b15801561180057600080fd5b505af1158015611814573d6000803e3d6000fd5b50505050505050505050565b60008061184e611833846080015161223d565b670de0b6b3a7640000611849866040015161223d565b6126aa565b90506000670de0b6b3a7640000821161189d57600061188361186f84612759565b606087015190670de0b6b3a76400006127a5565b60a08601519091506118959082612315565b9150506118ce565b60a08401516000906118b890670de0b6b3a7640000856127a5565b60608601519091506118ca9082612315565b9150505b9392505050565b3390565b6118e161373b565b6000806000806118ef611c0e565b6001600160a01b038716600090815260d16020526040902054909150156119e85760cf60009054906101000a90046001600160a01b03166001600160a01b0316633e742e3b6040518163ffffffff1660e01b815260040160206040518083038186803b15801561195e57600080fd5b505afa158015611972573d6000803e3d6000fd5b505050506040513d601f19601f820116820180604052508101906119969190613ec7565b6001600160a01b038716600090815260d16020526040812054919350906119c7906119c2908490612849565b6128a6565b90508063ffffffff168363ffffffff16116119e257826119e4565b805b9250505b6000611a056119f788856111c9565b6001600160a01b03166128eb565b9050611a1081612905565b604051631208064760e01b81529095506001600160a01b03881690631208064790611a3f9086906004016143b0565b60206040518083038186803b158015611a5757600080fd5b505afa158015611a6b573d6000803e3d6000fd5b505050506040513d601f19601f82011682018060405250810190611a8f9190613b2b565b6001600160a01b038816600090815260d2602090815260408083205460d39092529091209195509083821480611ac3575081155b15611ae7576040805180820190915281548152600182015460208201529750611b5e565b6000611b16611afe611af98786612849565b612759565b611b1086611b0b8b61291e565b612937565b90612a41565b8254909150611b259082612315565b8952611b57611b4c82600160601b611b3e8e60006111c9565b6001600160a01b03166127a5565b600184015490612315565b60208a0152505b50505050509193909250565b60cd54604051633fe1339b60e11b815260009182916001600160a01b0390911690637fc2673690611ba3908a908a908890600401613f36565b602060405180830381600087803b158015611bbd57600080fd5b505af1158015611bd1573d6000803e3d6000fd5b505050506040513d601f19601f82011682018060405250810190611bf59190613b2b565b9050611c038585858461265f565b979650505050505050565b4290565b609a5460405163bbe4f6db60e01b81526000918291611c49916001600160a01b03169063bbe4f6db90610cc9908790600401613f08565b509398975050505050505050565b6067546001600160a01b0316611c6b6118d5565b6001600160a01b031614611c915760405162461bcd60e51b81526004016105d7906140c1565b565b600080611c9f83611c12565b90506118ce8382612103565b6000611d0584611d006040518060a00160405280886001600160a01b03168152602001871515158152602001871515158152602001868152602001611cf08989612aea565b6001600160a01b03169052612b3d565b612103565b949350505050565b6000611256838362ffffff16620f42406126aa565b611d2a6137ad565b609a54602083015160405163033e16f360e21b81526000926001600160a01b031691630cf85bcc91611d5f9190600401613f08565b60806040518083038186803b158015611d7757600080fd5b505afa158015611d8b573d6000803e3d6000fd5b505050506040513d601f19601f82011682018060405250810190611daf9190613c34565b9050600080611dd5856040015186606001518760a0015186602001518760400151612ce5565b915091506000611de886602001516118d9565b50509050600060cd60009054906101000a90046001600160a01b03166001600160a01b031663a3bf0df86040518061010001604052808a602001516001600160a01b031681526020018a60400151151581526020016001151581526020018681526020018a60c001516001600160a01b03168152602001886020015162ffffff168152602001886040015162ffffff168152602001858152506040518263ffffffff1660e01b8152600401611e9d9190614241565b606060405180830381600087803b158015611eb757600080fd5b505af1158015611ecb573d6000803e3d6000fd5b505050506040513d601f19601f82011682018060405250810190611eef9190613d1e565b90506000611feb6040518060e0016040528088600001516001600160a01b03168152602001606760009054906101000a90046001600160a01b03166001600160a01b031681526020018a60400151151581526020018a60600151151581526020018781526020018a60c001516001600160a01b031681526020016040518060a001604052808c600001516001600160a01b031681526020018c602001516001600160a01b031681526020018a600001516001600160a01b031681526020018a6040015162ffffff1681526020018660200151815250604051602001611fd491906142c5565b604051602081830303815290604052815250612d71565b905060008089604001511561202c5761201661201184600001518a604001516000612f9b565b612fe2565b91506120258360200151612759565b9050612053565b825161203790612759565b915061205061201184602001518a604001516000612f9b565b90505b6020808b01516001600160a01b0316600090815260d1909152604090205461209c5761207d611c0e565b6020808c01516001600160a01b0316600090815260d190915260409020555b6040518060e001604052808381526020016120c46120bd8760200151612759565b849061226c565b81526020018381526020018281526020018560200151815260200185604001518152602001856000015160020b81525098505050505050505050919050565b6001600160a01b038216600090815260d4602052604081205462ffffff1680612130576000915050611259565b6001600160a01b038416600090815260d06020526040812054600290810b919061216b906121669084900b62ffffff8616612315565b612ff6565b90506000612185612166600285900b62ffffff871661226c565b90508060020b8660020b1280611c0357508160020b8660020b13979650505050505050565b6000806000806000806000876001600160a01b0316633850c7bd6040518163ffffffff1660e01b815260040160e06040518083038186803b1580156121ee57600080fd5b505afa158015612202573d6000803e3d6000fd5b505050506040513d601f19601f820116820180604052508101906122269190613e18565b959e949d50929b5090995097509550909350915050565b60008082121561225d5761225861225383613039565b613065565b611259565b61125982613065565b3b151590565b60008183038183128015906122815750838113155b80612296575060008312801561229657508381135b6112565760405162461bcd60e51b81526004018080602001828103825260248152602001806145b96024913960400191505060405180910390fd5b8062ffffff811681146103f45760405162461bcd60e51b81526004018080602001828103825260438152602001806144e16043913960600191505060405180910390fd5b600082820181831280159061232a5750838112155b8061233f575060008312801561233f57508381125b6112565760405162461bcd60e51b81526004018080602001828103825260218152602001806144486021913960400191505060405180910390fd5b6000600a8263ffffffff1610156123a6576000612396846121aa565b5094965061125995505050505050565b60408051600280825260608201835260009260208301908036833701905050905082816000815181106123d557fe5b602002602001019063ffffffff16908163ffffffff16815250506000816001815181106123fe57fe5b63ffffffff9092166020928302919091019091015260405163883bdbfd60e01b81526000906001600160a01b0386169063883bdbfd90612442908590600401613fda565b60006040518083038186803b15801561245a57600080fd5b505afa15801561246e573d6000803e3d6000fd5b505050506040513d6000823e601f3d908101601f191682016040526124969190810190613a48565b5090506116778463ffffffff16826000815181106124b057fe5b6020026020010151836001815181106124c557fe5b60200260200101510360060b816124d857fe5b056130bc565b60006124e930612266565b15905090565b600054610100900460ff168061250857506125086124de565b80612516575060005460ff16155b6125515760405162461bcd60e51b815260040180806020018281038252602e815260200180614492602e913960400191505060405180910390fd5b600054610100900460ff1615801561257c576000805460ff1961ff0019909116610100171660011790555b6125846133e4565b8015612596576000805461ff00191690555b50565b600054610100900460ff16806125b257506125b26124de565b806125c0575060005460ff16155b6125fb5760405162461bcd60e51b815260040180806020018281038252602e815260200180614492602e913960400191505060405180910390fd5b600054610100900460ff16158015612626576000805460ff1961ff0019909116610100171660011790555b61262e6134d3565b609a80546001600160a01b0319166001600160a01b038416179055801561265b576000805461ff00191690555b5050565b6000806126878661267d87876000015161226c90919063ffffffff16565b600160601b6127a5565b90506126a06201518061269a8584612315565b90613568565b9695505050505050565b60008080600019858709868602925082811090839003039050806126e057600084116126d557600080fd5b5082900490506118ce565b8084116126ec57600080fd5b6000848688096000868103871696879004966002600389028118808a02820302808a02820302808a02820302808a02820302808a02820302808a02909103029181900381900460010186841190950394909402919094039290920491909117919091029150509392505050565b60006001600160ff1b038211156127a15760405162461bcd60e51b81526004018080602001828103825260288152602001806145916028913960400191505060405180910390fd5b5090565b600080600085126127b657846127bf565b6127bf85613039565b905060008085126127d057846127d9565b6127d985613039565b9050600080871280156127ec5750600086135b8061280257506000871380156128025750600086125b61280d576000612810565b60015b9050600061281f8484886126aa565b9050816128345761282f81612759565b61283d565b61283d81612fe2565b98975050505050505050565b6000828211156128a0576040805162461bcd60e51b815260206004820152601e60248201527f536166654d6174683a207375627472616374696f6e206f766572666c6f770000604482015290519081900360640190fd5b50900390565b8063ffffffff811681146103f45760405162461bcd60e51b815260040180806020018281038252602681526020018061456b6026913960400191505060405180910390fd5b60006112596001600160a01b03831680600160601b6126aa565b600061125982670de0b6b3a7640000600160601b6126aa565b600061125982600160601b670de0b6b3a76400006126aa565b60008060cf60009054906101000a90046001600160a01b03166001600160a01b0316636e1d2dd26040518163ffffffff1660e01b815260040160206040518083038186803b15801561298857600080fd5b505afa15801561299c573d6000803e3d6000fd5b505050506040513d601f19601f820116820180604052508101906129c09190613eab565b905060006129ce8483611d0d565b9050600084861115612a0b576129e48686612849565b90508181116129fb576129f681612759565b612a04565b612a0482612759565b9350612a38565b612a158587612849565b9050818111612a2c57612a2781612fe2565b612a35565b612a3582612fe2565b93505b50505092915050565b600082612a5057506000611259565b82600019148015612a645750600160ff1b82145b15612aa05760405162461bcd60e51b81526004018080602001828103825260278152602001806145446027913960400191505060405180910390fd5b82820282848281612aad57fe5b05146112565760405162461bcd60e51b81526004018080602001828103825260278152602001806145446027913960400191505060405180910390fd5b6001600160a01b038216600090815260d0602090815260408083205460d490925282205460029190910b9062ffffff168284612b2b57600182840303612b32565b8183016001015b9050612a35816130bc565b609a54815160405163033e16f360e21b815260009283926001600160a01b0390911691630cf85bcc91612b7291600401613f08565b60806040518083038186803b158015612b8a57600080fd5b505afa158015612b9e573d6000803e3d6000fd5b505050506040513d601f19601f82011682018060405250810190612bc29190613c34565b90506000816020015190506000826040015190506000612bf18660200151876040015188606001518686612ce5565b60cd5460408051610100810182528a516001600160a01b0390811682526020808d01511515818401526000838501819052606084018790526080808f015184169085015262ffffff808c1660a08601528a1660c08501528451808601865281815291820181905260e08401919091529251631477e1bf60e31b815294965091945091169163a3bf0df891612c8791600401614241565b606060405180830381600087803b158015612ca157600080fd5b505af1158015612cb5573d6000803e3d6000fd5b505050506040513d601f19601f82011682018060405250810190612cd99190613d1e565b51979650505050505050565b6000808615612d175785612d0457612cff85856001612f9b565b612d10565b612d1085846001612f9b565b9150612d32565b85612d225784612d2f565b612d2f8584866001613620565b91505b86612d4557612d4085612759565b612d4e565b612d4e82612759565b905085612d6357612d5e81613039565b612d65565b805b90509550959350505050565b612d7961373b565b60008260600151612d9657612d918360800151612fe2565b612da3565b612da38360800151612759565b905060008084600001516001600160a01b031663128acb0886602001518760400151868960a001516001600160a01b0316600014612de5578960a00151612e0f565b8960400151612e085773fffd8963efd1fc6a506488495d951d5263988d25612e0f565b6401000276a45b8a60c001516040518663ffffffff1660e01b8152600401612e34959493929190613f5b565b6040805180830381600087803b158015612e4d57600080fd5b505af1158015612e61573d6000803e3d6000fd5b505050506040513d601f19601f82011682018060405250810190612e859190613b43565b91509150600080612e958461223d565b612e9e8461223d565b915091506000876040015115158860600151151514612ebd5781612ebf565b825b90508760600151158015612ede575060a08801516001600160a01b0316155b15612f7f57600a88608001518211612f04576080890151612eff9083612849565b612f14565b6080890151612f14908390612849565b10612f315760405162461bcd60e51b81526004016105d790614201565b8760400151612f585760405180604001604052808960800151815260200183815250612f72565b604051806040016040528084815260200189608001518152505b96505050505050506103f4565b5060408051808201909152918252602082015295945050505050565b600081612fc657612fc184612fb8620f424062ffffff8716612849565b620f42406126aa565b611d05565b611d0584620f4240612fdd8162ffffff8816612849565b613661565b6000612fed82612759565b60000392915050565b80600281900b81146103f45760405162461bcd60e51b81526004018080602001828103825260298152602001806144696029913960400191505060405180910390fd5b6000600160ff1b821361305e5760405162461bcd60e51b81526004016105d7906141aa565b5060000390565b6000808212156127a1576040805162461bcd60e51b815260206004820181905260248201527f53616665436173743a2076616c7565206d75737420626520706f736974697665604482015290519081900360640190fd5b60008060008360020b126130d3578260020b6130db565b8260020b6000035b9050620d89e8811115613119576040805162461bcd60e51b81526020600482015260016024820152601560fa1b604482015290519081900360640190fd5b60006001821661312d57600160801b61313f565b6ffffcb933bd6fad37aa2d162d1a5940015b6001600160881b031690506002821615613169576ffff97272373d413259a46990580e213a0260801c5b6004821615613188576ffff2e50f5f656932ef12357cf3c7fdcc0260801c5b60088216156131a7576fffe5caca7e10e4e61c3624eaa0941cd00260801c5b60108216156131c6576fffcb9843d60f6159c9db58835c9266440260801c5b60208216156131e5576fff973b41fa98c081472e6896dfb254c00260801c5b6040821615613204576fff2ea16466c96a3843ec78b326b528610260801c5b6080821615613223576ffe5dee046a99a2a811c461f1969c30530260801c5b610100821615613243576ffcbe86c7900a88aedcffc83b479aa3a40260801c5b610200821615613263576ff987a7253ac413176f2b074cf7815e540260801c5b610400821615613283576ff3392b0822b70005940c7a398e4b70f30260801c5b6108008216156132a3576fe7159475a2c29b7443b29c7fa6e889d90260801c5b6110008216156132c3576fd097f3bdfd2022b8845ad8f792aa58250260801c5b6120008216156132e3576fa9f746462d870fdf8a65dc1f90e061e50260801c5b614000821615613303576f70d869a156d2a1b890bb3df62baf32f70260801c5b618000821615613323576f31be135f97d08fd981231505542fcfa60260801c5b62010000821615613344576f09aa508b5b7a84e1c677de54f3e99bc90260801c5b62020000821615613364576e5d6af8dedb81196699c329225ee6040260801c5b62040000821615613383576d2216e584f5fa1ea926041bedfe980260801c5b620800008216156133a0576b048a170391f7dc42444e8fa20260801c5b60008460020b13156133bb5780600019816133b757fe5b0490505b6401000000008106156133cf5760016133d2565b60005b60ff16602082901c0192505050919050565b600054610100900460ff16806133fd57506133fd6124de565b8061340b575060005460ff16155b6134465760405162461bcd60e51b815260040180806020018281038252602e815260200180614492602e913960400191505060405180910390fd5b600054610100900460ff16158015613471576000805460ff1961ff0019909116610100171660011790555b6134796134d3565b60006134836118d5565b603380546001600160a01b0319166001600160a01b03831690811790915560405191925090600090600080516020614524833981519152908290a3508015612596576000805461ff001916905550565b600054610100900460ff16806134ec57506134ec6124de565b806134fa575060005460ff16155b6135355760405162461bcd60e51b815260040180806020018281038252602e815260200180614492602e913960400191505060405180910390fd5b600054610100900460ff16158015613560576000805460ff1961ff0019909116610100171660011790555b61258461369b565b6000816135bc576040805162461bcd60e51b815260206004820181905260248201527f5369676e6564536166654d6174683a206469766973696f6e206279207a65726f604482015290519081900360640190fd5b816000191480156135d05750600160ff1b83145b1561360c5760405162461bcd60e51b81526004018080602001828103825260218152602001806144c06021913960400191505060405180910390fd5b600082848161361757fe5b05949350505050565b600080600083613631578585613634565b84865b9092509050611c038761364f620f424062ffffff8616612849565b612fdd620f424062ffffff8616612849565b600061366e8484846126aa565b90506000828061367a57fe5b84860911156118ce57600019811061369157600080fd5b6001019392505050565b600054610100900460ff16806136b457506136b46124de565b806136c2575060005460ff16155b6136fd5760405162461bcd60e51b815260040180806020018281038252602e815260200180614492602e913960400191505060405180910390fd5b600054610100900460ff16158015612584576000805460ff1961ff0019909116610100171660011790558015612596576000805461ff001916905550565b604051806040016040528060008152602001600081525090565b6040518061014001604052806000815260200160008152602001600081526020016000815260200160008152602001600081526020016000815260200160008152602001600060020b81526020016000151581525090565b6040518060e00160405280600081526020016000815260200160008152602001600081526020016000815260200160008152602001600060020b81525090565b80356103f481614401565b600082601f830112613808578081fd5b8151602061381d613818836143e4565b6143c1565b8281528181019085830183850287018401881015613839578586fd5b855b8581101561386057815161384e81614401565b8452928401929084019060010161383b565b5090979650505050505050565b80356103f481614416565b8051600281900b81146103f457600080fd5b805161ffff811681146103f457600080fd5b6000602082840312156138ad578081fd5b813561125681614401565b6000602082840312156138c9578081fd5b815161125681614401565b600080604083850312156138e6578081fd5b82356138f181614401565b9150602083013561390181614401565b809150509250929050565b600080600060608486031215613920578081fd5b833561392b81614401565b9250602084013561393b81614401565b9150604084013561394b81614401565b809150509250925092565b60008060408385031215613968578182fd5b823561397381614401565b9150602083013561390181614424565b60008060408385031215613995578182fd5b82356139a081614401565b9150602083013561390181614435565b600060208083850312156139c2578182fd5b82516001600160401b038111156139d7578283fd5b8301601f810185136139e7578283fd5b80516139f5613818826143e4565b8181528381019083850185840285018601891015613a11578687fd5b8694505b83851015613a3c578051613a2881614401565b835260019490940193918501918501613a15565b50979650505050505050565b60008060408385031215613a5a578182fd5b82516001600160401b0380821115613a70578384fd5b818501915085601f830112613a83578384fd5b81516020613a93613818836143e4565b82815281810190858301838502870184018b1015613aaf578889fd5b8896505b84871015613adf5780518060060b8114613acb57898afd5b835260019690960195918301918301613ab3565b5091880151919650909350505080821115613af8578283fd5b50613b05858286016137f8565b9150509250929050565b600060208284031215613b20578081fd5b815161125681614416565b600060208284031215613b3c578081fd5b5051919050565b60008060408385031215613b55578182fd5b505080516020909101519092909150565b60008060008060608587031215613b7b578182fd5b843593506020850135925060408501356001600160401b0380821115613b9f578384fd5b818701915087601f830112613bb2578384fd5b813581811115613bc0578485fd5b886020828501011115613bd1578485fd5b95989497505060200194505050565b600060608284031215613bf1578081fd5b604051606081018181106001600160401b0382111715613c0d57fe5b80604052508251815260208301516020820152604083015160408201528091505092915050565b600060808284031215613c45578081fd5b604051608081018181106001600160401b0382111715613c6157fe5b6040528251613c6f81614401565b81526020830151613c7f81614424565b60208201526040830151613c9281614424565b60408201526060830151613ca581614424565b60608201529392505050565b600060808284031215613cc2578081fd5b604051608081018181106001600160401b0382111715613cde57fe5b6040528235613cec81614401565b81526020830135613cfc81614401565b6020820152604083810135908201526060928301359281019290925250919050565b600060608284031215613d2f578081fd5b604051606081018181106001600160401b0382111715613d4b57fe5b604052613d5783613878565b815260208301516020820152604083015160408201528091505092915050565b600060e08284031215613d88578081fd5b60405160e081018181106001600160401b0382111715613da457fe5b604052613db0836137ed565b8152613dbe602084016137ed565b6020820152613dcf6040840161386d565b6040820152613de06060840161386d565b6060820152613df16080840161386d565b608082015260a083013560a0820152613e0c60c084016137ed565b60c08201529392505050565b600080600080600080600060e0888a031215613e32578485fd5b8751613e3d81614401565b9650613e4b60208901613878565b9550613e596040890161388a565b9450613e676060890161388a565b9350613e756080890161388a565b925060a088015160ff81168114613e8a578283fd5b60c0890151909250613e9b81614416565b8091505092959891949750929550565b600060208284031215613ebc578081fd5b815161125681614424565b600060208284031215613ed8578081fd5b815161125681614435565b15159052565b60020b9052565b80518252602090810151910152565b62ffffff169052565b6001600160a01b0391909116815260200190565b6001600160a01b0392831681529116602082015260400190565b6001600160a01b0384811682528316602082015260808101611d056040830184613ef0565b600060018060a01b038088168352602087151581850152866040850152818616606085015260a06080850152845191508160a0850152825b82811015613faf5785810182015185820160c001528101613f93565b82811115613fc0578360c084870101525b5050601f01601f19169190910160c0019695505050505050565b6020808252825182820181905260009190848201906040850190845b8181101561401857835163ffffffff1683529284019291840191600101613ff6565b50909695505050505050565b90815260200190565b60008582528460208301526060604083015282606083015282846080840137818301608090810191909152601f909201601f191601019392505050565b828152606081016118ce6020830184613ef0565b60208082526008908201526745585f4f504c425360c01b604082015260600190565b60208082526007908201526645585f42544e4560c81b604082015260600190565b6020808252600790820152660869088be9e86960cb1b604082015260600190565b60208082526008908201526745585f414f504c4f60c01b604082015260600190565b60208082526008908201526745585f4f504c415360c01b604082015260600190565b6020808252600590820152640455f4142360dc1b604082015260600190565b602080825260069082015265455f4f424e4360d01b604082015260600190565b6020808252600a908201526922ac2fa6aa21a627a7a960b11b604082015260600190565b6020808252600790820152662aa1a12fa321ab60c91b604082015260600190565b6020808252601c908201527f506572704d6174683a20696e76657273696f6e206f766572666c6f7700000000604082015260600190565b602080825260069082015265455f43484e4360d01b604082015260600190565b60208082526006908201526555425f554f4160d01b604082015260600190565b60208082526006908201526545585f424e4360d01b604082015260600190565b60006101208201905060018060a01b03808451168352602084015115156020840152604084015115156040840152606084015160608401528060808501511660808401525060a083015161429860a0840182613eff565b5060c08301516142ab60c0840182613eff565b5060e08301516142be60e0840182613ef0565b5092915050565b81516001600160a01b0390811682526020808401518216908301526040808401519091169082015260608083015162ffffff16908201526080918201519181019190915260a00190565b600061014082019050825182526020830151602083015260408301516040830152606083015160608301526080830151608083015260a083015160a083015260c083015160c083015260e083015160e08301526101008084015161437582850182613ee9565b50506101208084015161438a82850182613ee3565b505092915050565b62ffffff91909116815260200190565b918252602082015260400190565b63ffffffff91909116815260200190565b6040518181016001600160401b03811182821017156143dc57fe5b604052919050565b60006001600160401b038211156143f757fe5b5060209081020190565b6001600160a01b038116811461259657600080fd5b801515811461259657600080fd5b62ffffff8116811461259657600080fd5b63ffffffff8116811461259657600080fdfe5369676e6564536166654d6174683a206164646974696f6e206f766572666c6f7753616665436173743a2076616c756520646f65736e27742066697420696e20616e2032342062697473496e697469616c697a61626c653a20636f6e747261637420697320616c726561647920696e697469616c697a65645369676e6564536166654d6174683a206469766973696f6e206f766572666c6f7753616665436173743a2076616c7565206d75737420626520706f736974697665206f722076616c756520646f65736e27742066697420696e20616e20323420626974738be0079c531659141344cd1fd0a4f28419497f9722a3daafe3b4186f6b6457e05369676e6564536166654d6174683a206d756c7469706c69636174696f6e206f766572666c6f7753616665436173743a2076616c756520646f65736e27742066697420696e203332206269747353616665436173743a2076616c756520646f65736e27742066697420696e20616e20696e743235365369676e6564536166654d6174683a207375627472616374696f6e206f766572666c6f77a2646970667358221220451c90a4f50baf84faacf8ee599b9a4f65dfb7ec0300551760f1fd24e30faf1464736f6c63430007060033",
    "devdoc": {
        "kind": "dev",
        "methods": {
            "candidate()": {
                "details": "Returns the candidate that can become the owner."
            },
            "getPendingFundingPayment(address,address)": {
                "details": "this is the view version of _updateFundingGrowth()",
                "returns": {
                    "_0": "the pending funding payment of a trader in one market, including liquidity & balance coefficients"
                }
            },
            "owner()": {
                "details": "Returns the address of the current owner."
            },
            "renounceOwnership()": {
                "details": "Leaves the contract without owner. It will not be possible to call `onlyOwner` functions anymore. Can only be called by the current owner. NOTE: Renouncing ownership will leave the contract without an owner, thereby removing any functionality that is only available to the owner."
            },
            "setOwner(address)": {
                "details": "Set ownership of the contract to a new account (`newOwner`). Can only be called by the current owner."
            },
            "settleFunding(address,address)": {
                "details": "this function should be called at the beginning of every high-level function, such as openPosition()      while it doesn't matter who calls this function      this function 1. settles personal funding payment 2. updates global funding growth      personal funding payment is settled whenever there is pending funding payment      the global funding growth update only happens once per unique timestamp (not blockNumber, due to Arbitrum)",
                "returns": {
                    "fundingGrowthGlobal": "the up-to-date globalFundingGrowth, usually used for later calculations",
                    "fundingPayment": "the funding payment of a trader in one market should be settled into owned realized Pnl"
                }
            },
            "uniswapV3SwapCallback(int256,int256,bytes)": {
                "details": "In the implementation you must pay the pool tokens owed for the swap. The caller of this method must be checked to be a UniswapV3Pool deployed by the canonical UniswapV3Factory. amount0Delta and amount1Delta can both be 0 if no tokens were swapped.",
                "params": {
                    "amount0Delta": "The amount of token0 that was sent (negative) or must be received (positive) by the pool by the end of the swap. If positive, the callback must send that amount of token0 to the pool.",
                    "amount1Delta": "The amount of token1 that was sent (negative) or must be received (positive) by the pool by the end of the swap. If positive, the callback must send that amount of token1 to the pool.",
                    "data": "Any data passed through by the caller via the IUniswapV3PoolActions#swap call"
                }
            },
            "updateOwner()": {
                "details": "Transfers ownership of the contract to a new account (`_candidate`). Can only be called by the new owner."
            }
        },
        "version": 1
    },
    "userdoc": {
        "kind": "user",
        "methods": {
            "uniswapV3SwapCallback(int256,int256,bytes)": {
                "notice": "Called to `msg.sender` after executing a swap via IUniswapV3Pool#swap."
            }
        },
        "version": 1
    },
    "storageLayout": {
        "storage": [
            {
                "astId": 1039,
                "contract": "contracts/Exchange.sol:Exchange",
                "label": "_initialized",
                "offset": 0,
                "slot": "0",
                "type": "t_bool"
            },
            {
                "astId": 1042,
                "contract": "contracts/Exchange.sol:Exchange",
                "label": "_initializing",
                "offset": 1,
                "slot": "0",
                "type": "t_bool"
            },
            {
                "astId": 2356,
                "contract": "contracts/Exchange.sol:Exchange",
                "label": "__gap",
                "offset": 0,
                "slot": "1",
                "type": "t_array(t_uint256)50_storage"
            },
            {
                "astId": 20487,
                "contract": "contracts/Exchange.sol:Exchange",
                "label": "_owner",
                "offset": 0,
                "slot": "51",
                "type": "t_address"
            },
            {
                "astId": 20489,
                "contract": "contracts/Exchange.sol:Exchange",
                "label": "_candidate",
                "offset": 0,
                "slot": "52",
                "type": "t_address"
            },
            {
                "astId": 20493,
                "contract": "contracts/Exchange.sol:Exchange",
                "label": "__gap",
                "offset": 0,
                "slot": "53",
                "type": "t_array(t_uint256)50_storage"
            },
            {
                "astId": 20358,
                "contract": "contracts/Exchange.sol:Exchange",
                "label": "_clearingHouse",
                "offset": 0,
                "slot": "103",
                "type": "t_address"
            },
            {
                "astId": 20362,
                "contract": "contracts/Exchange.sol:Exchange",
                "label": "__gap",
                "offset": 0,
                "slot": "104",
                "type": "t_array(t_uint256)50_storage"
            },
            {
                "astId": 20677,
                "contract": "contracts/Exchange.sol:Exchange",
                "label": "_marketRegistry",
                "offset": 0,
                "slot": "154",
                "type": "t_address"
            },
            {
                "astId": 20681,
                "contract": "contracts/Exchange.sol:Exchange",
                "label": "__gap",
                "offset": 0,
                "slot": "155",
                "type": "t_array(t_uint256)50_storage"
            },
            {
                "astId": 24689,
                "contract": "contracts/Exchange.sol:Exchange",
                "label": "_orderBook",
                "offset": 0,
                "slot": "205",
                "type": "t_address"
            },
            {
                "astId": 24691,
                "contract": "contracts/Exchange.sol:Exchange",
                "label": "_accountBalance",
                "offset": 0,
                "slot": "206",
                "type": "t_address"
            },
            {
                "astId": 24693,
                "contract": "contracts/Exchange.sol:Exchange",
                "label": "_clearingHouseConfig",
                "offset": 0,
                "slot": "207",
                "type": "t_address"
            },
            {
                "astId": 24697,
                "contract": "contracts/Exchange.sol:Exchange",
                "label": "_lastUpdatedTickMap",
                "offset": 0,
                "slot": "208",
                "type": "t_mapping(t_address,t_int24)"
            },
            {
                "astId": 24701,
                "contract": "contracts/Exchange.sol:Exchange",
                "label": "_firstTradedTimestampMap",
                "offset": 0,
                "slot": "209",
                "type": "t_mapping(t_address,t_uint256)"
            },
            {
                "astId": 24705,
                "contract": "contracts/Exchange.sol:Exchange",
                "label": "_lastSettledTimestampMap",
                "offset": 0,
                "slot": "210",
                "type": "t_mapping(t_address,t_uint256)"
            },
            {
                "astId": 24709,
                "contract": "contracts/Exchange.sol:Exchange",
                "label": "_globalFundingGrowthX96Map",
                "offset": 0,
                "slot": "211",
                "type": "t_mapping(t_address,t_struct(Growth)22171_storage)"
            },
            {
                "astId": 24713,
                "contract": "contracts/Exchange.sol:Exchange",
                "label": "_maxTickCrossedWithinBlockMap",
                "offset": 0,
                "slot": "212",
                "type": "t_mapping(t_address,t_uint24)"
            },
            {
                "astId": 24719,
                "contract": "contracts/Exchange.sol:Exchange",
                "label": "_lastOverPriceLimitTimestampMap",
                "offset": 0,
                "slot": "213",
                "type": "t_mapping(t_address,t_mapping(t_address,t_uint256))"
            }
        ],
        "types": {
            "t_address": {
                "encoding": "inplace",
                "label": "address",
                "numberOfBytes": "20"
            },
            "t_array(t_uint256)50_storage": {
                "base": "t_uint256",
                "encoding": "inplace",
                "label": "uint256[50]",
                "numberOfBytes": "1600"
            },
            "t_bool": {
                "encoding": "inplace",
                "label": "bool",
                "numberOfBytes": "1"
            },
            "t_int24": {
                "encoding": "inplace",
                "label": "int24",
                "numberOfBytes": "3"
            },
            "t_int256": {
                "encoding": "inplace",
                "label": "int256",
                "numberOfBytes": "32"
            },
            "t_mapping(t_address,t_int24)": {
                "encoding": "mapping",
                "key": "t_address",
                "label": "mapping(address => int24)",
                "numberOfBytes": "32",
                "value": "t_int24"
            },
            "t_mapping(t_address,t_mapping(t_address,t_uint256))": {
                "encoding": "mapping",
                "key": "t_address",
                "label": "mapping(address => mapping(address => uint256))",
                "numberOfBytes": "32",
                "value": "t_mapping(t_address,t_uint256)"
            },
            "t_mapping(t_address,t_struct(Growth)22171_storage)": {
                "encoding": "mapping",
                "key": "t_address",
                "label": "mapping(address => struct Funding.Growth)",
                "numberOfBytes": "32",
                "value": "t_struct(Growth)22171_storage"
            },
            "t_mapping(t_address,t_uint24)": {
                "encoding": "mapping",
                "key": "t_address",
                "label": "mapping(address => uint24)",
                "numberOfBytes": "32",
                "value": "t_uint24"
            },
            "t_mapping(t_address,t_uint256)": {
                "encoding": "mapping",
                "key": "t_address",
                "label": "mapping(address => uint256)",
                "numberOfBytes": "32",
                "value": "t_uint256"
            },
            "t_struct(Growth)22171_storage": {
                "encoding": "inplace",
                "label": "struct Funding.Growth",
                "members": [
                    {
                        "astId": 22168,
                        "contract": "contracts/Exchange.sol:Exchange",
                        "label": "twPremiumX96",
                        "offset": 0,
                        "slot": "0",
                        "type": "t_int256"
                    },
                    {
                        "astId": 22170,
                        "contract": "contracts/Exchange.sol:Exchange",
                        "label": "twPremiumDivBySqrtPriceX96",
                        "offset": 0,
                        "slot": "1",
                        "type": "t_int256"
                    }
                ],
                "numberOfBytes": "64"
            },
            "t_uint24": {
                "encoding": "inplace",
                "label": "uint24",
                "numberOfBytes": "3"
            },
            "t_uint256": {
                "encoding": "inplace",
                "label": "uint256",
                "numberOfBytes": "32"
            }
        }
    }
}